:020000040000FA
:0800000000000000DBEF00F03E
:0200080008D01E
:02000A000000F4
:0200180085D091
:06001A008988E9CF03F321
:10002000EACF04F348BC3DD09EA813D09DA811D0C0
:1000300004010091212F02D09D980BD0040104EE01
:1000400001F02351EBCFADFF232B200E2319D8B4A1
:10005000236B9DAA61D09EAA5FD0AECFFBF4060EA3
:100060000F01AB1419E1040100B956D000A302D06E
:10007000008952D004EE24F00095F82BD40EF81924
:1000800009E0F951FBC4EBFFF92BD40EF919D8B4F0
:10009000F96B42D0008340D0AB98AB880401008755
:1000A0003BD0A4A813D0A3A811D005010091212F03
:1000B00002D0A3980BD0050105EE01F02351EBCF40
:1000C00073FF232B200E2319D8B4236BA3AA24D0AB
:1000D000A4AA22D074CFFBF5060E711419E1050114
:1000E00000B91AD000A302D0008916D005EE24F082
:1000F0000095F82BD40EF81909E0F951FBC5EBFF78
:10010000F92BD40EF919D8B4F96B06D0008304D0BA
:10011000719871880501008704C3EAFF03C3E9FFF2
:10012000899811008988D8CF01F3E8CF00F3E0CF98
:1001300002F39DA009D09EA007D00001362E02D068
:100140004C849D909E902FD0A0A20AD0A1A208D04E
:100150000001372E03D04D80100E376EA19223D0B0
:10016000F2A609D0F2A007D0F2900001FDEC03F056
:100170008150000018D0F2AA0AD0F2A408D00001E1
:100180000252D8B44882D8A40206F2940CD07DA2C0
:1001900009D07EA207D00001382E02D049887D9276
:1001A0007E9201D000D002C3E0FF00C3E8FF01C38C
:1001B000D8FF89981000000000000F01896AC00E66
:1001C000386FC00E926E000E396FF00E936E616E36
:1001D000626EF19EF00E8A6E8B6A000E3A6FAE0E62
:1001E000946E8C6A000E3B6FA00E956E8D6A000EA9
:1001F0003C6F000E966E0F01F26AD08EF290F2966E
:10020000F190F298F292F09CF090F096F09EF092BD
:10021000F098F19CF19AF198D76AD66AD59ED59C50
:10022000D59AD598D596D584D582D580F29AF19471
:10023000F294CF6ACE6ACD80CC9CCC98CD92CD8AF8
:10024000CD883F91CC9ECC92CC90CD9ECD9CCD962E
:10025000CD949F909D90A3909E90B36AB26AB18016
:100260003F95B49EB49CB498B492B490B182B18AD4
:10027000B188B19EB19CB196B194A292A092A39282
:10028000A192506B4F6B4E814D9D4D994D934D9169
:100290004E834E8B4E893F994D9F4E9F4E9D4E975C
:1002A0004E957F927D92A3947E929F889F8AA58887
:1002B000A58AB8967096B06A766AAC6A726A0001CE
:1002C0008B8C8C8C056A046A026A296A080E0E6E91
:1002D000476A4780486A496A4A6A4B6A4D6A4E6A69
:1002E0004C6A4F6A096A396A4C844368000EE8CF49
:1002F00000F6FF0E1E6F516A036A2C6A4D6A8988E8
:10030000489CE4EC3CF023B0488C5184F8EC05F0B8
:10031000519423EC02F036EC02F09D9AA39A3BEC48
:1003200005F048BCE4EC02F048ACDBEC02F0F290E3
:10033000F286F2949E90A1927E928998F28EF28C2F
:10034000010EC0EC05F0310EC0EC05F0340EC0EC2F
:1003500005F0340EC0EC05F0470EC0EC05F00D0EB4
:10036000C0EC05F017EC05F0FF0EE8CF29F6F4EC31
:1003700002F0FFEC06F008EC03F03BEC05F02F6A0E
:10038000F4EC02F01DC03DF07D927E920001499692
:1003900013EC03F049BE16D049861DC03DF017EEA0
:1003A00000F02C500AC0E3FF2C2A3B0E0A620AD050
:1003B0002CC02DF04C82010E366E64EC36F088ECC9
:1003C00020F0E5D74DA005D049B603D03D2E01D091
:1003D000CBD749B8ABEC08F04DB07CEC20F093ECF7
:1003E00004F048A62FD0F29AD59E0001D0EC04F07C
:1003F00047AAE0EC04F047A003D0C6EC22F019D0E5
:1004000047A203D02DEC28F014D047A803D090ECDD
:100410002CF00FD047A603D011EC2BF00AD047AA3E
:1004200003D0B3EC37F005D047A40CD037EC03F081
:1004300000D0ACEC04F0056A489681500000F290C0
:10044000F2860001A4D70F01AC8A9D989D8AAB6A01
:10045000AB8EAB880401216B236B226B0401F86B1C
:10046000FA6BF96B0401006B000112000F01728A34
:10047000A398A38A716A718E71880501216B236B21
:10048000226B0501F86BFA6BF96B0501006B00013B
:10049000120048BC15D00401F85102E10085000C9F
:1004A00004EE24F0FA51EBCFFCF4FA2BD40EFA1937
:1004B000D8B4FA6BF80700930099FCC4E8FF120067
:1004C0000501F85102E10085000C05EE24F0FA5117
:1004D000EBCFFCF5FA2BD40EFA19D8B4FA6BF80767
:1004E00000930099FCC5E8FF120048BC20D004012D
:1004F000FC6F00B11AD0215107E1FCC4ADFF232BE2
:10050000200E2319D8B4236B04EE01F02251FCC451
:10051000EBFF222B200E2219D8B4226B212B200EA8
:100520002119D8A401D000819D8800011200050185
:10053000FC6F00B11AD0215107E1FCC573FF232BDA
:10054000200E2319D8B4236B05EE01F02251FCC50F
:10055000EBFF222B200E2219D8B4226B212B200E68
:100560002119D8A401D00081A388120048BC08D06A
:100570000F01B896AC94470EAF6E000EB06E07D068
:100580000F0170967294470E756E000E766E000124
:1005900012000F0148BC07D0B896AC84230EAF6E92
:1005A000010EB06E06D070967284230E756E010E29
:1005B000766E00011200729A7198A398A39A3BEC90
:1005C00005F023EC02F01200AC9AAB983BEC05F07E
:1005D00036EC02F012004C98E650DE6203D0302E6A
:1005E000FBD701D04C881200A092100E376E4D90B0
:1005F000B36AB26AA192A08212001FC038F0499873
:10060000000EE8CF50FFE8CF4FFF7E927D821200B0
:100610002C6AD40E48BCD40E266E17EE00F0E66AA3
:10062000262EFDD71200498E48BC0CD0040100B51F
:1006300014D00401F85111E049EC02F0499EE8CFD2
:100640000AF00BD0050100B508D00501F85105E00E
:1006500049EC02F0499EE8CF0AF0000112000900BF
:10066000F550D8B4120075EC02F0F9D71200046A04
:10067000000EFB6E060EFA6E0544016E860E012416
:10068000D8B0FA2AF96EB0D0AFD0AED00DD0ACD081
:10069000ABD0AAD016D0A8D0A7D0A6D01ED037D025
:1006A000A3D085D089D01200102A1050140AD8B4D3
:1006B000106A4888DCEC38F0489885EC04F0246A2D
:1006C00098D01006130E1060106E4888DCEC38F0DD
:1006D000489885EC04F0246A8CD0BBEC04F04ABE48
:1006E00006D04982DCEC38F085EC04F082D006ECD0
:1006F0003DF0000EF86E7C0EF76E840EF66EEFEC99
:1007000005F0476A4780F29AD59E246A72D0245237
:10071000D8B46AD0000EF86E7E0EF76E0A0EF66E32
:10072000EFEC05F0AC84230EAF6E010EB06EDBEC87
:1007300002F0489CACEC04F0056A48968150000039
:10074000F290F28613EC03F049BE11D0C10E0A629A
:10075000F9D7D0EC04F0000EF86E7E0EF76E320E74
:10076000F66EEFEC05F0320E8AEC05F0FF0048A6BD
:10077000E9D7F29AD59E4890D0EC04F0E0EC04F072
:10078000000EF86E7B0EF76E660EF66EEFEC05F05F
:10079000320E8AEC05F0000EF86E7D0EF76E860EB6
:1007A000F66EEFEC05F0320E8AEC05F0FF002452F5
:1007B000D8B41AD0BCEF06F0BBEC04F04ABE06D0A9
:1007C0004980DCEC38F085EC04F013D0000EF86EB4
:1007D0007C0EF76E9A0EF66EEFEC05F0476A4780D6
:1007E000F29AD59E246A05D00EEC05F085EC04F053
:1007F00000D049924990056A1200066A062E01D07F
:100800007CD0076A072E01D0F9D7811C006EF00B4F
:10081000F9E0FE0E8A6E0CEF04F00EEF04F010EF1C
:1008200004F012EF04F0811CF00B10E00F0E056EC7
:1008300000B866D00B0E056E00BA62D0070E056ECA
:1008400000BC5ED0030E056E00BE5AD0FD0E8A6E4F
:1008500029EF04F02BEF04F02DEF04F02FEF04F05C
:10086000811CF00B10E00E0E056E00B849D00A0E88
:10087000056E00BA45D0060E056E00BC41D0020ED2
:10088000056E00BE3DD0FB0E8A6E46EF04F048EFC9
:1008900004F04AEF04F04CEF04F0811CF00B10E080
:1008A0000D0E056E00B82CD0090E056E00BA28D0CA
:1008B000050E056E00BC24D0010E056E00BE20D0D2
:1008C000F70E8A6E63EF04F065EF04F067EF04F053
:1008D00069EF04F0811CF00B10E00C0E056E00B8FF
:1008E0000FD0080E056E00BA0BD0040E056E00BCCA
:1008F00007D0000E056E00BE03D0056A489602D0F0
:100900004886F296F00E8A6E120048A40BD0D76A81
:10091000D66AD584D592D580488048921BC002F013
:10092000F28AD58E120048A0120048A21200489008
:10093000046A246A4B964B984B9A096A4B9C476A07
:100940004780000EF86E7C0EF76E660EF66EEFECCA
:1009500005F0F29AD59E1200F00E8A1600000000F3
:1009600089EC05F0811CF00BFBE189EC05F0811CA2
:10097000F00BFBE112004A9EF00E8A160000000008
:10098000320E066E89EC05F0811CF00B08E0062E95
:10099000F9D700EC05F0070E8AEC05F04A8E12003C
:1009A000180EC0EC05F0200EC0EC05F012002C0E65
:1009B000C0EC05F0200EC0EC05F0BFEC05F0120015
:1009C00047BA1DD047A410D01050090A0DE10550B8
:1009D0000B0A01E105D005500F0AD8A405D000D0BC
:1009E0001A52D8A40CD003D01A6601D008D0000E39
:1009F000F86E7B0EF76ED40EF66EEFEC05F012007B
:100A00001A520BE0000EF86E7B0EF76EE20EF66ED9
:100A1000EFEC05F0080E8AEC05F01200000EF86EFF
:100A20007B0EF76EF00EF66EEFEC05F0120048BC90
:100A30000AD000D0000EF86E7D0EF76E280EF66E0E
:100A4000EFEC05F008D0000EF86E7D0EF76E300E5C
:100A5000F66EEFEC05F0120048BC06D00401006B06
:100A6000F86BF96BFA6B05D00501006BF86BF96B4D
:100A7000FA6B0001120048BC09D0D40E266E0401A6
:100A800014EE24F0E66A262EFDD708D0D40E266E8A
:100A9000050115EE24F0E66A262EFDD700011200AE
:100AA0005192E8CF1CF32F0807E006E21CC3E8FFD1
:100AB0003B0802E001E351821CC3E8FF120003017E
:100AC0001A51185F1951D8A0193D175F0001120083
:100AD0000301181F171F183D1707172B186F171141
:100AE0000001120003011151146FD890143714370C
:100AF0001427143712511427136B000E106507D0FA
:100B0000D890640E1427D8B0132B1007F6D7000125
:100B10001200010EE8CF05F3200EE8CF06F390EFA8
:100B200005F092EF05F094EF05F096EF05F098EFE1
:100B300005F00000F50EE8CF07F30000000007C342
:100B4000E8FFE806E8CF07F3FAE1000006C3E8FF94
:100B5000E806E8CF06F3EEE105C3E8FFE806E8CFD4
:100B600005F305E0B3EF05F0B5EF05F0D5D71200BA
:100B70000F6EC0EC05F0BFEC05F00F5012000D0E2B
:100B80000E2E03D082B6FED70E86F29EF29C0B6E1E
:100B90000C0E0C6E8B90090E0D6E0C2ECDEF05F029
:100BA0000C0E0C6E0D2E12D0000000000000000094
:100BB000000000008B800D0E0C6E0C2EDDEF05F09A
:100BC0000000F28EF28C0B320B50120000000B3240
:100BD000D8A003D000008B80E0D78B90DED709002F
:100BE000F550D8B4120082B6FED7C0EC05F0F7D7A6
:100BF000320E8AEC05F0BFEC05F0230E8AEC05F00E
:100C00001E0EC0EC05F0010EC0EC05F0400EC0EC6D
:100C100005F0BFEC05F0010EC0EC05F0330EC0ECA2
:100C200005F04B0EC0EC05F0BFEC05F0BFEC05F095
:100C300010C025F0140E106E1006DCEC38F089ECB4
:100C400005F01050F9E125C010F0000EF86E7A0E94
:100C5000F76E4C0EF66EEFEC05F012001200E8CFC6
:100C60001BF3F00BE83846EC06F0C0EC05F0200E64
:100C7000C0EC05F01BC3E8FF0F0B46EC06F0C0EC20
:100C800005F0BFEC05F01BC3E8FF1200016E000E7B
:100C9000FB6E0C0EFA6E0144016EA40E0124D8B056
:100CA000FA2AF96E300C310C320C330C340C350C42
:100CB000360C370C380C390C410C420C430C440CEC
:100CC000450C460C1200E8CF1BF37BEC06F0300F0E
:100CD000C0EC05F01BC3E8FF90EC06F0300FC0EC51
:100CE00005F01BC3E8FFA6EC06F0300FC0EC05F0E2
:100CF0001BC3E8FF1200E8CF11F3000EE8CF12F398
:100D000012C3E8FFE82AE8CF12F311C3E8FF9C0FF3
:100D1000E8CF11F3D8B0F4D712C3E8FFE806120009
:100D2000E8CF11F3000EE8CF12F312C3E8FFE82A70
:100D3000E8CF12F311C3E8FFF60FE8CF11F3D8B0F4
:100D4000F4D712C3E8FFE806A6EF06F0E8CF12F3E7
:100D500012C3E8FFF60FE8CF12F3D8B0F9D712C3E9
:100D6000E8FF0A0F1200000EF86E7E0EF76E6E0E90
:100D7000F66EEFEC05F01200330EC0EC05F0BFECA0
:100D800005F0640E8AEC05F0320EC0EC05F0BFEC05
:100D900005F0640E8AEC05F0310EC0EC05F0BFECF6
:100DA00005F0640E8AEC05F0000EF86E7D0EF76E0D
:100DB000860EF66EEFEC05F0FA0E8AEC05F0FF00F9
:100DC0001200488E000EF86E7D0EF76E9A0EF66ECB
:100DD000EFEC05F085EC04F01200000EF86E7B0ECF
:100DE000F76E7A0EF66EEFEC05F01200000EF86E5C
:100DF0007B0EF76E860EF66EEFEC05F01200506A71
:100E0000090E50B80A0EE8CF00F20A0E3E6EC9EC89
:100E100002F048BC03D08B988C8402D08C948B88D1
:100E20002C6A500E75EC02F0530E75EC02F03B0E7E
:100E300075EC02F02C6604D093EC04F048B64FD168
:100E400013EC03F049BEF7EF07F017EE00F02C505B
:100E50000AC0E3FF2C2A3B0E0A62F7EF07F000C737
:100E6000E8FF500A06E000C7E8FF490A08E0F7EF8C
:100E700007F001C7E8FF530A08E0F7EF07F001C7E2
:100E8000E8FF440A18E0F7EF07F002C7E8FF310A6D
:100E9000D8A4F7EF07F0140E8AEC05F02CEC05F05F
:100EA0002C6A490E75EC02F0440E75EC02F03B0E14
:100EB00075EC02F0BFD702C7E8FF50EC05F051A275
:100EC00096D003C7E8FF50EC05F051A290D004C7BC
:100ED000E8FF50EC05F051A28AD005C7E8FF50ECBE
:100EE00005F051A284D003C7E8FFD00FE8CF10F37C
:100EF00004C7E8FFD00FE8CF11F305C7E8FFD00F14
:100F0000E8CF12F372EC05F014C341F07F0EE8CF86
:100F100026F2000EE8CF25F2F10E41180EE15080C6
:100F2000F40EE8CF26F2010EE8CF25F2000EF86E9F
:100F3000820EF76EB80EF66EB3D0F40E411813E1C0
:100F40005080FE0EE8CF26F2010EE8CF25F2000E0B
:100F5000F86E820EF76EB80EF66E440EC0EC05F019
:100F6000BFEC05F09DD0360E411808E15082000E0E
:100F7000F86E820EF76EC00EF66E92D0540E4118C7
:100F800003E0550E411808E15086000EF86E820EFF
:100F9000F76EC80EF66E84D06A0E411808E15084D0
:100FA000000EF86E820EF76ED20EF66E79D0A90E94
:100FB00041180DE1508A50885084810EE8CF26F206
:100FC000000EF86E820EF76EDC0EF66E69D0AA0E79
:100FD000411855E1508C50885084810EE8CF26F29C
:100FE000000EF86E820EF76EE60EF66E59D04DA02A
:100FF00021D74D903E2E14D7B6EC02F05052D89027
:10100000D8B4D88050365050450E75EC02F0580ECA
:1010100075EC02F0300E75EC02F050B0310E50B2AB
:10102000320E50B4330E50B8330E75EC02F050B09F
:10103000300E50B2360E50B4320E50B8300E75EC41
:1010400002F050A809D0310E75EC02F0300E75ECAC
:1010500002F0390E75EC02F050B0340E50B2330E7F
:1010600050B4330E50B8330E75EC02F03B0E75ECF5
:1010700002F0320E8AEC05F0C9EC02F0C1D66A0E1D
:10108000416E5084000EF86E7C0EF76EDA0EF66E2E
:10109000EFEC05F0000EF86E820EF76EB00EF66EF5
:1010A000EFEC05F00A0E8AEC05F0410E75EC02F04B
:1010B000490E75EC02F0310E75EC02F03B0E75EC4A
:1010C00002F00A0E8AEC05F0D0EC0AF01DC2E8FF2F
:1010D000300A05E05BEC37F00A0E8AEC05F01200EE
:1010E000489681500000F290F2864B902C6A1D5079
:1010F0003D6E2C6604D093EC04F048B614D013EC8B
:1011000003F049BE09D017EE00F02C500AC0E3FFEF
:101110002C2A0A503B0A1DE04DA0EBD7F4EC02F05C
:101120003D2EE7D70BD0D0EC04F0000EF86E7C0E0D
:10113000F76E660EF66EEFEC05F00CD0D0EC04F016
:10114000000EF86E7D0EF76E180EF66EEFEC05F0E1
:1011500001D04B8012001DEC36F0460EE8CFB0F106
:101160001EC2E8FF010A420E06E01EC2E8FF020AA4
:10117000430E01E0410EE8CFB1F13B0EE8CFB2F1F2
:10118000CCEC08F04FA204D036EC36F036EC29F067
:101190002C6A7D9249981200ACEC04F04F924B807F
:1011A00048BC07D0AB989D9A23EC02F0DBEC02F030
:1011B00006D07198A39A36EC02F0E4EC02F04BA052
:1011C00042D011EEB0F0180E2C6EE6CF40F0405039
:1011D00075EC02F040503B0A0CE02C06D8A4F5D781
:1011E000000EF86E7E0EF76EAC0EF66EEFEC05F0AC
:1011F0002AD008EC03F02C6A70EC08F04BA0D0D792
:101200004CBE6BEC36F000C740F03F0E40180FE0CC
:10121000B0C140F000C7E8FF401807E1B1C140F09D
:1012200001C7E8FF401801E10DD0E3D70CD047B665
:101230000AD0000EF86E7E0EF76EAC0EF66EEFEC76
:1012400005F001D04F827D924998499A2CC02DF02B
:101250002C6A3F0EE8CFB0F1E8CF00F712001DEC8A
:1012600036F0410EE8CFB0F1430EE8CFB1F13B0EBE
:10127000E8CFB2F1CCEC08F04FA202D091EC13F021
:101280002C6A12001DEC36F0410EE8CFB0F14E0E84
:10129000E8CFB1F1300E4FB4310EE8CFB2F13B0ED2
:1012A000E8CFB3F1CCEC08F04FA202D0CEEC13F0B3
:1012B0002C6A1200300EE8CF1FF250A409D081EC46
:1012C00037F04FA2EFD002C71FF2640E8AEC05F090
:1012D0000B0E05180BE11CA01DD0000EF86E830E3E
:1012E000F76E120EF66EEFEC05F014D00F0E051827
:1012F000D8A40BD01CA01ED0000EF86E830EF76E83
:10130000160EF66EEFEC05F015D0070E0518D8B4E2
:10131000C5D020D01DEC36F0420E75EC02F0550E13
:1013200075EC02F01FC2E8FF75EC02F03B0E75ECA5
:1013300002F0B8D01DEC36F0420E75EC02F0440E0F
:1013400075EC02F01FC2E8FF75EC02F03B0E75EC85
:1013500002F0A8D01DEC36F0420E75EC02F0530EF0
:1013600075EC02F00C0E05180DE1310E75EC02F073
:10137000310E75EC02F0000EF86E820EF76E0E0E56
:10138000F66E89D00D0E05180DE1310E75EC02F0E8
:10139000300E75EC02F0000EF86E810EF76EE40E62
:1013A000F66E79D0300E75EC02F0000E05180AE1E9
:1013B000300E75EC02F0000EF86E810EF76EA80E7E
:1013C000F66E69D0010E05180AE1310E75EC02F0D7
:1013D000000EF86E810EF76EAE0EF66E5CD0020E49
:1013E00005180AE1330E75EC02F0000EF86E810E5E
:1013F000F76EBA0EF66E4FD0040E05180AE1340EE1
:1014000075EC02F0000EF86E810EF76EC00EF66EEF
:1014100042D0050E05180AE1350E75EC02F0000EFB
:10142000F86E810EF76EC60EF66E35D0060E0518F4
:101430000AE1360E75EC02F0000EF86E810EF76EC2
:10144000CC0EF66E28D0080E05180AE1370E75ECA2
:1014500002F0000EF86E810EF76ED20EF66E1BD003
:10146000090E05180AE1380E75EC02F0000EF86E50
:10147000810EF76ED80EF66E0ED00A0E05180AE130
:10148000390E75EC02F0000EF86E810EF76EDE0E6E
:10149000F66E01D007D03B0E75EC02F01CB0EFECFD
:1014A00005F04B9A1DEC36F01E0E8AEC05F01DEC93
:1014B00036F02CEC05F03BEC05F008EC03F02C6A60
:1014C00012001DEC36F0420EE8CFB0F1430EE8CF2B
:1014D000B1F1300E4FB4310EE8CFB2F13B0EE8CF90
:1014E000B3F1CCEC08F04FA202D01EEC14F02C6A41
:1014F00012001DEC36F0460EE8CFB0F1410EE8CFF9
:10150000B1F13B0EE8CFB2F1CCEC08F04FA20DD018
:1015100036EC36F036EC29F0215207E04F9450ECCF
:101520000CF04FA202D05EEC0DF02C6A12001DEC04
:1015300036F0460EE8CFB0F1420EE8CFB1F13B0EE7
:10154000E8CFB2F1CCEC08F04FA20FD036EC36F079
:1015500036EC29F0215209E04F9450B44F8450ECFE
:101560000CF04FA202D05EEC0DF02C6A12001DECC4
:1015700036F0470EE8CFB0F1540EE8CFB1F1300E9F
:101580004FB4310EE8CFB2F13B0EE8CFB3F1CCEC63
:1015900008F04FA203D0D3EC15F000D02C6A120053
:1015A0001DEC36F0490EE8CFB0F1460EE8CFB1F1B0
:1015B0003B0EE8CFB2F1CCEC08F04FA21DD015C71E
:1015C0001DF250B816C71DF202C720F203C721F260
:1015D00004C722F245EC0BF01DC2E8FF300A0CE113
:1015E00017EE00F022EE01F01B0E50B81C0E266E16
:1015F000E6CFDEFF262EFCD712001DEC36F04D0E96
:1016000075EC02F0570E75EC02F020C2E8FF75ECA5
:1016100002F021C2E8FF75EC02F022C2E8FF75EC8F
:1016200002F012EE06F0160E266EE6CFE8FF75EC1D
:1016300002F0262EFAD7120081EC37F04FA224D008
:1016400002C7E8FF1EC200F000181EE0140E8AEC6C
:1016500005F01DEC36F0560E75EC02F0530E75ECED
:1016600002F01EC2E8FF010A310E06E01EC2E8FFCA
:10167000020A320E01E0300E75EC02F03B0E75EC02
:1016800002F00A0E8AEC05F01200000EE8CF0EF30D
:10169000E8CF0FF320C2E8FFD00FE8CF10F321C24C
:1016A000E8FFD00FE8CF11F322C2E8FFD00FE8CF58
:1016B00012F37FEC3CF013C323F214C324F21200A4
:1016C00015C700F00050300A05E11DC2E8FF300ADE
:1016D00019E13AD00050310A05E11DC2E8FF310A94
:1016E00019E132D00050320A05E11DC2E8FF320A8A
:1016F00016E12AD00050330A27E11DC2E8FF330A61
:1017000019E122D0D0EC04F0F0EC34F0476A4780C5
:101710004A6A1AD0D0EC04F05BEC37F015D0D0EC6C
:1017200004F0000EF86E880EF76E400EF66EEFECC9
:1017300005F00AD0D0EC04F0000EF86E880EF76EBB
:10174000480EF66EEFEC05F015C71DF212001DEC09
:1017500036F0000EF86E890EF76E7A0EF66EEFEC2C
:1017600005F04B0EE8CFB0F1520EE8CFB1F13B0ED1
:10177000E8CFB2F1CCEC08F04FA202D046EC16F064
:101780002C6A12001DEC36F04B0EE8CFB0F1530E70
:10179000E8CFB1F13B0EE8CFB2F1CCEC08F04FA2AC
:1017A00002D050EC16F02C6A12001DEC36F050EC12
:1017B0000CF04FA202D065EC0CF02C6A1200300E37
:1017C000E8CF1FF250A409D081EC37F04FA267D0C8
:1017D00002C71FF2640E8AEC05F024C600F00A0E60
:1017E000001803E1410E006E20D00B0E001803E13B
:1017F000420E006E1AD00C0E001803E1430E006E6C
:1018000014D00D0E001803E1440E006E0ED00E0E23
:10181000001803E1450E006E08D00F0E001803E11A
:10182000460E006E02D0300E002600C024F61DECDD
:1018300036F04D0EE8CFB0F1440EE8CFB1F11FC243
:10184000E8FFE8CFB2F13B0EE8CFB3F1CCEC08F003
:101850004FA225D047B805D003C73CF065EC0CF08B
:101860001ED003C700F024C6E8FF001818E00A0ED7
:101870008AEC05F01DEC36F01DEC36F04D0E75ECE3
:1018800002F0440E75EC02F01FC2E8FF75EC02F0A6
:1018900024C6E8FF75EC02F03B0E75EC02F0120076
:1018A0004D0EE8CFB0F1440EE8CFB1F1300E4FB499
:1018B000310EE8CFB2F13B0EE8CFB3F1CCEC08F03B
:1018C0004FA202D003C73CF0120002C7E8FF300A63
:1018D00002E0A1EC37F01CA008D0000EF86E800EDC
:1018E000F76E6A0EF66EEFEC05F0310E3C1807E16C
:1018F000000EF86E800EF76EAA0EF66EDCD0320E79
:101900003C1807E1000EF86E800EF76EA20EF66E20
:10191000D2D0330E3C1810E150B807D0000EF86E4C
:10192000800EF76E720EF66EC6D0000EF86E850E43
:10193000F76E580EF66EBFD0340E3C1807E1000E5D
:10194000F86E800EF76E9C0EF66EB5D0350E3C1814
:1019500007E1000EF86E800EF76E640EF66EABD0E7
:10196000360E3C1810E150B807D0000EF86E800E0D
:10197000F76EBA0EF66E9FD0000EF86E850EF76EFB
:101980006C0EF66E98D0370E3C1810E150B807D0A8
:10199000000EF86E800EF76E780EF66E8CD0000E8C
:1019A000F86E850EF76E620EF66E85D0380E3C1816
:1019B00019E150B009D050B80ED0000EF86E850E67
:1019C000F76EBE0EF66E77D0000EF86E850EF76ECF
:1019D000DA0EF66E70D0000EF86E850EF76E8C0E75
:1019E000F66E69D0390E3C1810E150B807D0000EE1
:1019F000F86E800EF76EC00EF66E5DD0000EF86EBB
:101A0000850EF76E7C0EF66E56D0410E3C1810E136
:101A100050B807D0000EF86E850EF76EF20EF66E17
:101A20004AD0000EF86E850EF76EA40EF66E43D007
:101A3000420E3C1807E1000EF86E850EF76EFE0EA2
:101A4000F66E39D0430E3C1819E150B009D050B8A9
:101A50000ED0000EF86E850EF76ECC0EF66E2BD003
:101A6000000EF86E850EF76EE60EF66E24D0000EB0
:101A7000F86E850EF76E980EF66E1DD0440E3C186B
:101A800007E1000EF86E860EF76E0A0EF66E13D0A2
:101A9000450E3C1807E1000EF86E890EF76E2C0E0D
:101AA000F66E09D0460E3C1808E1000EF86E850E61
:101AB000F76EAE0EF66EEFEC05F01200310E3C182C
:101AC00004E14C0EC0EC05F001D1320E3C1804E1EB
:101AD000550EC0EC05F0FAD0330E3C1810E1430E61
:101AE000C0EC05F050B801D0F1D0570EC0EC05F0B5
:101AF000200EC0EC05F0550EC0EC05F0E7D0340E1A
:101B00003C1804E1460EC0EC05F0E0D0350E3C1860
:101B100004E1410EC0EC05F0D9D0360E3C1813E1BB
:101B200050B80AD0460EC0EC05F0530EC0EC05F0DC
:101B30004B0EC0EC05F0CAD0520EC0EC05F04C0EB6
:101B4000C0EC05F0C3D0370E3C1813E1430EC0ECD7
:101B500005F050B807D0200EC0EC05F0520EC0ECD6
:101B600005F0B4D0570EC0EC05F04C0EC0EC05F0FB
:101B7000ADD0380E3C1816E150B80DD0500EC0EC68
:101B800005F04B0EC0EC05F0200EC0EC05F04C0E3D
:101B9000C0EC05F09BD0440EC0EC05F04C0EC0EC40
:101BA00005F094D0390E3C181CE150B810D0460E08
:101BB000C0EC05F0530EC0EC05F04B0EC0EC05F088
:101BC000200EC0EC05F0520EC0EC05F07FD0520E96
:101BD000C0EC05F0200EC0EC05F0550EC0EC05F091
:101BE00075D0410E3C181CE150B810D0500EC0EC1E
:101BF00005F04B0EC0EC05F0200EC0EC05F0460ED3
:101C0000C0EC05F04D0EC0EC05F060D0440EC0EC09
:101C100005F0460EC0EC05F04D0EC0EC05F056D0B8
:101C2000420E3C180AE1460EC0EC05F04D0EC0EC29
:101C300005F04E0EC0EC05F049D0430E3C1819E1FA
:101C400050B80DD0500EC0EC05F04B0EC0EC05F0B6
:101C5000200EC0EC05F0550EC0EC05F037D0440E58
:101C6000C0EC05F0200EC0EC05F0550EC0EC05F000
:101C70002DD0440E3C1810E1410EC0EC05F0200EB2
:101C8000C0EC05F04D0EC0EC05F0200EC0EC05F0E8
:101C90004E0EC0EC05F01AD0450E3C1807E1500E70
:101CA000C0EC05F04B0EC0EC05F010D0460E3C1811
:101CB0000DE1440EC0EC05F0460EC0EC05F04D0EF3
:101CC000C0EC05F04E0EC0EC05F000D00D0EC0ECDF
:101CD00005F012001DEC36F0000EF86E7F0EF76E68
:101CE000E60EF66EEFEC05F04D0EE8CFB0F1470EC4
:101CF000E8CFB1F13B0EE8CFB2F1CCEC08F04FA247
:101D000002D0B0EC16F02C6A12001DEC36F04D0E2D
:101D1000E8CFB0F14C0EE8CFB1F1300EE8CFB2F120
:101D20003B0EE8CFB3F1CCEC08F04FA224D005C7AE
:101D3000E8FF300A0BE1000EF86E800EF76E000E21
:101D4000F66EEFEC05F0EDEC06F015D0140E8AEC13
:101D500005F04D0EE8CFB0F14C0EE8CFB1F1310EE9
:101D6000E8CFB2F13B0EE8CFB3F1CCEC08F04FA2D4
:101D700002D0EAEC16F02C6A12001DEC36F04E0E82
:101D8000E8CFB0F1420EE8CFB1F1300E4FB4310ED2
:101D9000E8CFB2F13B0EE8CFB3F1CCEC08F04FA2A4
:101DA00002D0B7EC17F02C6A12001DEC36F04E0E84
:101DB000E8CFB0F1520EE8CFB1F1300E4FB4310E92
:101DC000E8CFB2F13B0EE8CFB3F1CCEC08F04FA274
:101DD00002D00FEC18F02C6A12001DEC36F0420E07
:101DE000E8CFB0F1500EE8CFB1F1300E4FB4310E64
:101DF000E8CFB2F1300EE8CFB3F13B0EE8CFB4F14B
:101E0000CCEC08F04FA232D006C7E8FF300A14E14C
:101E100002C7E8FF300A09E1000EF86E800EF76E87
:101E2000FE0EF66EEFEC05F004D0D7EC04F0A1EC5A
:101E300037F0EDEC06F01AD0140E8AEC05F0420EE5
:101E4000E8CFB0F1500EE8CFB1F1300E4FB4310E03
:101E5000E8CFB2F1310EE8CFB3F13B0EE8CFB4F1E9
:101E6000CCEC08F04FA202D0ECEC18F02C6A120077
:101E70001DEC36F0500EE8CFB0F1410EE8CFB1F1D5
:101E8000300E4FB4310EE8CFB2F13B0EE8CFB3F1D4
:101E9000CCEC08F04FA202D031EC17F04F942C6A32
:101EA00012001DEC36F0000EF86E800EF76E1A0E62
:101EB000F66EEFEC05F0500EE8CFB0F1430EE8CF30
:101EC000B1F13B0EE8CFB2F1CCEC08F04FA202D05A
:101ED0007EEC17F02C6A1200000EF86E840EF76E7E
:101EE000A60EF66EEFEC05F011EEB0F01DEC36F03C
:101EF000500EE66E520EE66E50B803D050B601D0CA
:101F000002D0300EE66E3B0EE66ECCEC08F04FA22F
:101F100055D050B80BD050B609D002C700F0310EE2
:101F200000180CE0320E00183DE005D003C700F0A9
:101F3000320E001803E0EDEC06F040D00A0E8AECF9
:101F400005F0500EE8CFB0F14C0EE8CFB1F13B0EEA
:101F5000E8CFB2F1CCEC08F04FA230D09BEC17F0F8
:101F600050B803D050B601D029D00A0E8AEC05F043
:101F700011EEB0F01DEC36F0500EE66E520EE66E2D
:101F800050B803D050B601D002D0310EE66E3B0EF1
:101F9000E66ECCEC08F04FA211D003C7E8FF320A7E
:101FA00001E00CD0D7EC04F0000EF86E860EF76E50
:101FB0001E0EF66EEFEC05F0F6EC06F02C6A120041
:101FC0001DEC36F0520EE8CFB0F1410EE8CFB1F182
:101FD000300E4FB4310EE8CFB2F13B0EE8CFB3F183
:101FE000CCEC08F04FA202D02CEC19F04F942C6AE4
:101FF00012001DEC36F0000EF86E880EF76E160E0D
:10200000F66EEFEC05F0490EE8CFB0F1460EE8CFE2
:10201000B1F13B0EE8CFB2F1CCEC08F04FA23DD0CD
:102020004A9012C7E8FF310AD8A409D04A80520E5C
:10203000C0EC05F0580EC0EC05F0BFEC05F013C77E
:10204000E8FF300A09E0540EC0EC05F0580EC0EC71
:1020500005F0D7EC04F005D04AB003D0EDEC06F063
:102060001CD00DC7E8FFC0EC05F00EC7E8FFC0ECC0
:1020700005F00FC7E8FFC0EC05F010C7E8FFC0ECA3
:1020800005F011C7E8FFC0EC05F0480EC0EC05F004
:102090007A0EC0EC05F0BFEC05F02C6A4A901200F5
:1020A000300E006E8DEC10F04FA235D03EEC14F0E7
:1020B0004AA00BD0310E006E0A0E8AEC05F08DECB2
:1020C00010F04FA228D09EEC14F0D7EC04F00A0ECA
:1020D0008AEC05F050B01FD050B21DD0300E50B871
:1020E000320E006E8DEC10F04FA215D00DEC15F0F5
:1020F0004AA011D0330E50B804D0320E50B601D0E1
:102100000AD0006E0A0E8AEC05F08DEC10F04FA29A
:1021100002D035EC15F02C6A12001DEC36F0430E9F
:10212000E8CFB0F14F0EE8CFB1F1300E4FB4310E21
:10213000E8CFB2F10050E8CFB3F13B0EE8CFB4F1F5
:10214000CCEC08F01200300EE8CF1FF250A409D0FA
:1021500081EC37F04FA21BD002C71FF2640E8AEC4D
:1021600005F01DEC36F0520EE8CFB0F1460EE8CF88
:10217000B1F11FC2E8FFE8CFB2F13B0EE8CFB3F1F7
:10218000CCEC08F04FA203D03EEC18F000D02C6A43
:1021900012001DEC36F04050310A1AE04050320A6D
:1021A00015E04050330A1AE04050340A1EE0405017
:1021B000350A22E04050360A26E0000EF86E7E0E08
:1021C000F76EA00EF66EEFEC05F056D0A1EC37F0EE
:1021D000530EC0EC05F0BFEC05F026D0000EF86EF3
:1021E000830EF76E2A0EF66E15D0000EF86E820E74
:1021F000F76E140EF66E0ED0000EF86E800EF76EAF
:102200001A0EF66E07D0000EF86E7E0EF76E640E94
:10221000F66E08D0EFEC05F0000EF86E830EF76E48
:10222000380EF66EEFEC05F040C001F0520EE8CF2C
:10223000B0F14D0EE8CFB1F14050E8CFB2F13B0E16
:10224000E8CFB3F1CCEC08F04FA216D001C040F0BB
:102250004050310A03E14EEC1CF00ED04050320ADF
:1022600003E14EEC1CF008D04050360A03E11FECAD
:102270001DF002D078EC19F01E0E8AEC05F02C6AE5
:1022800012001DEC36F0530EE8CFB0F1480EE8CF47
:10229000B1F1300E4FB4310EE8CFB2F13B0EE8CFC2
:1022A000B3F1CCEC08F04FA202D0D6EC19F02C6AB6
:1022B0001200000EF86E800EF76E5C0EF66EEFECFC
:1022C00005F01DEC36F0460EE8CFB0F1540EE8CF25
:1022D000B1F13B0EE8CFB2F1CCEC08F04FA21ED02A
:1022E00002C701F0140E8AEC05F01DEC36F0560E14
:1022F000E8CFB0F1530EE8CFB1F13B0EE8CFB2F129
:10230000CCEC08F04FA20AD002C7E8FF011803E0A6
:10231000F6EC06F003D0EDEC06F000D02C6A1200CB
:1023200081EC37F04FA2C7D045EC13F0D7EC04F0A6
:102330001DEC36F0460EE8CFB0F1540EE8CFB1F107
:102340003B0EE8CFB2F1CCEC08F04FA2B4D002C7FC
:10235000E8FF300A04E002C7E8FF310A14E050B099
:1023600009D0000EF86E810EF76E560EF66EEFEC89
:1023700005F01CD0000EF86E870EF76E020EF66E9A
:10238000EFEC05F013D050B009D0000EF86E810EBE
:10239000F76E6E0EF66EEFEC05F008D0000EF86EDC
:1023A000870EF76E180EF66EEFEC05F050B05FD0AA
:1023B000D7EC04F01DEC36F0460EE8CFB0F1520E2B
:1023C000E8CFB1F13B0EE8CFB2F1CCEC08F04FA270
:1023D00072D002C7E8FF300A15E002C7E8FF310AF1
:1023E0001AE002C7E8FF320A1FE002C7E8FF330A1B
:1023F00024E002C7E8FF340A29E002C7E8FF350AF3
:102400002EE035D0000EF86E860EF76E600EF66E7A
:10241000EFEC05F02CD0000EF86E860EF76E7A0EFB
:10242000F66EEFEC05F023D0000EF86E860EF76E18
:10243000960EF66EEFEC05F01AD0000EF86E860ED2
:10244000F76EB00EF66EEFEC05F011D0000EF86EE0
:10245000860EF76ECC0EF66EEFEC05F008D0000E8F
:10246000F86E860EF76EE60EF66EEFEC05F0D7EC22
:1024700004F01DEC36F04C0EE8CFB0F14B0EE8CF77
:10248000B1F13B0EE8CFB2F1CCEC08F04FA213D083
:1024900068EC16F0D7EC04F0460EE8CFB0F1530E1E
:1024A000E8CFB1F13B0EE8CFB2F1CCEC08F04FA28F
:1024B00002D09AEC15F02C6A12001DEC36F0560E84
:1024C000E8CFB0F1580EE8CFB1F13B0EE8CFB2F152
:1024D000CCEC08F04FA226D05BEC13F066EC37F0A2
:1024E000300A20E0560EE8CFB0F1470EE8CFB1F148
:1024F0003B0EE8CFB2F1CCEC08F04FA213D02DEC9C
:1025000013F0560EE8CFB0F1440EE8CFB1F13B0E18
:10251000E8CFB2F1CCEC08F04FA204D0D7EC04F035
:1025200047EC20F02C6A12001DEC36F0420EE8CF8A
:10253000B0F1490EE8CFB1F13B0EE8CFB2F1CCECEF
:1025400008F04FA217D078EC13F002C7E8FF300A6A
:1025500011E0530EE8CFB0F1440EE8CFB1F13B0EDD
:10256000E8CFB2F1CCEC08F04FA204D0488ABCEC22
:1025700012F0489A2C6A1200000EF86E820EF76E66
:10258000F20EF66E48AAEFEC05F050B434D002C754
:102590000BF703C70CF704C70DF705C70EF7450E79
:1025A000E8CFB0F1580EE8CFB1F1300EE8CFB2F17C
:1025B000360EE8CFB3F1330EE8CFB4F13B0EE8CFDF
:1025C000B5F1CCEC08F04FA2D5D705C7E8FF310A2A
:1025D0000AE1300EE8CF02F7E8CF03F7E8CF04F7BF
:1025E000E8CF05F708D00BC702F70CC703F70DC7F4
:1025F00004F70EC705F702C7E8FF300A0CE103C76E
:10260000E8FF300A08E104C7E8FF300A04E105C723
:10261000E8FF300A19E002C7E8FFC0EC05F003C785
:10262000E8FFC0EC05F004C7E8FFC0EC05F005C703
:10263000E8FFC0EC05F06D0EC0EC05F0530EC0ECE9
:1026400005F0BFEC05F008D0000EF86E820EF76EB4
:10265000FC0EF66EEFEC05F01200000EF86E830E25
:10266000F76E1C0EF66EEFEC05F002C7E8FFC0EC4B
:1026700005F003C7E8FFC0EC05F004C7E8FFC0ECB5
:1026800005F00D0EC0EC05F01200000EF86E880E7D
:10269000F76E300EF66EEFEC05F002C7E8FF300A79
:1026A00004E0420EC0EC05F003D0410EC0EC05F092
:1026B000BFEC05F01200560EC0EC05F04F0EC0EC5A
:1026C00005F0580EC0EC05F00D0EC0EC05F002C789
:1026D000E8FF300A07E002C7E8FF310A06E0B3EC82
:1026E00006F005D0EDEC06F002D0F6EC06F0120094
:1026F000000EF86E820EF76EF20EF66EEFEC05F03D
:1027000002C7E8FF300A07E002C7E8FF310A06E027
:10271000B3EC06F005D0EDEC06F002D0F6EC06F0D6
:102720001200000EF86E830EF76E020EF66EEFECDE
:1027300005F004C7E8FF300A0BE004C7E8FF310AE0
:102740000AE004C7E8FF320A09E0B3EC06F00ED055
:10275000EDEC06F00BD0F6EC06F008D0000EF86EAB
:10276000860EF76E2A0EF66EEFEC05F01200D0EC36
:1027700004F002C7E8FF300A02E0A1EC37F003C71B
:10278000E8FFC0EC05F004C7E8FFC0EC05F005C7A2
:10279000E8FFC0EC05F0BFEC05F0120002C7E8FF4F
:1027A000300A02E0A1EC37F0000EF86E7F0EF76EF3
:1027B0009E0EF66EEFEC05F003C7E8FF310A0FE05E
:1027C00003C7E8FF320A0FE003C7E8FF330A0FE050
:1027D00003C7E8FF340A0FE0B3EC06F02ED0310E49
:1027E000C0EC05F00BD0320EC0EC05F007D0330E74
:1027F000C0EC05F003D0340EC0EC05F0D7EC04F0CB
:1028000050B21BD050B819D0000EF86E7F0EF76E84
:10281000A80EF66EEFEC05F004C7E8FF300A07E0FB
:1028200004C7E8FF310A06E0B3EC06F006D0EDEC91
:1028300006F003D0F6EC06F000D0120002C7E8FF65
:10284000300A02E0A1EC37F0000EF86E800EF76E51
:10285000F00EF66EEFEC05F003C7E8FF300A07E074
:1028600003C7E8FF310A06E0B3EC06F006D0EDEC52
:1028700006F003D0F6EC06F000D012004FB4A1EC45
:1028800037F0000EF86E870EF76ECE0EF66EEFEC98
:1028900005F04A9005C7E8FF50B807C7E8FF300ABF
:1028A0000EE005C7E8FF50B807C7E8FF310A0AE0A5
:1028B00005C7E8FF320A03E0B3EC06F03ED0EDECCA
:1028C00006F03BD04A8050A403D0F6EC06F035D099
:1028D00004C7E8FF2D0A15E005C7E8FF310A07E144
:1028E0002B0EC0EC05F0360EC0EC05F01ED02B0E02
:1028F000C0EC05F0310EC0EC05F0320EC0EC05F076
:1029000014D005C7E8FF310A07E12D0EC0EC05F031
:10291000360EC0EC05F009D02D0EC0EC05F0310EDE
:10292000C0EC05F0320EC0EC05F0440EC0EC05F032
:10293000420EC0EC05F0BFEC05F0120050A043D0F1
:10294000000EE8CF10F36FEC37F0D00FE8CF11F3A3
:1029500066EC37F0D00FE8CF12F372EC05F014C339
:1029600000F0070E00640FD00D0E006416D0130E99
:1029700000641DD0190E00641ED0200E00641FD00C
:10298000B3EC06F049D0320EC0EC05F0350EC0ECC9
:1029900005F0300EC0EC05F02ED0350EC0EC05F081
:1029A000300EC0EC05F0300EC0EC05F024D0310E36
:1029B000C0EC05F01DD0320EC0EC05F019D0340E7D
:1029C000C0EC05F015D004C7E8FFC0EC05F005C762
:1029D000E8FFC0EC05F0300E50B806C7E8FFC0ECC9
:1029E00005F0300E50B807C7E8FFC0EC05F003D083
:1029F0006B0EC0EC05F0480EC0EC05F07A0EC0EC92
:102A000005F0BFEC05F008D0440EC0EC05F0420E16
:102A1000C0EC05F0BFEC05F012004FB4A1EC37F0AC
:102A2000000EF86E870EF76ED80EF66EEFEC05F01E
:102A30004A9066EC37F0300A11E066EC37F0320A63
:102A400010E050B804D050B609D050B407D066ECAE
:102A500037F0310A06E0B3EC06F006D0EDEC06F0F4
:102A600003D04A80F6EC06F01200000EE8CF10F317
:102A70006FEC37F0D00FE8CF11F366EC37F0D00FE2
:102A8000E8CF12F372EC05F014C300F00050190AFD
:102A9000D8A404D0300EC0EC05F01BD0190E006095
:102AA00003D02D0EC0EC05F014C300F0E60E002498
:102AB000D8A002D0010F02D0E86CE806006ED890D2
:102AC000E846E846E8460024002463EC06F0BFEC44
:102AD00005F0480EC0EC05F07A0EC0EC05F0BFEC36
:102AE00005F0120029C6E8FF300A09E029C6E8FF10
:102AF000310A0EE029C6E8FF320A13E01AD0000EB0
:102B0000F86E7B0EF76E7A0EF66EEFEC05F011D0D4
:102B1000000EF86E880EF76E6C0EF66EEFEC05F098
:102B200008D0000EF86E880EF76E600EF66EEFECB1
:102B300005F0120002C7E8FF300A34E002C7E8FFE0
:102B4000310A13E002C7E8FF340A2CE002C7E8FFAD
:102B5000350A12E002C7E8FF360A15E002C7E8FFAF
:102B6000370A18E0B3EC06F01DD0000EF86E870EA1
:102B7000F76E660EF66E14D0000EF86E870EF76EC6
:102B8000740EF66E0DD0000EF86E870EF76E860E80
:102B9000F66E06D0000EF86E870EF76E960EF66E85
:102BA000EFEC05F0120002C7E8FF300A02E0A1ECEA
:102BB00037F0000EF86E810EF76E160EF66EEFEC23
:102BC00005F003C7E8FF360A4FE003C7E8FF350A00
:102BD00042E003C7E8FF340A50B04FE033E003C7D8
:102BE000E8FF330A26E003C7E8FF320A50B021E0CD
:102BF00017E003C7E8FF310A0AE003C7E8FF300A1D
:102C000003E0B3EC06F041D0EDEC06F03ED0000E50
:102C1000F86E7E0EF76E440EF66EEFEC05F035D0D2
:102C2000000EF86E860EF76E5A0EF66EEFEC05F09B
:102C30002CD0000EF86E7E0EF76E520EF66EEFEC94
:102C400005F023D0000EF86E860EF76E4E0EF66E6F
:102C5000EFEC05F01AD0000EF86E860EF76E440EFB
:102C6000F66EEFEC05F011D0000EF86E860EF76EE2
:102C7000380EF66EEFEC05F008D0000EF86E7E0E02
:102C8000F76E3C0EF66EEFEC05F0120002C7E8FF9F
:102C9000310A03E0EDEC06F002D0F6EC06F012008B
:102CA00002C7E8FFC0EC05F003C7E8FFC0EC05F081
:102CB00004C7E8FFC0EC05F0570EC0EC05F0500E5D
:102CC000C0EC05F04D0EC0EC05F0BFEC05F01200B5
:102CD00002C7E8FF300A34E002C7E8FF310A13E018
:102CE00002C7E8FF340A2CE002C7E8FF350A12E009
:102CF00002C7E8FF360A15E002C7E8FF370A18E006
:102D0000B3EC06F01DD0000EF86E870EF76E2E0E97
:102D1000F66E14D0000EF86E870EF76E3C0EF66E4F
:102D20000DD0000EF86E870EF76E480EF66E06D0C8
:102D3000000EF86E870EF76E540EF66EEFEC05F08F
:102D4000120002C7E8FFC0EC05F003C7E8FFC0ECC3
:102D500005F004C7E8FFC0EC05F0BFEC05F0120079
:102D600050B80CD050B60AD07FEC36F0006E50B0A0
:102D700014D063EC06F0BFEC05F02BD002C7E8FFDF
:102D8000C0EC05F003C7E8FFC0EC05F004C7E8FF9E
:102D9000C0EC05F0BFEC05F01CD0420E006011D075
:102DA000210E006007D0000EF86E870EF76EEE0E53
:102DB000F66E0DD0000EF86E7D0EF76E100EF66EEC
:102DC00006D0000EF86E870EF76EF40EF66EEFEC7E
:102DD00005F01200000EF86E870EF76EBC0EF66E50
:102DE000EFEC05F050B004D002C7E8FF310A0AE06A
:102DF00005C7E8FF300A03E1EDEC06F009D0F6EC78
:102E000006F006D07FEC36F063EC06F0BFEC05F080
:102E1000120029C6E8FF300A09E029C6E8FF310A96
:102E20000EE029C6E8FF320A13E01AD0000EF86E51
:102E3000830EF76E480EF66EEFEC05F011D0000E23
:102E4000F86E820EF76E1C0EF66EEFEC05F008D0F1
:102E5000000EF86E820EF76E220EF66EEFEC05F0A5
:102E6000120002C7E8FF300A02E0A1EC37F0000EC2
:102E7000F86E800EF76E100EF66EEFEC05F003C7DD
:102E800000F00050300A0CE00050310A18E0005009
:102E9000320A1BE00050330A1CE0B3EC06F02DD0E0
:102EA00050B023D0000EF86E860EF76E160EF66E3A
:102EB000EFEC05F0310E50A2C0EC05F01CD050B084
:102EC00017D0310EC0EC05F016D0320EC0EC05F074
:102ED00012D0000EF86E860EF76E160EF66EEFEC40
:102EE00005F0320EC0EC05F006D0EDEC06F005D092
:102EF000F6EC06F002D0BFEC05F0120050B809D095
:102F000050A407D088EC36F063EC06F0BFEC05F077
:102F10000CD002C7E8FFC0EC05F003C7E8FFC0EC27
:102F200005F004C7E8FFC0EC05F0570EC0EC05F053
:102F3000BFEC05F01200D7EC04F050B40FD002C77C
:102F4000E8FFC0EC05F003C7E8FFC0EC05F004C7DC
:102F5000E8FFC0EC05F0BFEC05F008D050B8EFD7A3
:102F60007FEC36F063EC06F0BFEC05F0120002C710
:102F7000E8FF300A02E0A1EC37F0000EF86E800E98
:102F8000F76E220EF66EEFEC05F003C7E8FF320A8B
:102F900013E003C7E8FF310A09E003C7E8FF300A7E
:102FA00002E0B3EC06F0EDEC06F024D050B0F6EC05
:102FB00006F050B01FD009D0000EF86E820EF76EEA
:102FC000840EF66EEFEC05F000D04E0EE8CFB0F1B7
:102FD0004C0EE8CFB1F102C7B2F1300E50B8E8CFD5
:102FE000B2F13B0EE8CFB3F1CCEC08F04FA202D027
:102FF000FBEF17F0120050B807D07FEC36F063EC0F
:1030000006F0BFEC05F00AD004C7E8FFC0EC05F0FD
:1030100005C7E8FFC0EC05F0BFEC05F0120002C7E1
:10302000E8FF300A02E0A1EC37F0000EF86E800EE7
:10303000F76ED60EF66EEFEC05F003C7E8FF310A27
:103040000AE003C7E8FF300A03E0B3EC06F015D04E
:10305000EDEC06F012D000D0520EE8CFB0F14C0EDD
:10306000E8CFB1F102C7B2F13B0EE8CFB3F1CCEC3F
:1030700008F04FA202D0E1EF18F0120002C7E8FFFB
:10308000300A02E0A1EC37F0000EF86E890EF76E00
:10309000620EF66EEFEC05F003C7E8FF310A36E08A
:1030A00003C7E8FF320A40E003C7E8FF330A40E005
:1030B00003C7E8FF340A4AE003C7E8FF350A4FE0D8
:1030C00003C7E8FF360A50B828E050B44EE003C703
:1030D000E8FF370A50B82CE050B44DE003C7E8FFD2
:1030E000380A50B829E050B450E003C7E8FF390A65
:1030F00050B841E050B453E003C7E8FF410A50B86C
:1031000044E050B44FE0B3EC06F05AD0310EC0ECBE
:1031100005F0350EC0EC05F048D0310EC0EC05F0DE
:10312000320EC0EC05F041D0360EC0EC05F03DD0BB
:10313000330EC0EC05F039D0310EC0EC05F02E0E88
:10314000C0EC05F0320EC0EC05F02FD08FEC37F05C
:10315000310EC0EC05F0350EC0EC05F026D08FEC3A
:1031600037F0360EC0EC05F020D08FEC37F0330E80
:10317000C0EC05F01AD0360EC0EC05F0300EC0ECF5
:1031800005F0300EC0EC05F013D0330EC0EC05F0A6
:10319000300EC0EC05F0300EC0EC05F009D08FEC1D
:1031A00037F0E9D78FEC37F0F0D76B0EC0EC05F0B5
:1031B000480EC0EC05F07A0EC0EC05F0BFEC05F04F
:1031C000120003C7E8FFC0EC05F004C7E8FFC0EC3D
:1031D00005F0BFEC05F01200055204E103C7E8FF5B
:1031E000310A1EE002C7E8FF300A04E0A1EC37F024
:1031F000055208E1000EF86E800EF76EFE0EF66EB8
:10320000EFEC05F003C7E8FF310A0AE006C7E8FF64
:10321000300A03E1EDEC06F01ED0F6EC06F01BD010
:1032200004C7E8FFC0EC05F005C7E8FFC0EC05F0F7
:1032300006C7E8FFC0EC05F0BFEC05F050B00BD0BE
:10324000300EC0EC05F0480EC0EC05F07A0EC0EC74
:1032500005F0BFEC05F0120002C7E8FF300A02E0FB
:10326000A1EC37F0000EF86E800EF76E3E0EF66E93
:10327000EFEC05F003C7E8FF300A14E003C7E8FFEE
:10328000310A50B00CD011E003C7E8FF320A14E055
:1032900003C7E8FF330A1AE0B3EC06F028D0F6ECD7
:1032A00006F025D0EDEC06F022D02D0EC0EC05F096
:1032B000360EC0EC05F013D02D0EC0EC05F0310E2B
:1032C000C0EC05F0320EC0EC05F009D02D0EC0ECBC
:1032D00005F0310EC0EC05F0380EC0EC05F0440EE0
:1032E000C0EC05F0420EC0EC05F0BFEC05F012009A
:1032F00063EC06F0BFEC05F01CA008D0000EF86EE1
:10330000870EF76EB20EF66EEFEC05F01200000EAF
:10331000F86E870EF76EFA0EF66EEFEC05F002C748
:10332000E8FF300A03E1EDEC06F003D0F6EC06F01E
:1033300000D0120002C7E8FF300A13E002C7E8FF1E
:10334000310A16E002C7E8FF320A19E002C7E8FFB7
:10335000330A1CE002C7E8FF340A1FE0B3EC06F0B2
:1033600024D0000EF86E870EF76EC60EF66E1BD0D8
:10337000000EF86E870EF76ECE0EF66E14D0000EAD
:10338000F86E800EF76EE80EF66E0DD0000EF86E39
:10339000870EF76EE00EF66E06D0000EF86E870E02
:1033A000F76EE60EF66EEFEC05F012004FB4A1ECEE
:1033B00037F0000EF86E870EF76EE60EF66EEFEC45
:1033C00005F050B002D050B424D004C7E8FF300A52
:1033D0000BE004C7E8FF360A0EE004C7E8FF310A35
:1033E00011E0B3EC06F059D2000EF86E820EF76EC3
:1033F0007C0EF66E50D2000EF86E7D0EF76E100E3B
:10340000F66E49D2000EF86E820EF76E840EF66EDE
:1034100042D203C752F004C753F050A804D004C7E7
:1034200052F005C753F00A0E8AEC05F050EC0CF090
:103430004FA233D2310E3C181EE0320E3C181BE076
:10344000330E3C181BE0370E3C1818E0360E3C18C3
:1034500018E0390E3C1815E0380E3C1815E0430E04
:103460003C1812E0000EF86E880EF76E220EF66E13
:10347000EFEC05F012D2530E3C6E08D0430E3C6EBA
:1034800005D0520E3C6E02D0500E3C6E000EE8CFBE
:1034900010F352C0E8FFD00FE8CF11F353C0E8FF9C
:1034A000D00FE8CF12F372EC05F014C3E8FFE85236
:1034B00036E10A0E8AEC05F050A803D0A3EC10F018
:1034C000ECD14E0EE8CFB0F1410EE8CFB1F1300EA5
:1034D0004FB4310EE8CFB2F13B0EE8CFB3F1CCECF4
:1034E00008F04FA2DAD103C7E8FF310A0DE1530E0D
:1034F0003C1803E150B22CD116D1430E3C1801E127
:10350000E6D050B6E4D0D3D0530E3C1801E151D1EF
:10351000430E3C1801E14DD150B64BD1D8D014C365
:1035200000F0000EFB6E350EFA6E0044016E380E90
:103530000124D8B0FA2AF96E19D019D01FD023D09F
:1035400029D02DD033D03BD041D047D04DD053D00F
:103550005BD066D072D07CD082D088D08CD090D016
:1035600090D090D090D090D090D090D096D1530E53
:103570003C18D8A480D150B89AD091D0530E3C18A2
:10358000D8B49DD084D0530E3C18D8B4A4D050B237
:103590007ED081D0530E3C18D8B4A5D080D0530E25
:1035A0003C18D8B4A4D050B282D07DD0530E3C1871
:1035B00003E150B8A3D0A9D050B281D078D0530E37
:1035C0003C18D8B4B0D050B282D075D0530E3C184D
:1035D000D8B4B0D050B283D072D0530E3C18D8B407
:1035E000B7D050B28BD06FD0530E3C18D8B4B7D0F0
:1035F00050B292D06CD0530E3C18D8B4BED050B25A
:10360000A0D050B868D06BD0530E3C1804E150B82D
:10361000BBD050B6B9D050B862D050B2A7D06ED09F
:10362000530E3C1805E150B8BDD050B6BBD0C1D048
:1036300050B864D050B2BDD06FD0530E3C1805E1E5
:1036400050B8B7D050B6B5D0BBD050B865D079D04F
:10365000530E3C1801E1BBD050B873D087D0530E45
:103660003C1801E1BBD050B881D0A3D0530E3C1818
:10367000D8B4BBD09ED0530E3C18D8B4BDD0CAD05D
:10368000C2D0C8D0CED0D4D0DAD0E0D0E6D0310E7F
:10369000C0EC05F0E9D0310EC0EC05F0ECD0320EF4
:1036A000C0EC05F0E1D0320EC0EC05F0E4D0330EF2
:1036B000C0EC05F0D9D0330EC0EC05F0DCD0340EF0
:1036C000C0EC05F0D1D0340EC0EC05F0D4D0350EEE
:1036D000C0EC05F0C9D0360EC0EC05F0C5D0380EF0
:1036E000C0EC05F0C1D0380EC0EC05F0C4D0310EEE
:1036F000C0EC05F0310EC0EC05F0B6D0310EC0ECD8
:1037000005F0320EC0EC05F0AFD0310EC0EC05F084
:10371000330EC0EC05F0AFD0310EC0EC05F0340E26
:10372000C0EC05F0A1D0310EC0EC05F0350EC0ECB8
:1037300005F09AD0310EC0EC05F0360EC0EC05F065
:103740009AD0310EC0EC05F0370EC0EC05F08CD0ED
:10375000310EC0EC05F0380EC0EC05F085D0310E0E
:10376000C0EC05F0390EC0EC05F085D0320EC0EC8F
:1037700005F0300EC0EC05F077D0320EC0EC05F04D
:10378000310EC0EC05F070D0320EC0EC05F0320EF8
:10379000C0EC05F069D0320EC0EC05F0320EC0EC82
:1037A00005F069D0320EC0EC05F0330EC0EC05F028
:1037B0005BD0320EC0EC05F0340EC0EC05F054D0F6
:1037C000320EC0EC05F0340EC0EC05F054D0320ED1
:1037D000C0EC05F0350EC0EC05F046D0320EC0EC62
:1037E00005F0360EC0EC05F03FD0320EC0EC05F00F
:1037F000370EC0EC05F038D0320EC0EC05F0380EB4
:10380000C0EC05F031D0320EC0EC05F0390EC0EC42
:1038100005F02AD0330EC0EC05F0300EC0EC05F0F8
:1038200023D0330EC0EC05F0320EC0EC05F01CD0F6
:10383000330EC0EC05F0340EC0EC05F015D0330E9D
:10384000C0EC05F0360EC0EC05F00ED0330EC0EC27
:1038500005F0380EC0EC05F007D0340EC0EC05F0D2
:10386000300EC0EC05F000D0300EC0EC05F0300E8C
:10387000C0EC05F007D0350EC0EC05F0300EC0EC02
:1038800005F000D0480EC0EC05F07A0EC0EC05F053
:10389000BFEC05F002D0EFEC05F0120078EC37F049
:1038A00050B803C7E8FFD00FE8CF10F36FEC37F044
:1038B00050B804C7E8FFD00FE8CF11F366EC37F03B
:1038C00050B805C7E8FFD00FE8CF12F372EC05F04F
:1038D00014C300F0300E526E200E536E200E546E44
:1038E000200E556E0F0E50B4080E006499D0310EA4
:1038F000526E210E50B4190E006492D0320E526EE8
:10390000310E50B4260E00648BD0330E526E420E30
:1039100050B4340E006484D0340E526E520E50B443
:10392000400E00647DD0350E526E620E50B44E0EC5
:10393000006476D0360E526E730E50B45E0E006484
:103940006FD0370E526E8B0E50B46E0E006468D07E
:10395000380E526E930E50B4800E006461D0390E52
:10396000526E9B0E50B48E0E00645AD02B0E536EC6
:10397000350E546EA30E50B4940E006451D0310E27
:10398000546E300E556EAF0E50B49E0E006448D08B
:10399000350E556EBB0E50B4A80E006441D0320EE9
:1039A000546E300E556EC30E50B4B20E006438D053
:1039B000350E556ECC0E50B4BC0E006431D0330EB3
:1039C000546E300E556ED50E50B4C80E006428D01B
:1039D000350E556EDE0E50B4D20E006421D0340E7A
:1039E000546E300E556EE50E50B4E00E006418D0E3
:1039F000350E556EED0E50B4EA0E006411D0350E42
:103A0000546E300E556EF40E00640AD0350E556EAD
:103A1000FC0E006405D0360E546E300E556E00D08C
:103A20005250C0EC05F05350C0EC05F05450C0ECBF
:103A300005F05550C0EC05F0BFEC05F0120003C7CF
:103A4000E8FFD00FE8CF10F304C7E8FFD00FE8CFAE
:103A500011F305C7E8FFD00FE8CF12F372EC05F0C1
:103A600014C340F0310E006E300E016E0A0E406439
:103A7000D6D0310E016E140E4064D1D0320E016EDC
:103A80001E0E4064CCD0330E016E280E4064C7D0A9
:103A9000340E016E320E4064C2D0350E016E3C0E03
:103AA0004064BDD0360E016E460E4064B8D0370E6D
:103AB000016E4F0E4064B3D0380E016E510E40645B
:103AC000AED0390E016E530E4064A9D0320E006E96
:103AD000300E016E570E4064A2D0310E016E5B0EA7
:103AE00040649DD0320E016E5F0E406498D0330E5C
:103AF000016E630E406493D0340E016E670E406415
:103B00008ED0350E016E6B0E406489D0360E016E7C
:103B10006F0E406484D0370E016E720E40647FD009
:103B2000380E016E750E40647AD0390E016E780E33
:103B3000406475D0330E006E300E016E7F0E40640F
:103B40006ED0310E016E860E406469D0320E016E69
:103B50008D0E406464D0330E016E940E40645FD0CD
:103B6000340E016E9B0E40645AD0350E016EA20ECB
:103B7000406455D0360E016EA90E406450D0370E09
:103B8000016EB00E40644BD0380E016EB70E40642B
:103B900046D0390E016EC00E406441D0340E006E26
:103BA000300E016EC40E40643AD0310E016EC80E64
:103BB000406435D0320E016ECC0E406430D0330EEE
:103BC000016ED00E40642BD0340E016ED40E4064D2
:103BD00026D0350E016ED80E406421D0360E016E0F
:103BE000DC0E40641CD0370E016EE10E406417D02D
:103BF000380E016EE60E406412D0390E016EEC0EE6
:103C000040640DD0000EF86E870EF76EAC0EF66EA7
:103C1000EFEC05F0350E006E300E016E00D0005056
:103C2000C0EC05F02E0EC0EC05F00150C0EC05F024
:103C300004D0005063EC06F000D00D0EC0EC05F08F
:103C40001CA011D0200EC0EC05F0540EC0EC05F005
:103C50006F0EC0EC05F0200EC0EC05F0310EC0EC8C
:103C600005F0BFEC05F01200000EE8CF10F303C71B
:103C7000E8FFD00FE8CF11F304C7E8FFD00FE8CF7B
:103C800012F372EC05F014C300F0000EFB6E3C0E54
:103C9000FA6E0044016EA00E0124D8B0FA2AF96E23
:103CA00032D033D034D035D036D037D038D039D0E8
:103CB0003AD03BD03CD03DD03ED03FD040D041D098
:103CC00042D043D044D045D046D047D048D049D048
:103CD0004AD04BD04CD04DD04ED04FD050D051D0F8
:103CE00052D053D054D055D056D057D058D059D0A8
:103CF0005AD05BD05CD05DD05ED05FD060D061D058
:103D000062D063D0C3D1E7EF1EF0EEEF1EF0F5EF07
:103D10001EF0FCEF1EF003EF1FF00AEF1FF011EF93
:103D20001FF018EF1FF01FEF1FF026EF1FF02DEF11
:103D30001FF034EF1FF03BEF1FF042EF1FF049EF91
:103D40001FF050EF1FF057EF1FF05EEF1FF065EF11
:103D50001FF06CEF1FF073EF1FF07AEF1FF081EF91
:103D60001FF088EF1FF08FEF1FF096EF1FF09DEF11
:103D70001FF0A4EF1FF0ABEF1FF0B2EF1FF0B9EF91
:103D80001FF0C0EF1FF0C7EF1FF0CEEF1FF0D5EF11
:103D90001FF0DCEF1FF0E3EF1FF0EAEF1FF0F1EF91
:103DA0001FF0F8EF1FF0FFEF1FF006EF20F00DEF10
:103DB00020F014EF20F01BEF20F022EF20F029EF8D
:103DC00020F030EF20F037EF20F03EEF20F0000E33
:103DD000F86E830EF76E620EF66E56D1000EF86E18
:103DE000830EF76E680EF66E4FD1000EF86E830EDE
:103DF000F76E6E0EF66E48D1000EF86E830EF76EFB
:103E0000740EF66E41D1000EF86E830EF76E7A0EC8
:103E1000F66E3AD1000EF86E830EF76E800EF66ED7
:103E200033D1000EF86E830EF76E860EF66E2CD12F
:103E3000000EF86E830EF76E8C0EF66E25D1000E16
:103E4000F86E830EF76E920EF66E1ED1000EF86EAF
:103E5000830EF76E980EF66E17D1000EF86E830E75
:103E6000F76E9E0EF66E10D1000EF86E830EF76E92
:103E7000A40EF66E09D1000EF86E830EF76EAA0E30
:103E8000F66E02D1000EF86E830EF76EB20EF66E6D
:103E9000FBD0000EF86E830EF76EBA0EF66EF4D0FD
:103EA000000EF86E830EF76EC20EF66EEDD0000EA9
:103EB000F86E830EF76ECA0EF66EE6D0000EF86E40
:103EC000830EF76ED20EF66EDFD0000EF86E830E04
:103ED000F76EDA0EF66ED8D0000EF86E830EF76E1F
:103EE000E20EF66ED1D0000EF86E830EF76EEA0E7B
:103EF000F66ECAD0000EF86E830EF76EF20EF66EF6
:103F0000C3D0000EF86E830EF76EFA0EF66EBCD0BC
:103F1000000EF86E840EF76E020EF66EB5D0000E2F
:103F2000F86E840EF76E0A0EF66EAED0000EF86EC6
:103F3000840EF76E120EF66EA7D0000EF86E850E88
:103F4000F76E0E0EF66EA0D0000EF86E840EF76EB1
:103F50001A0EF66E99D0000EF86E850EF76E160EDC
:103F6000F66E92D0000EF86E840EF76E220EF66E8C
:103F70008BD0000EF86E850EF76E1E0EF66E84D096
:103F8000000EF86E840EF76E2A0EF66E7DD0000ECF
:103F9000F86E850EF76E260EF66E76D0000EF86E71
:103FA000840EF76E320EF66E6FD0000EF86E850E30
:103FB000F76E2E0EF66E68D0000EF86E840EF76E59
:103FC0003A0EF66E61D0000EF86E850EF76E360E64
:103FD000F66E5AD0000EF86E840EF76E420EF66E34
:103FE00053D0000EF86E850EF76E3E0EF66E4CD076
:103FF000000EF86E850EF76E460EF66E45D0000E7A
:10400000F86E840EF76E4A0EF66E3ED0000EF86E15
:10401000840EF76E520EF66E37D0000EF86E840ED8
:10402000F76E5A0EF66E30D0000EF86E840EF76EF4
:10403000620EF66E29D0000EF86E840EF76E6A0ED0
:10404000F66E22D0000EF86E840EF76E720EF66ECB
:104050001BD0000EF86E840EF76E7A0EF66E14D03A
:10406000000EF86E840EF76E820EF66E0DD0000E06
:10407000F86E840EF76E8A0EF66E06D0000EF86E9D
:10408000840EF76E920EF66EEFEC05F01200000E45
:10409000F86E830EF76E220EF66EEFEC05F002C797
:1040A000E8FFC0EC05F003C7E8FFC0EC05F004C76B
:1040B000E8FFC0EC05F005C7E8FFC0EC05F06D0EA9
:1040C000C0EC05F0530EC0EC05F00D0EC0EC05F091
:1040D0001200000EF86E880EF76E080EF66EEFEC0A
:1040E00005F002C7E8FF300A03E1EDEC06F003D06B
:1040F000F6EC06F000D01200500E75EC02F0530EF4
:1041000075EC02F03B0E75EC02F04D9000D0120001
:1041100017EE00F0000EE3503F0A0AE147A6BDEF9C
:1041200022F051A8BDEF22F05BEC35F0BDEF22F09C
:10413000100E376E00C7E8FF460A2DE101C7E8FF01
:10414000410A000E05E001C7E8FF420A010E23E123
:10415000E8CF1EF247A60ED01DC2E8FF320A04E0E7
:10416000FFEC34F0BDEF22F0D0EC04F036EC36F08A
:1041700036EC29F01FC038F01E520BE07DA2FDEC9A
:1041800002F00001010E4BBA386E4AB4386E4AB6DE
:10419000386EBDEF22F000C7E8FF410A22E101C7F7
:1041A000E8FF430A06E11C52D8A491EC13F0BDEFDE
:1041B00022F001C7E8FF470A0AE12052D8B4BDEF58
:1041C00022F01C52D8A4B7EC13F0BDEF22F001C7C7
:1041D000E8FF4E0A06E11C52D8A4CEEC13F0BDEF66
:1041E00022F000C7E8FF420A22E101C7E8FF430AC4
:1041F00006E11C52D8A41EEC14F0BDEF22F001C75A
:10420000E8FF490A06E11C52D8A478EC13F0BDEF90
:1042100022F001C7E8FF500A0AE11C52D8B4BDEFF2
:1042200022F0D0EC04F0ECEC18F0BDEF22F000C767
:10423000E8FF430A0DE101C7E8FF4F0A09E147B66D
:10424000BDEF22F01C52D8A43EEC14F0BDEF22F0DA
:1042500000C7E8FF470A0EE101C7E8FF540A0AE178
:104260001C52D8B4BDEF22F0D0EC04F0D3EC15F022
:10427000BDEF22F000C7E8FF490A08E101C7E8FFE7
:10428000460A04E160EC0BF0BDEF22F000C7E8FF46
:104290004B0A0EE101C7E8FF530A0AE11C52D8B4E9
:1042A000BDEF22F0D0EC04F050EC16F0BDEF22F0A0
:1042B00000C7E8FF4D0A45E101C7E8FF430A06E1F0
:1042C0000BEC35F039EC35F0BDEF22F001C7E8FF1B
:1042D000440A08E102C73CF01C52D8A475EC0CF06B
:1042E000BDEF22F001C7E8FF470A0AE11C52D8B42B
:1042F000BDEF22F0D0EC04F0B0EC16F0BDEF22F0F0
:1043000001C7E8FF4C0A0AE11C52D8B4BDEF22F005
:10431000D0EC04F0EAEC16F0BDEF22F001C7E8FFA4
:10432000520A0FE1519847A6BDEF22F01DC2E8FFE7
:10433000320AD8B4BDEF22F05BEC35F05188BDEF06
:1043400022F000C7E8FF4E0A26E101C7E8FF420A53
:1043500006E11C52D8A4B7EC17F0BDEF22F001C75C
:10436000E8FF4C0A0AE11C52D8B4BDEF22F0D0ECB1
:1043700004F0FBEC17F0BDEF22F001C7E8FF520A92
:104380000AE11C52D8B4BDEF22F0D0EC04F00FECDF
:1043900018F0BDEF22F000C7E8FF500A41E101C765
:1043A000E8FF410A08E147B606D01C52D8A431EC18
:1043B00017F0BDEF22F001C7E8FF430A23E102C76F
:1043C000E8FFD00FE8CF10F303C7E8FFD00FE8CF26
:1043D00011F304C7E8FFD00FE8CF12F372EC05F039
:1043E00014C300F0F0C1E8FF00C0F0F1001818E0BD
:1043F0001C52D8B4BDEF22F0D0EC04F07EEC17F0E4
:10440000BDEF22F001C7E8FF530A0AE102C7E8FF47
:10441000310AD8B4BDEF22F0010E3D6EBDEF22F09F
:1044200000C7E8FF520A36E101C7E8FF410A06E18A
:104430001C52D8A42CEC19F0BDEF22F001C7E8FF04
:10444000470A0AE12052D8B4BDEF22F01C52D8A48A
:10445000B7EC13F0BDEF22F001C7E8FF4C0A0CE106
:1044600047B60AD01C52D8B4BDEF22F0D0EC04F00D
:10447000E1EC18F0BDEF22F001C7E8FF540A0AE1B1
:104480001C52D8B4BDEF22F0D0EC04F087EC19F048
:10449000BDEF22F000C7E8FF530A2DE101C7E8FF96
:1044A000440A0AE11C52D8B4BDEF22F0D0EC04F06B
:1044B000BCEC12F0BDEF22F001C7E8FF460A0AE1AA
:1044C0001C52D8B4BDEF22F0D0EC04F09AEC19F0F5
:1044D000BDEF22F001C7E8FF480A0DE147B6BDEF86
:1044E00022F01C52D8B4BDEF22F0D0EC04F0D6EC90
:1044F00019F0BDEF22F000C7E8FF560A2EE101C710
:10450000E8FF440A0AE11C52D8B4BDEF22F0D0EC17
:1045100004F047EC20F0BDEF22F001C7E8FF470AA6
:104520000AE11C52D8B4BDEF22F0D0EC04F02DEC1F
:1045300013F0BDEF22F001C7E8FF530A04E145EC98
:1045400013F0BDEF22F001C7E8FF580A06E11C5244
:10455000D8A45BEC13F0BDEF22F000C7E8FF580AC7
:104560000CE101C7E8FF540A08E11C52D8B405D099
:10457000D0EC04F069EC20F000D02C6A2F6A4C9249
:10458000000EE8CFB3FFE8CFB2FF1200000EE8CF75
:1045900027F2BBEC04F0000EFB6E450EFA6E0544EC
:1045A000016EAC0E0124D8B0FA2AF96E10D03CD0BE
:1045B000C3D0E6D030D1B3D116D271D2B1D222D38A
:1045C0007BD3D1D375D375D375D375D312004BBCC0
:1045D00022EF28F04ABE17D04BAA04D05AEC09F0BB
:1045E00024EF28F04BB80BD04BB605D04F9479ECA4
:1045F0000AF024EF28F05DEC12F024EF28F090ECA4
:1046000011F024EF28F04BBA22EF28F04BB80AD073
:104610004BB604D097EC0AF024EF28F094EC12F09B
:1046200024EF28F022EF28F04ABE2BD04BAA04D06A
:104630005AEC09F024EF28F04BB821D04BB618D033
:104640004BBC22EF28F0000EF86E890EF76E460E76
:10465000F66EEFEC05F01DEC36F0530E75EC02F043
:10466000560E75EC02F03B0E75EC02F024EF28F0CC
:104670004BBC22EF28F0FAEC35F024EF28F022EFC3
:1046800028F04BBA22EF28F04BB854D04BB630D0BC
:104690004BBC1AD0000EF86E880EF76E7C0EF66ECC
:1046A000EFEC05F0D7EC04F067EC2FF0D7EC04F05A
:1046B000000EF86E7F0EF76E6A0EF66EEFEC05F0E8
:1046C00028EC33F024EF28F0020EE8CF22F6040E97
:1046D000E8CF23F6476A478898EC37F0000EF86E6B
:1046E000880EF76E7C0EF66EEFEC05F024EF28F0E6
:1046F0004BBC0CD0000EF86E890EF76E060EF66EEF
:10470000EFEC05F0C0EC2FF024EF28F0050EE8CF19
:1047100022F6000EE8CF23F6476A478898EC37F078
:10472000000EF86E890EF76E060EF66EEFEC05F0D1
:1047300024EF28F022EF28F04BBC22EF28F04ABEED
:1047400012D04BAA04D05AEC09F024EF28F04BB851
:1047500008D04BB604D059EC11F024EF28F022EF2A
:1047600028F022EF28F04BBA22EF28F04BB806D001
:104770004BB602D022EF28F022EF28F022EF28F0EB
:104780004ABE30D04BBA22EF28F04BB61DD04BA812
:104790000DD000D04B964B98000EF86E7C0EF76E45
:1047A000F60EF66EEFEC05F028EF28F04B864B98EE
:1047B000000EF86E7C0EF76EE40EF66EEFEC05F070
:1047C00085EC04F028EF28F04B884B96000EF86E2D
:1047D0007C0EF76EEC0EF66EEFEC05F085EC04F057
:1047E00028EF28F04BBA22EF28F04BB622EF28F042
:1047F0004BB822EF28F0498210C000F0000E106E76
:1048000048884784DCEC38F04898479400C010F0A2
:10481000499224EF28F04ABE45D04BAA04D05AEC66
:1048200009F024EF28F04BB81ED04BB61BD04F94A4
:104830004BBC04D038EC0FF024EF28F0170EE8CF73
:1048400022F6010EE8CF23F6476A478898EC37F046
:10485000000EF86E800EF76E100EF66EEFEC05F09F
:1048600024EF28F0EFD350A4EDD34F844BBC04D0F9
:1048700038EC0FF024EF28F0170EE8CF22F6010EE7
:10488000E8CF23F6476A478898EC37F0A1EC37F079
:10489000000EF86E800EF76E100EF66EEFEC05F05F
:1048A00024EF28F04BBACED34BB81CD04BB619D05E
:1048B0004F944BBC03D0E0EC0FF0C6D3180EE8CFFA
:1048C00022F6010EE8CF23F6476A478898EC37F0C6
:1048D000000EF86E800EF76E3E0EF66EEFEC05F0F1
:1048E000B3D3B0D350A4AED34F844BBC03D0E0ECD1
:1048F0000FF0AAD3180EE8CF22F6010EE8CF23F668
:10490000476A478898EC37F0A1EC37F0000EF86E54
:10491000800EF76E3E0EF66EEFEC05F095D34ABEB4
:1049200049D04BAA03D05AEC09F08ED34BB822D011
:104930004BB619D04BBC04D04F94B7EC0AF084D3DB
:10494000210EE8CF22F6010EE8CF23F6476A47880A
:1049500098EC37F0000EF86E810EF76E160EF66EBC
:10496000EFEC05F071D34BBC6DD3340E406EC9EC47
:1049700010F06AD350B803D050B401D065D34F843F
:104980004BBC03D0B7EC0AF05FD3210EE8CF22F680
:10499000010EE8CF23F6476A478898EC37F0A1EC80
:1049A00037F0000EF86E810EF76E160EF66EEFEC15
:1049B00005F04AD34BBC46D34BBA44D34BB80CD0CA
:1049C0004BB605D0350E406EC9EC10F03DD3360E17
:1049D000406EC9EC10F038D350B034D3330E406E73
:1049E000C9EC10F031D34ABE44D04BAA03D05AECE4
:1049F00009F02AD34BB835D04BB619D04BBC04D0F4
:104A00004F9441EC11F020D3140EE8CF22F6020EA1
:104A1000E8CF23F6476A478898EC37F0000EF86E27
:104A2000870EF76EE60EF66EEFEC05F00DD350B084
:104A300009D34BBC03D0A3EC10F006D3150EE8CF7E
:104A400022F6010EE8CF23F6476A478898EC37F044
:104A5000000EF86E890EF76E620EF66EEFEC05F042
:104A6000F3D24BBCEFD250A4EDD24F8441EC11F005
:104A7000EBD24BBCE7D24BBAE5D24BB807D04BB622
:104A800004D04F9450EC10F0DFD2DCD250B803D0F9
:104A900050B401D0D7D24F8450EC10F0D5D24ABEDA
:104AA00028D04BB825D04BB622D04BBA03D04BBC44
:104AB0000BD017D04B9A000EF86E7B0EF76E8C0E53
:104AC000F66EEFEC05F0C0D24B9C4B8A000EF86EF0
:104AD000810EF76E980EF66EEFEC05F085EC04F0A3
:104AE000B7D24B8C98EC37F085EC04F0B1D2AAD257
:104AF000A9D24BBAA7D24BB812D04BB60FD049802F
:104B000010C000F0000E106E48884784DCEC38F0CE
:104B10004898479400C010F0499096D293D292D210
:104B20004ABE3FD04BAA03D05AEC09F08DD24BB805
:104B300030D04BB606D04BBC85D24F94BDEC0EF0B6
:104B400083D250B07FD24F944BBC10D042EC09F0CE
:104B500050B803D050B401D077D2140E8AEC05F0CF
:104B6000D7EC04F04F8442EC09F06ED2200EE8CF6F
:104B700022F6010EE8CF23F6476A478898EC37F013
:104B8000000EF86E7F0EF76E9E0EF66EEFEC05F0DF
:104B90005BD24BBC57D250A455D24F84BDEC0EF023
:104BA00053D24BBA4FD24BB825D04BB608D04BBCE2
:104BB00049D250B047D24F9461EC0AF045D24BBC79
:104BC00003D02FEC09F040D24F84200EE8CF22F61C
:104BD000010EE8CF23F6476A478898EC37F0A1EC3E
:104BE00037F0000EF86E7F0EF76E9E0EF66EEFEC4D
:104BF00005F02AD24BBC26D250A424D24F8461ECBB
:104C00000AF022D24ABE34D04BAA03D05AEC09F0A3
:104C10001BD24BB825D04BB606D04BBC13D24F9409
:104C2000D5EC0EF011D24BBC08D0A7EC0BF00F0E58
:104C30008AEC05F0C2EC0BF007D20B0EE8CF22F69F
:104C4000030EE8CF23F6476A478898EC37F0000E4A
:104C5000F86E7F0EF76EF20EF66EEFEC05F0F4D103
:104C60004BBCF0D150A4EED14F84D5EC0EF0ECD17A
:104C70004BBAE8D14BB81BD04BB618D04BBC03D0C5
:104C80006AEC0EF0E1D10C0EE8CF22F6030EE8CF6D
:104C900023F6476A478898EC37F0000EF86E7F0ECF
:104CA000F76EE60EF66EEFEC05F0CED1CBD1CAD1A1
:104CB000CCD0EED027D181D14ABE31D04BAA03D07F
:104CC0005AEC09F0C1D14BB822D04BB606D04BBC40
:104CD000B9D14F94EDEC0EF0B7D150B0B3D14BBC7D
:104CE00003D06CEC0FF0B0D10E0EE8CF22F6030E1D
:104CF000E8CF23F6476A478898EC37F0000EF86E45
:104D0000840EF76EA60EF66EEFEC05F09DD14BBC4F
:104D100099D150A497D14F84EDEC0EF095D14BBAB8
:104D200091D14BB81FD04BB618D04BBC03D051EC2F
:104D30000FF08AD10D0EE8CF22F6030EE8CF23F64E
:104D4000476A478898EC37F0000EF86E800EF76ED1
:104D50001A0EF66EEFEC05F077D14BBC73D185ECF3
:104D60000EF072D16FD14ABE42D04BAA03D05AEC9A
:104D700009F06AD14BB823D04BB610D0498010C08F
:104D800000F00D0E106E48884784DCEC38F048982F
:104D9000479400C010F04990499A56D147B654D173
:104DA000D0EC0AF00A0E8AEC05F05BEC37F0E1EC8F
:104DB00034F0320E8AEC05F0FFEC34F045D1410EB0
:104DC00075EC02F0490E75EC02F0310E75EC02F054
:104DD0003B0E75EC02F0410EC0EC05F0200EC0EC6D
:104DE00005F0490EC0EC05F0F6EC06F02DD14BBAFB
:104DF00029D14BB812D04BB60FD0000EF86E7C0EF6
:104E0000F76E700EF66EEFEC05F0476A478448883F
:104E1000DCEC38F0489813D115D1410E75EC02F056
:104E2000490E75EC02F0300E75EC02F03B0E75EC9D
:104E300002F0410EC0EC05F0200EC0EC05F0490E6A
:104E4000C0EC05F0EDEC06F0FFD04BBCFBD04ABE49
:104E500010D04BAA03D05AEC09F0F6D04BB808D0CA
:104E60004BB605D0310E406EC9EC10F0EDD0EAD053
:104E7000E9D04BBAE7D04BB80AD04BB607D050A414
:104E8000E1D0320E406EC9EC10F0DED0DBD0DAD0CB
:104E90004ABE28D04BAA03D05AEC09F0D5D04BB863
:104EA00020D04BB619D04BBC04D04F94D5EC0BF0AE
:104EB000CBD0120EE8CF22F6020EE8CF23F6476AD7
:104EC000478898EC37F0000EF86E800EF76E6A0E89
:104ED000F66EEFEC05F0B8D04BBCB4D0F9EC0FF0A7
:104EE000B3D0B0D04BBCAED04BBAACD04BB809D0DD
:104EF0004BB606D050A4A6D04F84D5EC0BF0A4D06E
:104F0000A1D0A0D04ABE4CD04BAA01D09BD04BB868
:104F100046D04BB637D04BBC22D01EC2E8FF010AA8
:104F20000BE01EC2E8FF020A0EE0000EF86E7F0ED4
:104F3000F76E8C0EF66E0DD0000EF86E7F0EF76ECB
:104F4000900EF66E06D0000EF86E840EF76EF80E18
:104F5000F66EEFEC05F0046A476A478270D01F0EC8
:104F6000E8CF22F60B0EE8CF23F6476A478898EC85
:104F700037F0000EF86E890EF76E400EF66EEFEC0D
:104F800005F062D04BBC5ED0000EF86E7C0EF76E62
:104F9000BC0EF66EEFEC05F0D6EC2AF055D052D0F0
:104FA0004BBC50D04BBA4ED04BB806D04BB601D00C
:104FB00049D097EC2AF048D045D04BBC43D04ABEEC
:104FC0001AD04BAA03D05AEC09F03ED04BB812D0FD
:104FD0004BB60FD0498010C000F00B0E106E488801
:104FE0004784DCEC38F04898479400C010F04990B2
:104FF0002BD028D027D04BBA25D04BB810D04BB6E9
:1050000003D09CEC38F020D0000EF86E820EF76EC4
:105010008A0EF66EEFEC05F0476A478A15D04C7E93
:10502000000EF86E890EF76E5A0EF66EEFEC05F074
:105030004CBEF6EC06F04CAEEDEC06F005D085EC7F
:1050400004F002D00EEC05F04BAC4B964BAC4B98F9
:1050500047A84F94056A7D921200000EFB6E500E19
:10506000FA6E0544016E700E0124D8B0FA2AF96E6A
:1050700010D018D020D028D02AD032D03AD042D068
:1050800044D04CD054D05CD05ED071D079D0BFD059
:105090001200310EB8EC05F0042A310E056E19EC41
:1050A00029F0C3D0320EB8EC05F0042A320E056E9A
:1050B00019EC29F0BAD0330EB8EC05F0042A330EFF
:1050C000056E19EC29F0B1D00EEC05F0AED0340E1F
:1050D000B8EC05F0042A340E056E19EC29F0A5D0C1
:1050E000350EB8EC05F0042A350E056E19EC29F0E2
:1050F0009CD0360EB8EC05F0042A360E056E19EC7D
:1051000029F093D00EEC05F090D0370EB8EC05F0F6
:10511000042A370E056E19EC29F087D0380EB8EC4A
:1051200005F0042A380E056E19EC29F07ED0390EF0
:10513000B8EC05F0042A390E056E19EC29F075D08B
:105140000EEC05F072D0096662D0060E041803E179
:105150000EEC05F06AD0000EF86E7A0EF76E8A0E2D
:10516000F66EEFEC05F004C009F0092A5ED0300EAF
:10517000B8EC05F0042A300E056E19EC29F055D074
:10518000BBEC04F04ABE32D00452D8A432D01EC2C6
:10519000E8FF000A13E050BE01D004D01EC2E8FFB1
:1051A000010A18E0000EF86E7F0EF76E8C0EF66E98
:1051B000EFEC05F0000EE8CF1EF237D0000EF86ECF
:1051C0007F0EF76E900EF66EEFEC05F0010EE8CF55
:1051D0001EF22BD0000EF86E840EF76EF80EF66EEF
:1051E000EFEC05F0020EE8CF1EF21FD01CEC0BF026
:1051F00016D0000EF86E7A0EF76E9E0EF66EEFEC7D
:1052000005F0476A4780D9EC29F0046A10D0000EF7
:10521000F86E7C0EF76EC40EF66EEFEC05F0476A82
:1052200047804A6A046A096A02D085EC04F0056A7C
:1052300012000450010A08E10B0E266E300E01EE3A
:1052400030F0EE6E262EFDD70C0E00C2E8FF0418DB
:1052500006E104060EEC05F085EC04F006D001EE44
:1052600030F00450E80605C0EBFF1200499A17EE33
:1052700002F0300EE66209D0E6620BD0E6620DD095
:10528000E6620FD0E66211D014D002C7E8FFC0EC8E
:1052900005F003C7E8FFC0EC05F004C7E8FFC0EC69
:1052A00005F005C7E8FFC0EC05F006C7E8FFC0EC55
:1052B00005F02E0EC0EC05F007C7E8FFC0EC05F0C6
:1052C00008C7E8FFC0EC05F009C7E8FFC0EC05F02F
:1052D00017EE0CF0300EE56205D0E5621FD0E562F6
:1052E00032D03ED0640EC0EC05F06F0EC0EC05F07D
:1052F000740EC0EC05F00AC7E8FFC0EC05F0200E04
:10530000C0EC05F00BC7E8FFC0EC05F0200EC0ECC8
:1053100005F00CC7E8FFC0EC05F022D0640EC0EC2D
:1053200005F06F0EC0EC05F0740EC0EC05F00AC776
:10533000E8FFC0EC05F0200EC0EC05F00BC7E8FF5D
:10534000C0EC05F00DD0640EC0EC05F06F0EC0ECA3
:1053500005F0740EC0EC05F00AC7E8FFC0EC05F0DC
:10536000D7EC04F017EE02F021EE3CF04ABC21EE3F
:1053700048F0E6CFDEFFE6CFDEFFE6CFDEFFE6CF8A
:10538000DEFFE6CFDEFFE6CFDEFFE6CFDEFFE6CFD5
:10539000DEFFE6CFDEFFE6CFDEFFE6CFDEFF4C909E
:1053A0004AAC4A944ABC4A9649AC02D04ABC499C91
:1053B0001200300E006E01EE30F004C026F00952EB
:1053C000D8B404D0091C070F086E61D0030E04186E
:1053D00024E1000EEB50390A20E1010EEB50390AAE
:1053E0001CE1020EEB50390A18E1320E8AEC05F08E
:1053F000000EF86E7D0EF76EE40EF66EEFEC05F023
:10540000C80E8AEC05F0F29EF29CF5EC3CF006EC3E
:105410003DF0C80E8AEC05F0FF00030E041818E1F9
:10542000000EEB50370A14E1010EEB50370A10E181
:10543000020EEB50370A0CE1320E8AEC05F0000E3A
:10544000F86E890EF76E820EF66EEFEC05F06ED0F8
:10545000040E086E010E04181AE0030E086E020E08
:10546000041815E0020E086E030E041810E0040E76
:10547000086E040E04180BE0030E086E050E0418E7
:1054800006E0020E086E060E041801E04FD0260654
:105490002650EBCF2BF000C0EBFF08242BC0EBFF16
:1054A0002652D8A4F4D750B01CEC0BF0460E75EC85
:1054B00002F01EC2E8FF010A420E06E01EC2E8FF2B
:1054C000020A430E01E0410E75EC02F04EAE4A8432
:1054D0004EBE4A86080E50B8090E266E086A01EEC6
:1054E00033F050B801EE32F00850EBCFE8FF75EC26
:1054F00002F0082A262EF3D73B0E75EC02F0096A5B
:1055000030C111F631C112F632C113F633C114F6AF
:1055100034C115F635C116F636C117F637C118F67F
:1055200038C119F639C11AF63AC11BF61200460EF7
:10553000E8CFB0F11EC2E8FF010A420E05E01EC22C
:10554000E8FF020A65E0410EE8CFB1F13B0EE8CF7B
:10555000B2F1CCEC08F04FA227D002C711F603C776
:1055600012F604C713F605C714F606C715F607C7E3
:1055700016F608C717F609C718F60AC719F60BC7B3
:105580001AF60CC71BF6000EF86E7C0EF76EB40E02
:10559000F66EEFEC05F008D0000EF86E840EF76E94
:1055A000DC0EF66EEFEC05F02C6A120011C6E8FF77
:1055B000000A09E1000EF86E7F0EF76E760EF66EA9
:1055C000EFEC05F02DD0460E75EC02F01EC2E8FFA0
:1055D000010A420E05E01EC2E8FF020A19E0410E70
:1055E00075EC02F04EAE4A844EBE4A860B0E266E15
:1055F000086A06EE11F00850EBCFE8FF75EC02F0F8
:10560000082A262EF6D73B0E75EC02F0096A08D060
:10561000000EF86E840EF76EDC0EF66EEFEC05F001
:105620001200000EFB6E560EFA6E0544016E380E27
:105630000124D8B0FA2AF96E10D018D020D028D082
:1056400050D058D060D068D088D090D098D0A0D01A
:10565000CBD0CBD0D3D0FFD01200310EB8EC05F0B8
:10566000042A310E056E4EEC2CF014D1320EB8EC3B
:1056700005F0042A320E056E4EEC2CF00BD1330EE1
:10568000B8EC05F0042A330E056E4EEC2CF002D176
:10569000046A1DEC36F0430E75EC02F0480E75EC12
:1056A00002F0300E75EC02F03B0E75EC02F0F4D017
:1056B0000201242BD8B0232B000123C217F324C2EC
:1056C00018F325C219F326C21AF3DCEC3CF006E20B
:1056D000000EE8CF23F2010EE8CF24F214EC35F0EF
:1056E000DBD0340EB8EC05F0042A340E056E4EEC17
:1056F0002CF0D0D0350EB8EC05F0042A350E056E2E
:105700004EEC2CF0C7D0360EB8EC05F0042A360E5D
:10571000056E4EEC2CF0BED0046A1DEC36F0430E44
:1057200075EC02F0480E75EC02F0310E75EC02F0EB
:105730003B0E75EC02F0B0D002012453D8B423071D
:105740002407235307E1245305E1000125C223F276
:1057500026C224F214EC35F09FD0370EB8EC05F0D9
:10576000042A370E056E4EEC2CF094D0380EB8ECAF
:1057700005F0042A380E056E4EEC2CF08BD0390E55
:10578000B8EC05F0042A390E056E4EEC2CF082D0F0
:10579000BBEC04F04ABE0CD0000EF86E850EF76E1E
:1057A0004E0EF66EEFEC05F0010EE8CF27F272D048
:1057B000000EF86E890EF76E720EF66EEFEC05F0C5
:1057C00020C2E8FFC0EC05F021C2E8FFC0EC05F004
:1057D00022C2E8FFC0EC05F0BFEC05F0FDEC0AF0DA
:1057E000320E8AEC05F044D036D0300EB8EC05F01D
:1057F000042A300E056E4EEC2CF04CD027C2E8FF88
:10580000E85017E0000EF86E820EF76E500EF66E3E
:10581000EFEC05F03C0E8AEC05F0DCEC35F0140EF4
:105820008AEC05F0E1EC34F0476A47804A6A046A82
:1058300033D023C217F324C218F325C219F326C2AA
:105840001AF3DCEC3CF003E20EEC05F006D0CAECF7
:105850002EF0046A21D004520BE0000EF86E7C0E8C
:10586000F76EC40EF66EEFEC05F04A6A046A12D0C9
:10587000000EF86E820EF76E420EF66EEFEC05F03B
:10588000476A47804A6A046AE1EC34F0640E8AECA5
:1058900005F002D085EC04F0056A12000450010AFC
:1058A00007E1300EE8CF20F2E8CF21F2E8CF22F274
:1058B000040E041806E104060EEC05F085EC04F075
:1058C00016D0010E04180FE0020E041807E021C2E2
:1058D00020F222C221F205C022F207D022C221F218
:1058E00005C022F202D005C022F245EC0BF01200F6
:1058F0001DEC36F04D0EE8CFB0F1430EE8CFB1F11C
:105900003B0EE8CFB2F1CCEC08F04FA208D002C7B2
:1059100020F203C721F204C722F245EC0BF012007B
:10592000000EFB6E590EFA6E0544016E360E012410
:10593000D8B0FA2AF96E10D01DD02AD037D07BD03B
:1059400083D08BD093D0D7D0DFD0E7D0EFD021D188
:105950003ED146D173D11200310E056EBBEC04F07E
:105960004ABE07D0310EB8EC05F0042A0BEC32F039
:1059700079D130D0320E056EBBEC04F04ABE07D0B0
:10598000320EB8EC05F0042A0BEC32F06BD122D0C9
:10599000330E056EBBEC04F04ABE07D0330EB8ECF4
:1059A00005F0042A0BEC32F05DD114D022C6E8FFDA
:1059B000020A19E022C6E8FF050A23E022C6E8FF32
:1059C0001F0A2BE022C6E8FF0B0A07E022C6E8FF09
:1059D0000E0A03E0AAEC37F045D1310EE8CF29F6E4
:1059E000F6EC06F03FD1320EE8CF29F6000EF86E45
:1059F000880EF76E600EF66EEFEC05F0F6EC06F032
:105A000031D1000EF86E820EF76E220EF66EEFECBC
:105A100005F0320EE8CF29F625D1000EF86E820E81
:105A2000F76E220EF66EEFEC05F0042A2D0E056ED1
:105A30000BEC32F017D1340EB8EC05F0042A340E1A
:105A4000056E0BEC32F00ED1350EB8EC05F0042AE1
:105A5000350E056E0BEC32F005D1360EB8EC05F0C4
:105A6000042A360E056E0BEC32F0FCD022C6E8FF9D
:105A7000020A19E022C6E8FF050A23E022C6E8FF71
:105A80001F0A2BE022C6E8FF0B0A07E022C6E8FF48
:105A90000E0A03E0AAEC37F0E5D0300EE8CF29F685
:105AA000EDEC06F0DFD0310EE8CF29F6000EF86EEF
:105AB000880EF76E6C0EF66EEFEC05F0F6EC06F065
:105AC000D1D0000EF86E820EF76E1C0EF66EEFEC63
