:020000040000FA
:0800000000000000F3EF00F026
:0200080008D01E
:02000A000000F4
:020018008ED088
:06001A008388E9CF03F327
:10002000EACF04F348BC41D00E01CDA914D0C5A934
:1000300012D0040100917C2F03D00E01C5990BD082
:10004000040104EE01F07E51EBCF9AFF7E2B7B0E74
:100050007E19D8B47E6B0E01C5AB67D0CDAB65D031
:1000600099CFFDF4060E0F019D1419E1040100B9AA
:100070005CD000A302D0008958D004EE7FF0009538
:10008000FA2B7B0EFA1909E0FB51FDC4EBFFFB2BA9
:100090007B0EFB19D8B4FB6B48D0008346D00F0110
:1000A0009D989D880401008740D00E01CDAD14D0ED
:1000B000C5AD12D0050100917C2F03D00E01C59D66
:1000C0000BD0050105EE01F07E51EBCF9AFE7E2BA1
:1000D0007B0E7E19D8B47E6B0E01C5AF26D0CDAF96
:1000E00024D099CEFEF5060E0E019D1519E10501ED
:1000F00000B91BD000A302D0008917D005EE7FF015
:100100000095FB2B7C0EFB1909E0FC51FEC5EBFFB3
:10011000FC2B7C0EFC19D8B4FC6B07D0008305D0F7
:100120000E019D999D890501008704C3EAFF03C361
:10013000E9FF83981100D8CF01F3E8CF00F3E0CFB7
:1001400002F30E01C6A10BD0CEA109D00001342EBE
:1001500003D04C840E01C6910E01CE913DD00E010C
:10016000C6A50BD0CEA509D00001352E03D04D80F9
:10017000100E356E0E01CE952FD00E01C2A90ED0F5
:10018000CAA90CD0CA990F01125308E00F01126BD3
:10019000000145EC04F08E5000001ED00E01C2ABF1
:1001A0000CD0CAAB0AD000010252D8B44882D8A4FD
:1001B00002060E01CA9B00010FD00E01C6A90BD08A
:1001C000CEA909D00001362E03D049880E01C69968
:1001D0000E01CE9901D000D002C3E0FF00C3E8FFBA
:1001E00001C3D8FF1000000000000F01836AC00E99
:1001F000116FC00E886E000E196FF00E896E186FA9
:10020000136F146BF00E846E856A000E216FAE0EB4
:100210008A6E866A000E266FA00E8B6E876A000EAD
:100220002E6F000E8C6E000E0F6F176F1F6F246FF6
:100230002C6FF29EF29C0E01550EA06FAA0EA06FBD
:10024000A091170EB56F090EFD6F1F0E8D6F0F0178
:100250000B0E056F0E01550EA06FAA0EA06FA081A8
:100260000F01F26AF28A126B0E01CA99C299BA9909
:10027000BA91CA91C291BA93CA93C293BA95CA95D8
:10028000C2950F01F290F292F294D46AD36A0E01F1
:10029000E2910F01D59ED588D69ED68CD69AD69857
:1002A000D686D694D692D6900E01BA9BCA9BC29B94
:1002B000CE6ACD6ACF80D09CD098CF92CF8ACF889B
:1002C000D09ED296D294D292D280CF940E01DC9757
:1002D000E293BE91C691C791CE910F01C86AC76AD9
:1002E000C9800E01E297BE95C695C793CE950F01C2
:1002F000CA9ECA9CCA98CB96CB94CB92CB90C9820B
:10030000C98AC988CC96CC94CC92CC80C994C26A54
:10031000C16AC380C49CC498C492C490C382C38A77
:10032000C3880E01E29BBE99C699C795CE990F016D
:10033000C49EC696C694C692C680C3940E01BD895B
:10034000BD8BBD8DBD8F9F979C6B9E6B0F019F9644
:100350009C6A9E6A0001858C868C046A036A026A24
:10036000296A080E0D6E2C6A476A4780486A496AF6
:100370004A6A4B6A4D6A4E6A4C6A4F6A086A376A23
:100380004C844468FF0EE8CF02F6020EE8CF27F651
:10039000000EE8CF05F2546A000EE8CF5CF8E8CF13
:1003A0005EF8D6EC39F08388489C5AEC46F024B0CD
:1003B000488C819C818E47EC06F08AEC05F08AEC33
:1003C00005F048BC15EC03F048AC0AEC03F00F0153
:1003D000126B0E01C289CA9BCE91CE95CE990001B7
:1003E0008398F28EF28C66EC05F02AEC03F0A1EC17
:1003F00021F047EC03F02E6A2AEC03F020503B6E0C
:100400000E01C699CE990001499652EC03F049BEFF
:100410000DD017EE00F02C5009C0E3FF2C2AFD0E82
:10042000096204D04C825FEC23F0EED74DA005D0DA
:1004300049B603D03B2E01D0D8D749B84EEC07F0CF
:100440004DB029EC23F0E0EC04F048A638D00E01C2
:10045000C29B0F01D59E00011FEC05F047AA2FECAF
:1004600005F047A003D0FCEC25F01DD047A203D037
:1004700040EC2BF018D047A803D053EC2CF013D04D
:1004800047A603D099EC30F00ED047AC03D065EC12
:1004900035F009D047AA03D018EC41F004D047A4A6
:1004A0000ED076EC03F0FBEC04F0046A48968E5014
:1004B00000000F01126B0E01CA99C2890001A4D776
:1004C0000F019E8A0E01C599C58B0F019D6A9D8EF5
:1004D0009D8804017C6B7E6B7D6B0401FA6BFC6B69
:1004E000FB6B0401006B000112000E019E8BC59D89
:1004F000C58F9D6B9D8F9D8905017C6B7E6B7D6B90
:100500000501FB6BFD6BFC6B0501006B000112002C
:1005100048BC15D00401FA5102E10085000C04EE3C
:100520007FF0FC51EBCFFEF4FC2B7B0EFC19D8B412
:10053000FC6BFA0700930099FEC4E8FF1200050166
:10054000FB5102E10085000C05EE7FF0FD51EBCF81
:10055000FFF5FD2B7C0EFD19D8B4FD6BFB07009356
:100560000099FFC5E8FF120048BC21D00401FE6FCE
:1005700000B11BD07C5107E1FEC49AFF7E2B7B0E9D
:100580007E19D8B47E6B04EE01F07D51FEC4EBFF02
:100590007D2B7B0E7D19D8B47D6B7C2B7B0E7C195B
:1005A000D8A401D000810E01C58900011200050107
:1005B000FF6F00B11BD07C5107E1FFC59AFE7E2B77
:1005C0007B0E7E19D8B47E6B05EE01F07D51FFC520
:1005D000EBFF7D2B7B0E7D19D8B47D6B7C2B7B0EC6
:1005E0007C19D8A401D000810E01C58D12000F0125
:1005F00048BC07D09F969E94110E9B6E000E9C6E79
:1006000007D00E019F979E95110E9B6F000E9C6F59
:10061000000112000E019E9B9D99C59DC59F000182
:100620008AEC05F060EC02F012000F019E9A9D9892
:100630000E01C599C59B00018AEC05F075EC02F02E
:1006400012004C98E650DE6203D02F2EFBD701D06B
:100650004C8812000E01C695100E356E4D900F019C
:10066000C86AC76A0E01CE95C685000112000E0148
:10067000C69900011DC036F04998000EE8CFC2FFB0
:10068000E8CFC1FF0E01CE99C689000112002C6A85
:100690007B0E48BC7C0E276E17EE00F0E66A272E14
:1006A000FDD71200498E48BC0CD0040100B514D00F
:1006B0000401FA5111E088EC02F0499EE8CF09F0FC
:1006C0000BD0050100B508D00501FB5105E088EC11
:1006D00002F0499EE8CF09F0000112000900F55030
:1006E000D8B41200B4EC02F0F9D71200036A000E7D
:1006F000FB6E070EFA6E0444016E040E0124D8B09E
:10070000FA2AF96EB9D0B8D0B7D00DD0B5D0B4D0E0
:10071000B3D016D0B1D0B0D0AFD01ED039D0ACD07D
:100720008CD090D012000F2A0F50160AD8B40F6A3E
:10073000488848EC42F04898CFEC04F0256AA1D0F4
:100740000F06150E0F600F6E488848EC42F048986F
:10075000CFEC04F0256A95D00AEC05F04ABE06D02D
:10076000498248EC42F0CFEC04F08BD07CEC46F0B0
:10077000000EF86E8F0EF76E700EF66E3EEC06F001
:10078000476A47800E01C29B0001D59E256A79D039
:100790002552D8B471D0000EF86E900EF76EF60E9A
:1007A000F66E3EEC06F09E84230E9B6E010E9C6E50
:1007B0000AEC03F0489CFBEC04F0046A48968E5067
:1007C00000000F01126B0E01C289000152EC03F010
:1007D00049BE11D0C10E0962F9D71FEC05F0000E19
:1007E000F86E910EF76E1E0EF66E3EEC06F0320EAF
:1007F000D9EC05F0FF0048A6E9D70E01C29B000125
:10080000D59E48901FEC05F02FEC05F0000EF86E19
:100810008E0EF76E520EF66E3EEC06F0320ED9ECEE
:1008200005F0000EF86E900EF76E720EF66E3EEC4E
:1008300006F0320ED9EC05F0FF002552D8B41CD0DA
:100840000BEF07F00AEC05F04ABE06D0498048ECF1
:1008500042F0CFEC04F015D0000EF86E8F0EF76E5C
:10086000860EF66E3EEC06F0476A47800E01C29B8C
:100870000001D59E256A05D05DEC05F0CFEC04F0B3
:1008800000D049924990046A1200056A052E01D0F1
:100890007CD0066A062E01D0F9D78E1C006EF00BB4
:1008A000F9E0FE0E846E54EF04F056EF04F058EFBA
:1008B00004F05AEF04F08E1CF00B10E00F0E046EE3
:1008C00000B866D00B0E046E00BA62D0070E046E3C
:1008D00000BC5ED0030E046E00BE5AD0FD0E846EC6
:1008E00071EF04F073EF04F075EF04F077EF04F0AC
:1008F0008E1CF00B10E00E0E046E00B849D00A0EEC
:10090000046E00BA45D0060E046E00BC41D0020E43
:10091000046E00BE3DD0FB0E846E8EEF04F090EFAF
:1009200004F092EF04F094EF04F08E1CF00B10E052
:100930000D0E046E00B82CD0090E046E00BA28D03B
:10094000050E046E00BC24D0010E046E00BE20D043
:10095000F70E846EABEF04F0ADEF04F0AFEF04F0F0
:10096000B1EF04F08E1CF00B10E00C0E046E00B81A
:100970000FD0080E046E00BA0BD0040E046E00BC3B
:1009800007D0000E046E00BE03D0046A489604D05F
:1009900048860E01C2990001F00E846E120048A430
:1009A0000ED0D46AD36AD696D684D682D6904880A2
:1009B00048921AC002F00E01C28B0001D58E1200BF
:1009C00048A0120048A212004890036A256A4B947E
:1009D0004B964B98086A4B9A476A4780000EF86E10
:1009E0008F0EF76E520EF66E3EEC06F00E01C29BB5
:1009F0000001D59E1200F00E841600000000D8EC15
:100A000005F08E1CF00BFBE1D8EC05F08E1CF00B12
:100A1000FBE112004A9EF00E841600000000320E28
:100A2000056ED8EC05F08E1CF00B08E0052EF9D70A
:100A30004FEC05F0070ED9EC05F04A8E1200180EA7
:100A40000FEC06F0200E0FEC06F012002C0E0FEC4F
:100A500006F0200E0FEC06F00EEC06F0120047BA7E
:100A60001DD047A410D00F50090A0DE104500B0A05
:100A700001E105D004500F0AD8A405D000D01952C6
:100A8000D8A40CD003D0196601D008D0000EF86E9F
:100A90008E0EF76EC00EF66E3EEC06F01200195286
:100AA0000BE0000EF86E8E0EF76ECE0EF66E3EEC7C
:100AB00006F0080ED9EC05F01200000EF86E8E0E4E
:100AC000F76EDC0EF66E3EEC06F0120048BC0AD063
:100AD00000D0000EF86E900EF76E140EF66E3EEC1F
:100AE00006F008D0000EF86E900EF76E1C0EF66E33
:100AF0003EEC06F0120048BC06D00401006BFA6B15
:100B0000FB6BFC6B05D00501006BFB6BFC6BFD6B9D
:100B10000001120048BC09D07B0E276E040114EEC0
:100B20007FF0E66A272EFDD708D07C0E276E0501E0
:100B300015EE7FF0E66A272EFDD7000112005490D3
:100B4000E8CF0AF22F0807E006E20AC2E8FF3B08F6
:100B500002E001E354800AC2E8FF120002010E51D4
:100B60000C5F0D51D8A00D3D0B5F0001120002017A
:100B70000C1F0B1F0C3D0B070B2B0C6F0B110001F7
:100B8000120003011151146FD89014371437142731
:100B9000143712511427136B000E106507D0D8902C
:100BA000640E1427D8B0132B1007F6D700011200DB
:100BB000010EE8CF05F3200EE8CF06F3DFEF05F0D6
:100BC000E1EF05F0E3EF05F0E5EF05F0E7EF05F005
:100BD0000000F50EE8CF07F30000000007C3E8FFB0
:100BE000E806E8CF07F3FAE1000006C3E8FFE806ED
:100BF000E8CF06F3EEE105C3E8FFE806E8CF05F32A
:100C000005E002EF06F004EF06F0D5D712000E6EF5
:100C10000FEC06F00EEC06F00E5012000D0E0D2E2D
:100C200003D08FB6FED70D86F29EF29C0A6E0C0E94
:100C30000B6E8590090E0C6E0B2E1CEF06F00C0E41
:100C40000B6E0C2E12D0000000000000000000000F
:100C5000000085800D0E0B6E0B2E2CEF06F00000B1
:100C6000F28EF28C0A320A50120000000A32D8A02A
:100C700003D000008580E0D78590DED70900F550CD
:100C8000D8B412008FB6FED70FEC06F0F7D7320EAD
:100C9000D9EC05F00EEC06F0230ED9EC05F01E0E93
:100CA0000FEC06F0010E0FEC06F0400E0FEC06F014
:100CB0000EEC06F0010E0FEC06F0330E0FEC06F012
:100CC0004B0E0FEC06F00EEC06F00EEC06F00FC02B
:100CD00026F0160E0F6E0F0648EC42F0D8EC05F029
:100CE0000F50F9E126C00FF0000EF86E8D0EF76E72
:100CF000380EF66E3EEC06F012001200E8CF15F347
:100D0000F00BE83895EC06F00FEC06F0200E0FEC37
:100D100006F015C3E8FF0F0B95EC06F00FEC06F09C
:100D20000EEC06F015C3E8FF1200016E000EFB6E1C
:100D30000D0EFA6E0144016E420E0124D8B0FA2A5B
:100D4000F96E300C310C320C330C340C350C360C83
:100D5000370C380C390C410C420C430C440C450C3C
:100D6000460C1200E8CF15F3CAEC06F0300F0FEC7A
:100D700006F015C3E8FFDFEC06F0300F0FEC06F0CD
:100D800015C3E8FFF5EC06F0300F0FEC06F015C3C5
:100D9000E8FF1200E8CF11F3000EE8CF12F312C300
:100DA000E8FFE82AE8CF12F311C3E8FF9C0FE8CF71
:100DB00011F3D8B0F4D712C3E8FFE8061200E8CF69
:100DC00011F3000EE8CF12F312C3E8FFE82AE8CFD0
:100DD00012F311C3E8FFF60FE8CF11F3D8B0F4D740
:100DE00012C3E8FFE806F5EF06F0E8CF12F312C3EE
:100DF000E8FFF60FE8CF12F3D8B0F9D712C3E8FF37
:100E00000A0F1200000EF86E910EF76E5A0EF66E73
:100E10003EEC06F01200330E0FEC06F00EEC06F07E
:100E2000640ED9EC05F0320E0FEC06F00EEC06F075
:100E3000640ED9EC05F0310E0FEC06F00EEC06F066
:100E4000640ED9EC05F0000EF86E900EF76E720E7F
:100E5000F66E3EEC06F0FA0ED9EC05F0FF0012003B
:100E60005488000EF86E900EF76E860EF66E3EEC0D
:100E700006F0CFEC04F01200000EF86E8E0EF76E46
:100E8000660EF66E3EEC06F01200000EF86E8E0E48
:100E9000F76E720EF66E3EEC06F012002CEC08F0C7
:100EA000D4EC08F04FA22BD009C715F608C716F6E8
:100EB00007C717F606C718F605C719F60601155134
:100EC0001A630ED016511B630BD017511C6308D048
:100ED00018511D6305D019511E6302D000010FD0B7
:100EE000000115C61AF616C61BF617C61CF618C65C
:100EF0001DF619C61EF61FEC05F0ADEC23F049985F
:100F000012004F9217EE00F0FA0E2C6EE6CF43F06F
:100F10004350B4EC02F04350FD0A0CE02C06D8A478
:100F2000F5D7000EF86E910EF76E980EF66E3EEC49
:100F300006F01BD0F0EC07F04CAE17D000C743F022
:100F4000B0C1E8FF43180DE101C743F0B1C1E8FFAC
:100F5000431807E102C743F0B3C1E8FF431801E1BA
:100F600003D047EC03F0E6D74F821200FBEC04F00D
:100F70004F9211EEB0F0200E2C6EE6CF43F04350AE
:100F8000B4EC02F04350FD0A0CE02C06D8A4F5D7CF
:100F9000000EF86E910EF76E980EF66E3EEC06F0AF
:100FA0001ED0F0EC07F04CAE1AD04FBEF1EC40F082
:100FB00000C743F0B0C1E8FF43180DE101C743F09B
:100FC000B1C1E8FF431807E102C743F0B3C1E8FF2E
:100FD000431801E103D047EC03F0E3D74F8212003E
:100FE000E6EC40F04C9E2C6A20503B6E2C6604D000
:100FF000E0EC04F048B615D052EC03F049BE09D03D
:1010000017EE00F02C5009C0E3FF2C2A0950FD0A0E
:1010100021E04DA0EBD73B06D8B40ED02AEC03F06C
:10102000E5D71FEC05F0000EF86E8F0EF76E520E2E
:10103000F66E3EEC06F00FD01FEC05F0000EF86ED9
:10104000900EF76E040EF66E3EEC06F020503B6EEE
:101050004D8001D04C8E12002AEC03F0D8EC05F044
:101060008AEC05F012002CEC08F046A0BFEC3BF037
:1010700046B0E8EC3BF04FA219D01EEC1FF046A2A0
:1010800003D08CEC40F012D0D4EC08F04FA20ED07C
:101090001FEC05F0ADEC23F01F5208E0DEEC08F089
:1010A0004FA204D000C63AF0C7EC24F02C6A12001C
:1010B0002CEC08F0D4EC08F04FA256D036EC1FF020
:1010C000FF0A46E0549C1FEC05F0ADEC23F01F52E4
:1010D0004BE0DEEC08F04FA247D000C63AF0C7EC78
:1010E00024F052A441D0D8EC05F06FEC1FF0070EAD
:1010F000E66ED20EE66EFD0EE66EB6EC07F04FA27F
:1011000033D01EEC1FF046B22DD036EC1FF0E85263
:10111000D8B4410ED8A4420E0FEC06F00EEC06F047
:10112000D8EC05F06FEC1FF00F0EE66EFD0EE66ECC
:10113000B6EC07F04FA218D036EC1FF0E85214E0DE
:10114000010A12E1530E0FEC06F00EEC06F00CD083
:10115000548C000EF86E950EF76E600EF66E3EEC37
:1011600006F002D095EC40F02C6A12002CEC08F04E
:10117000DEEC08F04FA206D000C63AF01FEC05F0F6
:1011800039EC25F02C6A12002CEC08F0DEEC08F0AB
:101190004FA208D000C622F601C623F61FEC05F0C8
:1011A000DEEC25F02C6A12006FEC1FF0030EE66EE9
:1011B000FD0EE66EB6EC07F02C6A12006FEC1FF025
:1011C000040EE66EFD0EE66EB6EC07F04FA208D0F8
:1011D0003FEC1FF0E8CF00F636EC1FF0E8CF01F649
:1011E0002C6A12002CEC08F06FEC1FF01A0EE66E61
:1011F000060EE66EFD0EE66EB6EC07F04FA250D07E
:101200003FEC1FF0E852D8A42AD02CEC08F06FEC89
:101210001FF01A0EE66E060E51B6040EE66E010EB3
:10122000E66E50B609D050BC07D050BE05D051BABA
:1012300003D001C6E8FFE66EFD0EE66EB6EC07F0E1
:101240004FA22ED01EEC1FF046B22AD0000EF86E30
:10125000930EF76E720EF66E3EEC06F021D02CEC7B
:1012600008F06FEC1FF01A0EE66E060E51B6040E73
:10127000E66E000EE66E50B608D050BC06D050BEEA
:1012800004D051BA02D0000EE66EFD0EE66EB6EC4A
:1012900007F04FA205D01EEC1FF046B201D000D0DF
:1012A0002C6A12002CEC08F0DEEC08F04FA229D0DA
:1012B00024C6E8FF120A02E000C63AF024C6E8FF9E
:1012C000150A02E001C623F60A0ED9EC05F06FEC10
:1012D0001FF0060EE66E3A50E66E060AD8A423C644
:1012E000E8FFD8B4010EE66EFD0EE66EB6EC07F030
:1012F0004FA207D01EEC1FF046B201D002D095ECF1
:1013000040F02C6A12002CEC08F0000EF86E960EDD
:10131000F76E4C0EF66E3EEC06F06FEC1FF0160EFC
:10132000E66E120EE66EFD0EE66EB6EC07F04FA20C
:101330007AD01EEC1FF046B274D006C7E8FF000A50
:101340002EE006C7E8FF010A2DE050B618D050BACB
:1013500016D050BC14D050BE12D006C7E8FF000A09
:1013600052BC32E051B20BD051B409D051B807D0C1
:1013700051BE05D052B403D052B801D009D006C72F
:10138000E8FF020A18E006C7E8FF030A1DE004D0E0
:1013900006C7E8FF020A18E0C2EC40F044D03CEC7B
:1013A00007F041D0000EF86E910EF76E300EF66E1B
:1013B0003EEC06F011D0000EF86E960EF76E540E4D
:1013C000F66E3EEC06F008D0000EF86E910EF76E49
:1013D0003E0EF66E3EEC06F00A0ED9EC05F06FEC10
:1013E0001FF01A0EE66E040EE66EFD0EE66EB6EC0B
:1013F00007F04FA218D01EEC1FF046B214D026EC16
:1014000005F006C7E8FFF00BE838300F0FEC06F0E8
:1014100006C7E8FF0F0B300F0FEC06F00EEC06F0DE
:1014200002D095EC40F02C6A12002CEC08F004502D
:10143000310A06E00450320A06E0030E006E05D0C1
:10144000010E006E02D0020E006E6FEC1FF0160E41
:10145000E66E120EE66E0050E66EFD0EE66EB6EC1F
:1014600007F04FA207D01EEC1FF046B203D083EC6A
:1014700009F000D0036A12002CEC08F0000EF86EA0
:10148000950EF76E000EF66E3EEC06F06FEC1FF058
:10149000150EE66E130EE66EFD0EE66EB6EC07F068
:1014A0004FA230D01EEC1FF046B22AD0000EE8CF7B
:1014B0000EF3E8CF0FF306C7E8FFE8CF10F307C736
:1014C000E8FFF00BE838E8CF11F307C7E8FF0F0B90
:1014D000E8CF12F3E5EC3EF014C3E8FFF3EC3FF085
:1014E000006E52A402D0D89000320050B2EC06F048
:1014F0001B5203E0250E0FEC06F00EEC06F002D0B6
:1015000095EC40F02C6A12002CEC08F0000EF86EFE
:10151000920EF76E8A0EF66E3EEC06F06FEC1FF040
:10152000120EE66EFD0EE66EB6EC07F04FA287D007
:1015300005C7E8FF000A0CE106C7E8FFFD0A3BE02B
:1015400006C7E8FF000A3BE006C7E8FF010A3BE0E8
:1015500005C7E8FF010A0CE106C7E8FFFD0A37E00E
:1015600006C7E8FF000A37E006C7E8FF010A37E0D0
:1015700005C7E8FF020A0CE106C7E8FFFD0A33E0F1
:1015800006C7E8FF000A33E006C7E8FF010A33E0B8
:1015900005C7E8FF030A0CE106C7E8FFFD0A2FE0D4
:1015A00006C7E8FF000A2FE006C7E8FF010A2FE0A0
:1015B00095EC40F044D0310E0FEC06F03ED0310EE9
:1015C0000FEC06F028D0310E0FEC06F02DD0320EC5
:1015D0000FEC06F032D0320E0FEC06F01CD0320EBB
:1015E0000FEC06F021D0330E0FEC06F026D0330EB0
:1015F0000FEC06F010D0330E0FEC06F015D0340EC1
:101600000FEC06F01AD0340E0FEC06F004D0340EB6
:101610000FEC06F009D0000EF86E960EF76E660E0F
:10162000F66E3EEC06F00BD0000EF86E960EF76EDE
:101630005A0EF66E3EEC06F002D00EEC06F02C6A66
:1016400012002CEC08F0000EF86E980EF76E140ED7
:10165000F66E3EEC06F06FEC1FF0160EE66E320EE4
:10166000E66EFD0EE66EB6EC07F04FA234D01EEC2F
:101670001FF046B22BD006C7E8FF000A0FE006C7EE
:10168000E8FF010A0EE006C7E8FF020A11E006C7FC
:10169000E8FF030A14E0C2EC40F01DD03CEC07F078
:1016A0001AD0000EF86E950EF76E700EF66E11D011
:1016B000000EF86E960EF76E540EF66E0AD0000EFF
:1016C000F86E950EF76E680EF66E03D095EC40F04E
:1016D00002D03EEC06F02C6A12002CEC08F0000E52
:1016E000F86E990EF76E7C0EF66E3EEC06F06FEC1F
:1016F0001FF01C0EE66E010EE66EFD0EE66EB6ECF9
:1017000007F04FA29CD71EEC1FF046B21ED036EC5D
:101710001FF0000A0BE036EC1FF0010A0AE036EC7D
:101720001FF0020A09E08CEC40F011D03CEC07F00D
:101730000ED045EC07F00BD0000EF86E990EF76E48
:101740008C0EF66E3EEC06F002D095EC40F02C6A62
:1017500012002CEC08F0000EF86E930EF76E2A0EB5
:10176000F66E3EEC06F06FEC1FF0110EE66EFD0E0D
:10177000E66EB6EC07F04FA21ED036EC1FF0000A62
:1017800007E036EC1FF0010A06E006EC40F00BD053
:101790003CEC07F010D04F0E0FEC06F06E0E0FEC85
:1017A00006F00D0E06D0440E0FEC06F0420E0FECC4
:1017B00006F00EEC06F02C6A12002CEC08F05EEC41
:1017C0000CF04FA279D0DEEC08F04FA275D000C625
:1017D00022F601C623F632EC0FF0B6EC07F04FA26A
:1017E0006BD01EEC1FF046B265D045C002F7E00E8C
:1017F000E8CF03F717EE08F015C6E6FF16C6E6FFBA
:1018000017C6E6FF18C6E6FF19C6E6FF22C6E6FFC2
:1018100023C6E6FF81EC07F04FA24ED01EEC1FF06E
:1018200046B248D02FEC0EF032EC0FF0B6EC07F0D9
:101830004FA242D01EEC1FF046B23CD00DC722F69C
:101840000EC723F60A0ED9EC05F06FEC1FF0050E5B
:10185000E66E08C7E8FFE66E09C7E8FFE66E0AC74E
:10186000E8FFE66E0BC7E8FFE66E0CC7E8FFE66E22
:10187000FD0EE66EB6EC07F04FA21ED01EEC1FF078
:1018800046B218D00A0ED9EC05F06FEC1FF0060E28
:10189000E66E22C6E8FFE66E23C6E8FFE66EFD0EA2
:1018A000E66EB6EC07F04FA207D01EEC1FF046B272
:1018B00001D002D095EC40F02C6A1200D4EC08F074
:1018C0004FA2CCD105C715F606C716F607C717F6FF
:1018D00008C718F609C719F609C7E8FFF00B100A80
:1018E000D8B451D109C7E8FF0F0BE8CF0EF308C7F2
:1018F000E8FFF00BE838E8CF0FF308C7E8FF0F0B5D
:10190000E8CF10F307C7E8FFF00BE838E8CF11F392
:1019100007C7E8FF0F0BE8CF12F34A9005C700F0A6
:1019200006C7E8FF0026D8B44A80E5EC3EF013C3B2
:101930000DF214C30EF2000EE8CF0BF2C80EE8CF82
:101940000CF20AEC3FF00CE2000EE8CF0BF2B40E02
:10195000E8CF0CF20AEC3FF0D8A05FD1010E5ED1C7
:10196000010EE8CF0BF29A0EE8CF0CF20AEC3FF032
:101970000CE2010EE8CF0BF2540EE8CF0CF20AECA9
:101980003FF0D8A04AD1020E49D1020EE8CF0BF2A7
:10199000EE0EE8CF0CF20AEC3FF00CE2020EE8CFBC
:1019A0000BF2B20EE8CF0CF20AEC3FF0D8A035D122
:1019B000030E34D1040EE8CF0BF21A0EE8CF0CF26E
:1019C0000AEC3FF00CE2030EE8CF0BF2DE0EE8CF9C
:1019D0000CF20AEC3FF0D8A020D1040E1FD1050E66
:1019E000E8CF0BF2AA0EE8CF0CF20AEC3FF00CE2C3
:1019F000050EE8CF0BF26E0EE8CF0CF20AEC3FF0CA
:101A0000D8A00BD1050E0AD1070EE8CF0BF23A0E83
:101A1000E8CF0CF20AEC3FF00CE2060EE8CF0BF236
:101A2000FE0EE8CF0CF20AEC3FF0D8A0F6D0060E7E
:101A3000F5D0080EE8CF0BF2660EE8CF0CF20AECF8
:101A40003FF00CE2080EE8CF0BF22A0EE8CF0CF2C2
:101A50000AEC3FF0D8A0E1D0070EE0D0090EE8CFA5
:101A60000BF2CE0EE8CF0CF20AEC3FF00CE2090EBE
:101A7000E8CF0BF2880EE8CF0CF20AEC3FF0D8A0CA
:101A8000CCD0080ECBD00B0EE8CF0BF2B80EE8CFBF
:101A90000CF20AEC3FF00DE00FE20A0EE8CF0BF279
:101AA000F00EE8CF0CF20AEC3FF0D8A0B6D0090E49
:101AB000B5D04AA001D0FBD7150EE8CF0BF2180E17
:101AC000E8CF0CF20AEC3FF00DE00FE2130EE8CF86
:101AD0000BF2880EE8CF0CF20AEC3FF0D8A09DD0B4
:101AE000100E9CD04AA001D0FBD7390EE8CF0BF2E4
:101AF000D00EE8CF0CF252A806D0430EE8CF0BF27E
:101B0000F80EE8CF0CF20AEC3FF017E019E2380EBD
:101B1000E8CF0BF2400EE8CF0CF252A806D02A0E06
:101B2000E8CF0BF2300EE8CF0CF20AEC3FF0D8A071
:101B300074D0110E52BA010E71D04AA001D0F9D75B
:101B4000AF0EE8CF0BF2C80EE8CF0CF252A806D0C9
:101B5000BB0EE8CF0BF2800EE8CF0CF20AEC3FF0A0
:101B60000FE05BE2A40EE8CF0BF2100EE8CF0CF210
:101B70000AEC3FF0D8A051D0120E52BA020E4ED04D
:101B80004AA001D0F9D752BA02D052A846D0000ECE
:101B9000E8CF0EF309C7E8FFF00BE838E8CF0FF302
:101BA00009C7E8FF0F0BE8CF10F308C7E8FFF00BF9
:101BB000E838E8CF11F308C7E8FF0F0BE8CF12F3BE
:101BC0004A9005C700F006C7E8FF002607C7E8FFF0
:101BD0000026D8B44A80E5EC3EF013C30DF214C3DE
:101BE0000EF2050EE8CF0BF2280E52BA140EE8CF13
:101BF0000CF20AEC3FF00EE010E2040EE8CF0BF21C
:101C0000D80EE8CF0CF20AEC3FF007E3130E52BAFD
:101C1000030E04D04AA001D0F9D7000EE8CF39F660
:101C2000E8661CD0110EE8CF39F6560E45180BE0C9
:101C300050B609D051BA07D051B209D051B407D02B
:101C400052B809D00BD0120EE8CF39F607D0130ED8
:101C5000E8CF39F603D0140EE8CF39F61200000EA3
:101C600004180BE1010E006E000EF86E940EF76E74
:101C7000940EF66E52BAC1D0EED0010E04180BE1EC
:101C8000020E006E000EF86E940EF76E9A0EF66E4F
:101C900052BADAD0E0D0020E041811E1030E006E41
:101CA000000EF86E940EF76EA60EF66E52AAD3D002
:101CB000000EF86E940EF76EF00EF66ECCD0040E99
:101CC000041809E1040E006E000EF86E940EF76E13
:101CD000AC0EF66EC0D0050E041809E1050E006EBC
:101CE000000EF86E940EF76EB20EF66EB4D0060EBD
:101CF000041809E1060E006E000EF86E940EF76EE1
:101D0000B80EF66EA8D0080E041809E1070E006E92
:101D1000000EF86E940EF76EBE0EF66E9CD0090E95
:101D2000041809E1080E006E000EF86E940EF76EAE
:101D3000C40EF66E90D00A0E041809E1090E006E6A
:101D4000000EF86E940EF76ECA0EF66E84D00D0E6D
:101D5000041814E1100E006E000EF86E940EF76E6B
:101D6000D00EF66E51B201D076D0110E006E000E7C
:101D7000F86E940EF76ED40EF66E6DD00C0E04183D
:101D800023E1110E006E000EF86E940EF76EFA0E3F
:101D9000F66E50B610D051B205D051B40FD052B833
:101DA00010D059D0100E006E000EF86E940EF76E23
:101DB000D00EF66E50D0120E006E4DD0130E006E87
:101DC0004AD0140E006E47D00E0E04181DE1110EFD
:101DD000006E000EF86E940EF76ED40EF66E51B2D1
:101DE00003D052B80AD00FD0120E006E000EF86E5B
:101DF000940EF76EE00EF66E2ED0000EF86E940E76
:101E0000F76ED80EF66E27D00B0E04180BE1000EFD
:101E1000F86E940EF76EF00EF66E52B800D0130EF8
:101E2000006E19D00F0E04181CE1000EF86E940E0F
:101E3000F76EE00EF66E51B402D052B803D0120E17
:101E4000006E09D0120E006E000EF86E940EF76E42
:101E5000E80EF66E00D000C039F61B52D8A43EEC56
:101E600006F012006FEC1FF01A0EE66E010EE66E21
:101E700039C6E8FFE66E010EE66EFD0EE66E120054
:101E8000549050B01DD050B61BD050BA19D050BC91
:101E900017D050BE15D051B213D051B411D051B695
:101EA0000FD051B80DD051BA0BD051BC09D052B29D
:101EB00007D052B405D052B803D052BA01D001D0E5
:101EC000548012002CEC08F0000EF86E920EF76EA3
:101ED000A00EF66E3EEC06F06FEC1FF0160EE66EEE
:101EE000440EE66EFD0EE66EB6EC07F04FA22FD064
:101EF00036EC1FF0000A07E036EC1FF0010A06E09E
:101F0000C2EC40F024D03CEC07F021D06FEC1FF085
:101F10007AEC1FF0FD0EE66EB6EC07F04FA217D07C
:101F20001EEC1FF046B211D034C6E8FF010A03E1EF
:101F300016EC40F00CD034C6E8FF020A03E135ECA1
:101F400040F005D006EC40F002D045EC07F02C6ADA
:101F500012002CEC08F0000EF86E920EF76EA00E38
:101F6000F66E3EEC06F06FEC1FF0150EE66E140EEA
:101F7000E66EFD0EE66EB6EC07F04FA22FD01EEC1B
:101F80001FF046B229D0000EE8CF0EF3E8CF0FF3D2
:101F900006C7E8FFE8CF10F307C7E8FFF00BE83803
:101FA000E8CF11F307C7E8FF0F0BE8CF12F3E5EC1A
:101FB0003EF014C3E8FFD890E832D890E832D890C9
:101FC000E832B2EC06F0440E0FEC06F0420E0FECD5
:101FD00006F00EEC06F002D095EC40F02C6A1200F0
:101FE0002CEC08F06FEC1FF0150EE66E150EE66E89
:101FF000FD0EE66EB6EC07F04FA2A0D11EEC1FF06E
:1020000046B29AD1000EE8CF0EF3E8CF0FF306C721
:10201000E8FFE8CF10F307C7E8FFF00BE838E8CF98
:1020200011F307C7E8FF0F0BE8CF12F3E5EC3EF022
:1020300051BE6ED0548014C300F000504C0FD8B085
:1020400003D05490E81EE82A276E0301136B146B2B
:10205000275206E00D0E1427D8B0132B272EFAD7DF
:10206000120EE8CF09F3C00EE8CF08F354A009D050
:1020700008C3E8FF1427D8B0132B09C3E8FF1327C0
:102080000ED009C30BF208C30CF213C30DF214C334
:102090000EF2AEEC05F00BC213F30CC214F3000108
:1020A000000EE8CF0AF313C309F314C308F3640E58
:1020B000E8CF0BF312EC3FF052B405D008C3E8FFB1
:1020C000E10FE8CF08F308C3E8FFCAEC06F0300FD1
:1020D0000FEC06F008C3E8FFDFEC06F0300F0FEC62
:1020E00006F008C3E8FFF5EC06F0300F0FEC06F041
:1020F0002E0E0FEC06F00CC3E8FFDFEC06F0300FFD
:102100000FEC06F0560E0FEC06F00EEC06F054D075
:1021100014C327F0980E276030D0000EE8CF0AF3E2
:10212000E8CF09F314C308F30F0EE8CF0BF312EC5A
:102130003FF008C3E8FFDFEC06F0300F0FEC06F0CD
:1021400008C3E8FFF5EC06F0300F0FEC06F02E0E9A
:102150000FEC06F0030E276E0CC3E8FF006ED8905C
:102160000032D89000320026272EFAD70030300FE8
:102170000FEC06F00EEC06F01FD0640E006E970E0A
:10218000275E010E0026272EFCD70050CAEC06F071
:10219000300F0FEC06F00050DFEC06F0300F0FECC4
:1021A00006F02E0E0FEC06F00050F5EC06F0300FA6
:1021B0000FEC06F00EEC06F026EC05F06FEC1FF0CD
:1021C000150EE66E160EE66EFD0EE66EB6EC07F028
:1021D0004FA2B4D01EEC1FF046B2AED0000EE8CF36
:1021E0000EF3E8CF0FF306C7E8FFE8CF10F307C7F9
:1021F000E8FFF00BE838E8CF11F307C7E8FF0F0B53
:10220000E8CF12F3E5EC3EF051BE43D014C300F02A
:10221000190E006421D0002A320E00641DD0002A5D
:102220004B0E006419D0002A780E006415D0002AE5
:10223000A10E006411D0002AB10E00640DD0002A56
:10224000C10E006409D0002AD10E006405D0002A16
:10225000E10E006401D0002A0050CAEC06F0300FF5
:102260000FEC06F000C0E8FFDFEC06F0300F0FECDB
:1022700006F02E0E0FEC06F000C0E8FFF5EC06F0BD
:10228000300F0FEC06F0410E0FEC06F00EEC06F0EE
:1022900055D0016A006A14C327F0A60E27601BD030
:1022A0004E0E276009D0275224E0820E0026D8B0B7
:1022B000012A272EFAD71DD0270E016E100E006EB0
:1022C00014C327F0B30E2726730E0026D8B0012AB8
:1022D000272EFAD70ED04E0E016E200E006E14C3BC
:1022E00027F05B0E2726850E0026D8B0012A272E60
:1022F000FAD701C013F300C014F354EC40F00EC33E
:10230000E8FF300F0FEC06F00FC3E8FF300F0FECC3
:1023100006F02E0E0FEC06F010C3E8FF300F0FECA6
:1023200006F011C3E8FF300F0FEC06F0410E0FEC82
:1023300006F00EEC06F002D095EC40F02C6A12008C
:102340002CEC08F0000EF86E980EF76E4C0EF66E40
:102350003EEC06F06FEC1FF0070EE66E51A003D0C6
:10236000C00EE66E04D0C20EE66E000EE66EFD0EE6
:10237000E66EB6EC07F04FA209D01EEC1FF046B295
:1023800003D03CEC07F002D095EC40F02C6A120030
:102390002CEC08F0000EF86E980EF76E4C0EF66EF0
:1023A0003EEC06F06FEC1FF0070EE66E51A003D076
:1023B000C10EE66E04D0C20EE66E010EE66EFD0E94
:1023C000E66EB6EC07F04FA209D01EEC1FF046B245
:1023D00003D045EC07F002D095EC40F02C6A1200D7
:1023E0002CEC08F0000EF86E960EF76EB20EF66E3C
:1023F0003EEC06F03AC600F0020E006403D0006A1C
:1024000000C03AF60050020A1FE00050010A0BE03B
:102410003CEC07F06FEC1FF00F0EE66E100EE66E50
:10242000FD0EE66E22D0000EF86E950EF76E0E0EC3
:10243000F66E3EEC06F06FEC1FF00F0EE66E110E1E
:10244000E66EFD0EE66E11D0000EF86E950EF76E7C
:10245000080EF66E3EEC06F06FEC1FF00F0EE66E07
:10246000120EE66EFD0EE66E00D0B6EC07F04FA23F
:1024700012D01EEC1FF046B20CD0050ED9EC05F0C0
:1024800026EC05F03AC600F00052D8A450EC16F045
:1024900002D095EC40F03AC6E8FFE82AE8CF3AF6D9
:1024A0002C6A12002CEC08F00450320A09E0000EED
:1024B000006E000EF86E980EF76E000EF66E0ED0DF
:1024C000010E006E030E50BC006E030E50BE006E77
:1024D000000EF86E980EF76E080EF66E3EEC06F0E3
:1024E0006FEC1FF089EC1FF00050E66EFD0EE66EFB
:1024F000B6EC07F04FA207D01EEC1FF046B201D099
:1025000002D095EC40F012002CEC08F0000EF86EB2
:10251000920EF76EC40EF66E3EEC06F06FEC1FF0F6
:102520001A0EE66E030E51B6020EE66E24C6E8FFE2
:10253000140A03E133C6E8FFE66EFD0EE66EB6EC64
:1025400007F04FA293D01EEC1FF046B28DD024C6E8
:10255000E8FF140A03E1E8CF24F6E0D7006A06C7D3
:10256000E8FFE85013E0F00B07E0276E273AE86A2F
:102570000A0F272EFDD7006E06C7E8FF0F0B06E0F7
:10258000276EE86A010F272EFDD7002600C038F617
:10259000050ED9EC05F0DEEC08F04FA25CD000C6C9
:1025A000E8FF020A19E0000EE8CF13F3320EE8CF7D
:1025B00014F338C627F0275222E0006A2750F60F9E
:1025C000D8A0320ED8B0640E03011427D8B0132B54
:1025D0000001272EF3D713D0000EE8CF13F3C80E57
:1025E000E8CF14F338C627F0275209E0006AC80E76
:1025F00003011427D8B0132B0001272EF8D754EC71
:1026000040F00EC3E8FF300F0FEC06F00FC3E8FFF9
:10261000300F0FEC06F010C3E8FF300F0FEC06F0A0
:1026200011C3E8FF300F0FEC06F012C3E8FF300FC4
:102630000FEC06F01B5209E0200E0FEC06F0480EDE
:102640000FEC06F07A0E0FEC06F00EEC06F00ED052
:102650000EEC06F00BD0000EF86E8F0EF76EEE0E3D
:10266000F66E3EEC06F002D095EC40F02C6A1200BB
:102670002CEC08F0000EF86E920EF76EDE0EF66E81
:102680003EEC06F06FEC1FF0140EE66E0C0EE66EDC
:10269000FD0EE66EB6EC07F04FA210D01EEC1FF058
:1026A00046B20AD035EC40F01B5203E0250E0FEC89
:1026B00006F00EEC06F002D095EC40F02C6A120009
:1026C00051B4250E51B8450E51BE510E52BA590E95
:1026D000426E33C6E8FF010A07E033C6E8FF020A8C
:1026E0000DE0000E006E15D0006AB2EC13F04FA2A0
:1026F00023D0010E006E9DEC13F01ED0010E006E73
:10270000B2EC13F04FA218D0010E006E9DEC13F046
:1027100013D0006AB2EC13F04FA20ED0006A9DEC09
:1027200013F04FA209D0010E006EB2EC13F04FA2CD
:1027300003D0006A9DEC13F01200050ED9EC05F0F1
:102740002CEC08F06FEC1FF0160EE66E500EE66EE5
:102750000050FF0A02E00050E66EFD0EE66EB6EC99
:1027600007F01200050ED9EC05F02CEC08F06FEC28
:102770001FF01A0EE66E050EE66E000EE66E425073
:10278000E66E0050FF0A02E00050E66EFD0EE66EB7
:10279000B6EC07F0120033C6E8FF010A0DE033C6BD
:1027A000E8FF020A09E0000EF86E990EF76EAA0E15
:1027B000F66E3EEC06F01AD00068B2EC13F04FA2B1
:1027C00029D036EC1FF0010A09E0000EF86E990ED0
:1027D000F76EB00EF66E3EEC06F008D0000EF86E06
:1027E000990EF76EB60EF66E3EEC06F000689DECA4
:1027F00013F04FA2A1D736EC1FF0010A03E03CEC26
:1028000007F008D0000EF86E990EF76EBE0EF66E49
:102810003EEC06F012002CEC08F0000EF86E990E5B
:10282000F76E940EF66E3EEC06F054AE38D06FECB8
:102830001FF00E0EE66E000EE66EFD0EE66EB6ECB6
:1028400007F04FA253D01EEC1FF046B24DD0140E2D
:10285000D9EC05F06FEC1FF06FEC1FF00A0EE66E7E
:10286000FD0EE66EB6EC07F04FA240D01EEC1FF056
:1028700046B23AD0140ED9EC05F06FEC1FF0070EFB
:10288000E66EFD0EE66EB6EC07F04FA22FD01EEC02
:102890001FF046B229D0549E3CEC07F027D06FECD5
:1028A0001FF0080EE66EFD0EE66EB6EC07F04FA2C6
:1028B0001DD01EEC1FF046B217D0140ED9EC05F057
:1028C0006FEC1FF00E0EE66E220EE66EFD0EE66E4B
:1028D000B6EC07F04FA20AD01EEC1FF046B204D0AF
:1028E000548E45EC07F002D095EC40F02C6A1200B3
:1028F0002CEC08F0000EF86E920EF76ED20EF66E0B
:102900003EEC06F06FEC1FF0140EE66E0B0EE66E5A
:10291000FD0EE66EB6EC07F04FA210D01EEC1FF0D5
:1029200046B20AD035EC40F01B5203E0250E0FEC06
:1029300006F00EEC06F002D095EC40F02C6A120086
:102940002CEC08F0000EF86E920EF76EEC0EF66EA0
:102950003EEC06F06FEC1FF0160EE66E450EE66ECE
:10296000FD0EE66EB6EC07F04FA230D01EEC1FF065
:1029700046B226D036EC1FF0000A07E036EC1FF016
:10298000010A06E0C2EC40F021D03CEC07F01ED07A
:102990006FEC1FF0A8EC1FF0FD0EE66EB6EC07F032
:1029A0004FA214D01EEC1FF046B20DD035EC40F013
:1029B0001B5203E0250E0FEC06F00EEC06F006D0DD
:1029C00095EC40F003D045EC07F000D02C6A1200E3
:1029D0002CEC08F0000EF86E930EF76E0E0EF66EED
:1029E0003EEC06F06FEC1FF0160EE66E220EE66E61
:1029F000FD0EE66EB6EC07F04FA229D036EC1FF0C4
:102A0000000A07E036EC1FF0010A06E0C2EC40F0D5
:102A10001ED03CEC07F01BD06FEC1FF0CDEC1FF08C
:102A2000FD0EE66EB6EC07F04FA211D01EEC1FF0C3
:102A300046B20AD035EC40F01B5203E0250E0FECF5
:102A400006F00EEC06F003D045EC07F000D02C6A3F
:102A500012002CEC08F0000EF86E930EF76ED40EF8
:102A6000F66E3EEC06F06FEC1FF0160EE66E410EB1
:102A7000E66EFD0EE66EB6EC07F04FA299D01EECA6
:102A80001FF046B28DD036EC1FF0000A10E036EC95
:102A90001FF0010A03E0C2EC40F009D0000EF86E0E
:102AA000910EF76E280EF66E3EEC06F07CD06FECC1
:102AB0001FF0160EE66E480EE66EFD0EE66EB6ECE4
:102AC00007F04FA275D036EC1FF0000A07E036EC95
:102AD0001FF0010A06E0C2EC40F06AD03CEC07F0BF
:102AE00067D0000EF86E930EF76EFA0EF66E3EEC9F
:102AF00006F00A0ED9EC05F06FEC1FF0140EE66E2E
:102B00000D0EE66EFD0EE66EB6EC07F04FA250D04D
:102B10001EEC1FF046B247D035EC40F01B5203E0EC
:102B2000250E0FEC06F00EEC06F00A0ED9EC05F0BF
:102B30006FEC1FF051A604D01A0EE66E060E03D0FD
:102B4000160EE66E570EE66EFD0EE66EB6EC07F05C
:102B50004FA22ED01EEC1FF046B225D006C7E8FFCC
:102B6000000A09E006C7E8FF010A0CE006C7E8FF13
:102B7000020A0FE015D0000EF86E950EF76E700E7B
:102B8000F66E14D0000EF86E960EF76E540EF66EBA
:102B90000DD0000EF86E950EF76E680EF66E06D02C
:102BA00095EC40F005D045EC07F002D03EEC06F085
:102BB0002C6A12002CEC08F00450310A06E0045094
:102BC000320A06E0020E006E05D0000E006E02D042
:102BD000010E006E6FEC1FF051A604D01A0EE66EC7
:102BE000060E03D0160EE66E570EE66E0050E66E29
:102BF000FD0EE66EB6EC07F04FA207D01EEC1FF0FC
:102C000046B203D029EC15F000D0036A12002CEC78
:102C100008F0000EF86E930EF76EC20EF66E3EECE4
:102C200006F06FEC1FF0160EE66E400EE66EFD0E1F
:102C3000E66EB6EC07F04FA231D01EEC1FF046B2A4
:102C400028D036EC1FF0000A07E036EC1FF0010A2E
:102C500006E0C2EC40F022D03CEC07F01FD06FEC55
:102C60001FF0140EE66E060EE66EFD0EE66EB6EC76
:102C700007F04FA213D01EEC1FF046B20DD035EC7A
:102C800040F01B5203E0250E0FEC06F00EEC06F0B0
:102C900005D095EC40F002D045EC07F02C6A12000C
:102CA0002CEC08F0000EF86E990EF76EA20EF66E80
:102CB0003EEC06F06FEC1FF00C0EE66EFD0EE66EBD
:102CC000B6EC07F04FA209D01EEC1FF046B203D0BD
:102CD0007CEC24F002D095EC40F02C6A12002CEC35
:102CE00008F06FEC1FF00D0EE66E33C1E8FFD00F59
:102CF000E838E66E31C1E8FFD00FE838006E32C127
:102D0000E8FFD00F0024E66E30C1E8FFD00FE66E7A
:102D1000FD0EE66EB6EC07F04FA207D01EEC1FF0DA
:102D200046B201D002D095EC40F02C6A12002CEC97
:102D300008F0000EF86E920EF76EFC0EF66E3EEC8A
:102D400006F06FEC1FF0160EE66E020EE66EFD0E3C
:102D5000E66EB6EC07F04FA202D051EC1FF02C6AE1
:102D600012002CEC08F00450310A06E00450320A3C
:102D700006E0000E006E05D0010E006E02D0020EBD
:102D8000006E6FEC1FF0160EE66E020EE66E00503F
:102D9000E66EFD0EE66EB6EC07F04FA209D01EEC13
:102DA0001FF046B203D097EC16F002D095EC40F03D
:102DB00012002CEC08F0000EF86E930EF76E060E63
:102DC000F66E3EEC06F06FEC1FF0140EE66E0A0E87
:102DD000E66EFD0EE66EB6EC07F04FA210D01EECCC
:102DE0001FF046B20AD035EC40F01B5203E0250E2E
:102DF0000FEC06F00EEC06F002D095EC40F02C6AD9
:102E000012002CEC08F0000EF86E960EF76ECE0E47
:102E1000F66E3EEC06F06FEC1FF002EC20F0FD0EBB
:102E2000E66EB6EC07F04FA246D01EEC1FF046B29D
:102E30003BD026EC05F036EC1FF0006E000E0018BB
:102E400009E0010E001807E0020E001809E0C2ECCC
:102E500040F031D008D050B80DD051B00BD00AD0CE
:102E600050B80FD00ED0000EF86E910EF76E280EEF
:102E7000F66E17D0000EF86E960EF76EDE0EF66E3A
:102E800010D0520E0FEC06F0460E0FEC06F02B0E93
:102E90000FEC06F0000EF86E960EF76EDE0EF66E74
:102EA00000D03EEC06F007D051A003D0B9EC40F0C2
:102EB00002D095EC40F02C6A12002CEC08F06FEC7C
:102EC0001FF0160EE66E550EE66EFD0EE66EB6ECC3
:102ED00007F04FA242D01EEC1FF046B238D0000ED1
:102EE000F86E980EF76E1C0EF66E3EEC06F006C7F6
:102EF000E8FF000A52B81DE011E006C7E8FF010A2A
:102F000014E006C7E8FF020A52B808E012E006C75C
:102F1000E8FF030A12E0C2EC40F01FD0310E0FECC4
:102F200006F0350E0FEC06F013D0360E0FEC06F05F
:102F30000FD0330E0FEC06F00BD0310E0FEC06F075
:102F40002E0E0FEC06F0320E0FEC06F001D005D07D
:102F50004B0E0FEC06F00EEC06F02C6A12002CEC77
:102F600008F0000EF86E930EF76E480EF66E3EEC0B
:102F700006F06FEC1FF00F0EE66E000E46BA010E63
:102F8000E66EFD0EE66EB6EC07F04FA20ED01EEC1C
:102F90001FF046B208D046AA03D045EC07F005D092
:102FA0003CEC07F002D095EC40F0467A2C6A120017
:102FB0002CEC08F0530E0FEC06F06FEC1FF0150E22
:102FC000E66E020EE66EFD0EE66EB6EC07F04FA260
:102FD00069D1000EE8CF0EF3E8CF0FF33FEC1FF0FE
:102FE000E8CF10F336EC1FF0F00BE838E8CF11F320
:102FF00036EC1FF00F0BE8CF12F3E5EC3EF014C3F4
:1030000000F050B249D050B492EF18F0070E0064AF
:10301000CFD0150E0064D0D0240E0064D1D0300E75
:103020000064D2D03D0E0064D3D04A0E0064D4D0E8
:10303000570E0064D5D0640E0064D6D0720E0064C2
:10304000D7D0860E0064D8D0390E0FEC06F02B0EC8
:103050000FEC06F08F0E0064D3D0960E0064D4D02F
:10306000A00E0064D8D0A90E0064DCD0B40E0064B9
:10307000E0D0BF0E0064E4D0C90E0064E8D0D30EE7
:103080000064ECD0DD0E0064F0D0E70E0064F4D0F4
:10309000F20E0064F8D0FED0350E006489D0400EE8
:1030A00000648AD04B0E00648BD0530E00648CD029
:1030B0005C0E00648DD0660E00648ED0720E0064CB
:1030C0008FD07B0E006490D0830E006491D08A0E66
:1030D000006492D0390E0FEC06F02B0E0FEC06F0C8
:1030E000910E00648DD0970E00648ED09E0E006409
:1030F00092D0A40E006496D0AA0E00649AD0AF0EAF
:1031000000649ED0B50E0064A2D0BB0E0064A6D0B1
:10311000C10E0064AAD0C60E0064AED0CD0E00640D
:10312000B2D0B8D0200E006443D02D0E006444D03D
:103130003B0E006445D0490E006446D0540E006436
:1031400047D05F0E006448D0680E006449D0770E07
:1031500000644AD0840E00644BD08A0E00644CD0C8
:10316000390E0FEC06F02B0E0FEC06F0910E0064FA
:1031700047D0990E006448D0A20E00644CD0AA0E2D
:10318000006450D0B20E006454D0BB0E006458D01E
:10319000C50E00645CD0CD0E006460D0D60E006415
:1031A00064D0DE0E006468D0E70E00646CD072D08C
:1031B000300E0FEC06F074D0310E0FEC06F070D02C
:1031C000320E0FEC06F06CD0330E0FEC06F068D028
:1031D000340E0FEC06F064D0350E0FEC06F060D024
:1031E000360E0FEC06F05CD0370E0FEC06F058D020
:1031F000380E0FEC06F054D0390E0FEC06F050D01C
:10320000350E0FEC06F04CD0310E0FEC06F0300E00
:103210000FEC06F045D0310E0FEC06F0350E0FEC3A
:1032200006F03ED0320E0FEC06F0300E0FEC06F03A
:1032300037D0320E0FEC06F0350E0FEC06F030D022
:10324000330E0FEC06F0300E0FEC06F029D0330EE3
:103250000FEC06F0350E0FEC06F022D0340E0FEC1A
:1032600006F0300E0FEC06F01BD0340E0FEC06F01B
:10327000350E0FEC06F014D0350E0FEC06F0300EC4
:103280000FEC06F00DD0350E0FEC06F0350E0FECFE
:1032900006F006D0360E0FEC06F0300E0FEC06F0FE
:1032A0000EEC06F02C6A12002CEC08F0000EF86E02
:1032B000930EF76E060EF66E3EEC06F06FEC1FF006
:1032C000150EE66E110EE66EFD0EE66EB6EC07F01C
:1032D0004FA210D01EEC1FF046B20AD035EC40F0E1
:1032E0001B5203E0250E0FEC06F00EEC06F002D0A8
:1032F00095EC40F02C6A12002CEC08F0000EF86EF1
:10330000980EF76E3E0EF66E3EEC06F051BE03D000
:1033100052B401D038D06FEC1FF01A0EE66E050ED5
:10332000E66E000EE66E130EE66EFD0EE66EB6EC71
:1033300007F04FA228D0420E0FEC06F0200E0FEC43
:1033400006F036EC1FF0C7EC19F00A0ED9EC05F0C8
:103350006FEC1FF01A0EE66E050EE66E000EE66EBE
:10336000140EE66EFD0EE66EB6EC07F04FA20BD023
:10337000540E0FEC06F0200E0FEC06F036EC1FF0AA
:10338000C7EC19F002D095EC40F02C6A1200006EE8
:10339000000A21E00050010A25E00050020A29E05D
:1033A0000050030A2DE00050040A31E00050050AE5
:1033B00035E00050060A36E00050070A3AE00050B7
:1033C000080A3EE00050090A42E000500A0A46E0BE
:1033D000C2EC40F04BD02D0E0FEC06F0350E0FEC8A
:1033E00006F042D02D0E0FEC06F0340E0FEC06F076
:1033F0003BD02D0E0FEC06F0330E0FEC06F034D060
:103400002D0E0FEC06F0320E0FEC06F02DD02D0E27
:103410000FEC06F0310E0FEC06F026D0300E0FEC5C
:1034200006F022D02B0E0FEC06F0310E0FEC06F05A
:103430001BD02B0E0FEC06F0320E0FEC06F014D062
:103440002B0E0FEC06F0330E0FEC06F00DD02B0E0A
:103450000FEC06F0340E0FEC06F006D02B0E0FEC3E
:1034600006F0350E0FEC06F00EEC06F012004FB42D
:10347000E6EC40F02CEC08F0000EF86E910EF76EC2
:10348000500EF66E3EEC06F050B297EF1BF050B4C3
:1034900097EF1BF06FEC1FF0140EE66E0A0EE66E4F
:1034A000FD0EE66EB6EC07F04FA244D106C71FF63C
:1034B00007C720F6050ED9EC05F06FEC1FF01C0EC7
:1034C000E66E010EE66EFD0EE66EB6EC07F04FA25C
:1034D00031D104C721F604C7E8FFFA0A02E006C7A3
:1034E00021F6050ED9EC05F0DEEC08F04FA222D152
:1034F00000C622F601C623F6050ED9EC05F06FECE6
:103500001FF01C0EE66E010EE66E000EE66EFD0E5E
:10351000E66EB6EC07F04FA20DD1050ED9EC05F022
:103520006FEC1FF0140EE66E0A0EE66E50A005D08A
:10353000010EE66E7F0EE66E04D0000EE66E260EDD
:10354000E66EFD0EE66EB6EC07F04FA2F3D0050E68
:10355000D9EC05F06FEC1FF01C0EE66E000EE66E67
:10356000010EE66EFD0EE66EB6EC07F04FA2E2D05D
:10357000050ED9EC05F06FEC1FF0060EE66E050E99
:10358000E66E020EE66EFD0EE66EB6EC07F04FA29A
:10359000D1D0320ED9EC05F04FA40CD0000EF86E4D
:1035A000990EF76E640EF66E3EEC06F0D8EC05F060
:1035B00048A6FCD76FEC1FF0150EE66E120EE66EF5
:1035C000FD0EE66EB6EC07F04FA2B4D0000EE8CFC9
:1035D0000EF3E8CF0FF306C7E8FFE8CF10F307C7F5
:1035E000E8FFF00BE838E8CF11F307C7E8FF0F0B4F
:1035F000E8CF12F3E5EC3EF014C3E8FFF3EC3FF044
:10360000E8CF14F314C3E8FF640FE8CF13F3640E9C
:10361000006E14C3E8FFD890005CE8CF14F3000EEE
:10362000E8CF0AF3E8CF09F313C308F314C30BF38D
:1036300012EC3FF008C3E8FFDFEC06F0300F0FECB0
:1036400006F008C3E8FFF5EC06F0300F0FEC06F0CB
:103650002E0E0FEC06F00CC3E8FFF5EC06F0300F71
:103660000FEC06F01B5209E0540E0FEC06F06F0E43
:103670000FEC06F0310E0FEC06F00EEC06F00A0E21
:10368000D9EC05F06FEC1FF01C0EE66E000EE66E36
:10369000000EE66EFD0EE66EB6EC07F04FA24AD0C5
:1036A000140ED9EC05F06FEC1FF01C0EE66E000E48
:1036B000E66E000EE66EFD0EE66EB6EC07F04FA26B
:1036C00039D00A0ED9EC05F06FEC1FF0140EE66E3F
:1036D0000A0EE66E1FC6E6FF20C6E6FFFD0EE66E8A
:1036E000B6EC07F04FA226D00A0ED9EC05F06FEC2D
:1036F0001FF01C0EE66E010EE66E21C6E6FFFD0E03
:10370000E66EB6EC07F04FA215D0140ED9EC05F01A
:103710006FEC1FF0060EE66E22C6E6FF23C6E6FF3C
:10372000FD0EE66EB6EC07F04FA204D00BD095EC80
:1037300040F008D0000EF86E8F0EF76EEE0EF66EAB
:103740003EEC06F01200000EF86E980EF76E2C0E8E
:10375000F66E3EEC06F06FEC1FF043EC20F0FD0E31
:10376000E66EB6EC07F04FA232D01EEC1FF046B268
:103770002CD026EC05F036EC1FF0000A0BE036ECFE
:103780001FF0010A10E036EC1FF0020A15E0C2EC4F
:1037900040F01DD0000EF86E950EF76E700EF66EAE
:1037A0003EEC06F014D0000EF86E960EF76E540E36
:1037B000F66E3EEC06F00BD0000EF86E950EF76E2E
:1037C000680EF66E3EEC06F002D095EC40F02C6AE6
:1037D00012002CEC08F0000EF86E980EF76E0E0E2C
:1037E000F66E3EEC06F06FEC1FF01A0EE66E6EEC15
:1037F00020F0FD0EE66EB6EC07F04FA22CD01EECCA
:103800001FF046B226D03FEC1FF0006EF00BE838F8
:10381000300F0FEC06F000500F0B300F0FEC06F0DE
:10382000200E0FEC06F036EC1FF0006EF00BE838BF
:10383000300F0FEC06F00050F00B200ED8B40FEC58
:1038400006F000500F0B300F0FEC06F00EEC06F0F8
:1038500002D095EC40F02C6A12002CEC08F06FECD2
:103860001FF01A0EE66E6EEC20F030C1E8FFD00FAC
:10387000E838006E31C1E8FFD00F0024E66E32C197
:10388000E8FFD00FE838006E33C1E8FFD00F002406
:10389000E66EFD0EE66EB6EC07F04FA207D01EEC0A
:1038A0001FF046B201D002D095EC40F02C6A120015
:1038B0002CEC08F0000EF86E960EF76EBA0EF66E4F
:1038C0003EEC06F02C0E0FEC06F0200E0FEC06F08E
:1038D0006FEC1FF0160EE66E420EE66EFD0EE66E03
:1038E000B6EC07F04FA26ED01EEC1FF046B267D0C8
:1038F00006C7E8FF000A0CE006C7E8FF010A5CE122
:1039000050B254D0010EE8CF25F6B1EC3AF05AD0BF
:103910006FEC1FF0160EE66E430EE66EFD0EE66EC1
:10392000B6EC07F04FA24ED01EEC1FF046B247D0C7
:1039300006C7E8FF000A14E006C7E8FF010A3CE1F9
:10394000000EF86E960EF76EE80EF66E3EEC06F080
:1039500050B22CD0020EE8CF25F6B1EC3AF032D0BE
:103960006FEC1FF0160EE66E4B0EE66EFD0EE66E69
:10397000B6EC07F04FA226D01EEC1FF046B219D0CD
:1039800006C7E8FF000A15E006C7E8FF010A14E1D0
:10399000030EE8CF25F6000EF86E970EF76E020EB6
:1039A000F66E3EEC06F0B1EC3AF00CD045EC07F0C8
:1039B00009D03CEC07F006D0C2EC40F003D0A7ECF5
:1039C00040F000D02C6A12002CEC08F0000EF86ECB
:1039D000970EF76E1E0EF66E3EEC06F02C0E0FECF8
:1039E00006F0200E0FEC06F06FEC1FF0160EE66EE0
:1039F0005B0EE66EFD0EE66EB6EC07F04FA231D020
:103A00001EEC1FF046B22AD006C7E8FF000A20E0ED
:103A100006C7E8FF020A0DE006C7E8FF010A1BE13E
:103A2000000EF86E970EF76E420EF66E3EEC06F044
:103A300009D0000EF86E970EF76E360EF66E3EEC5D
:103A400006F00FD0040EE8CF25F6B1EC3AF009D01D
:103A50003CEC07F006D0C2EC40F003D0A7EC40F0FD
:103A600000D02C6A12002CEC08F0000EF86E960EB6
:103A7000F76EC00EF66E3EEC06F06FEC1FF0100E07
:103A8000E66EFD0EE66EB6EC07F04FA2E6D01EEC39
:103A90001FF046B2DBD036EC1FF0006E000E0018AF
:103AA00027E0010E001825E0020E001827E0030EA3
:103AB000001829E0040E00182BE0050E00182FE076
:103AC000060E001831E0070E001833E0080E00184B
:103AD00035E0090E001837E0100E00183BE0110E1B
:103AE000001839E0120E001837E0C2EC40F0B5D0F3
:103AF00034D050B852D051B069D041D050B851D024
:103B000052BA47D04AD050B85DD052BA46D049D008
:103B100050B85CD051B449D052BA43D053D051B40C
:103B200051D052BA42D052D051B450D052BA4ED0E5
:103B300054D051B452D052BA50D05CD051B45AD0B3
:103B400052BA58D05ED051B45CD052B85AD052BAA2
:103B500058D065D05DD063D06CD0310E0FEC06F03C
:103B600026EC05F06F0E0FEC06F0520E0FEC06F08F
:103B7000310E0FEC06F0300E0FEC06F064D0310E73
:103B80000FEC06F0300E0FEC06F0300E0FEC06F0E6
:103B90005AD0350E0FEC06F0F5D7310E0FEC06F0CB
:103BA0004FD0350E0FEC06F04BD0360E0FEC06F072
:103BB0002E0E0FEC06F0320E0FEC06F0350E0FEC69
:103BC00006F03ED0390E0FEC06F03AD0310E0FEC75
:103BD00006F0300E0FEC06F033D0310E0FEC06F08D
:103BE000320E0FEC06F02E0E0FEC06F0350E0FEC39
:103BF00006F026D0320E0FEC06F0300E0FEC06F079
:103C00001FD0320E0FEC06F0350E0FEC06F018D078
:103C1000350E0FEC06F0300E0FEC06F011D0310E21
:103C20000FEC06F0300E0FEC06F0300E0FEC06F045
:103C300007D0310E0FEC06F04D0E0FEC06F003D05E
:103C40004B0E0FEC06F00EEC06F007D051A003D09F
:103C5000B9EC40F002D095EC40F02C6A12002CEC4C
:103C600008F0000EF86E970EF76EFA0EF66E3EEC48
:103C700006F06FEC1FF0160EE66E460EE66EFD0EB9
:103C8000E66EB6EC07F04FA278D036EC1FF0000AD3
:103C900006E02D50010A06E0C2EC40F06ED03CEC8C
:103CA00007F06BD06FEC1FF0B1EC20F0FD0EE66E6C
:103CB000B6EC07F04FA261D01EEC1FF046B25BD00D
:103CC000000EF86E960EF76E740EF66E3EEC06F071
:103CD00035EC40F01B5205E0250E0FEC06F00EEC23
:103CE00006F06FEC1FF0F3EC20F0FD0EE66EB6EC84
:103CF00007F04FA242D01EEC1FF046B23ED0000E9D
:103D0000F86E960EF76E7C0EF66E3EEC06F035EC15
:103D100040F01B5203E0250E0FEC06F00EEC06F00F
:103D20006FEC1FF035EC21F04FA227D0FD0EE66EB0
:103D3000B6EC07F04FA221D01EEC1FF046B21DD00A
:103D4000000EF86E960EF76EA80EF66E3EEC06F0BC
:103D500036EC1FF0F00BE838300F0FEC06F02E0EAB
:103D60000FEC06F036EC1FF00F0B300F0FEC06F0E7
:103D70000EEC06F002D045EC07F02C6A12002CEC99
:103D800008F0000EF86E960EF76E8A0EF66E3EEC98
:103D900006F06FEC1FF0160EE66E470EE66EFD0E97
:103DA000E66EB6EC07F04FA247D036EC1FF0000AE3
:103DB0000BE036EC1FF0010A0AE036EC1FF0020AB5
:103DC0000FE0C2EC40F038D03CEC07F035D0000EEC
:103DD000F86E960EF76E980EF66E3EEC06F008D072
:103DE000000EF86E960EF76EA00EF66E3EEC06F024
:103DF0006FEC1FF0140EE66E0F0EE66EFD0EE66E13
:103E0000B6EC07F04FA218D01EEC1FF046B212D04D
:103E1000000EF86E960EF76EA80EF66E3EEC06F0EB
:103E200035EC40F01B5203E0250E0FEC06F00EECD3
:103E300006F002D045EC07F02C6A120046922CC026
:103E40002EF017EE00F02E50FE0FE350FA0AD8B411
:103E50004682120046922CC02EF017EE00F02E5033
:103E6000FE0FE350FB0AD8B4468212002CC02EF09D
:103E700017EE00F02E50FE0FE3502D6E12002CC0F6
:103E80002EF017EE00F02E50FD0FE3502D6E1200B5
:103E90002CC02EF017EE00F02E50FC0FE3502D6ECC
:103EA000120036EC1FF0000A0BE036EC1FF0010A9E
:103EB0000AE006C7E8FF020A0CE0C2EC40F00ED0B0
:103EC0003CEC07F00BD0310E0FEC06F00EEC06F0D8
:103ED00005D0320E0FEC06F00EEC06F0120011EEDB
:103EE000B0F0FE0EE66EFE0EE66E4550E66EE00E9B
:103EF000E66E1200000E50B005D050B6000E51B262
:103F000001D0010EE8CF34F6140EE66E0E0EE66E0A
:103F1000120050B607D050BC0AD050BE08D051B2E3
:103F20000DD011D01A0EE66E080EE66E10D01A0EE5
:103F3000E66E050EE66E640EE66E09D01A0EE66EAB
:103F4000070EE66E04D0160EE66E560EE66E1200F2
:103F500050B607D050BC0CD050BE0AD051B20FD0D2
:103F600017D01A0EE66E050EE66E770EE66E14D0CA
:103F70001A0EE66E050EE66E030EE66E0DD01A0EF4
:103F8000E66E050EE66E000EE66E460EE66E04D098
:103F9000140EE66E150EE66E120050B009D050B643
:103FA0000ED050BE13D051B218D051B61FD025D06C
:103FB0001A0EE66E030EE66E170EE66E22D01A0E8D
:103FC000E66E050EE66E720EE66E1BD01A0EE66EFB
:103FD000050EE66E690EE66E14D01A0EE66E050E3C
:103FE000E66E010EE66E120EE66E0BD01A0EE66E4F
:103FF000030EE66E500EE66E04D0140EE66E120E40
:10400000E66E1200000EE8CF34F61A0EE66E050ECC
:10401000E66E000EE66E50B615D050BC17D050BEFE
:1040200015D051B217D051B418D051B619D051B8DB
:104030001ED051BA07D051BC1DD051BE1ED052B8AF
:104040001FD018D0080EE8CFB6F11CD0220EE8CF52
:10405000B6F118D0510EE66E15D0070EE66E12D0EE
:10406000030EE8CFB5F1160EE8CFB6F10BD0250E52
:10407000E66E08D0080EE66E05D0280EE66E02D079
:10408000090EE66E120050B61ED050BC1CD050BEB9
:104090001AD051B213D051B41BD051B819D051BA63
:1040A00012D051BC15D051BE13D052B411D052B859
:1040B0000FD052BA0DD0FF0EE66E0FD01A0EE66E7C
:1040C000060EE66E0AD01A0EE66E070EE66E05D0F4
:1040D000160EE66E580EE66E00D0120050BC11D0DF
:1040E00050BE0FD051B212D051B417D051B81CD01D
:1040F00051BE21D052B426D052BA2BD0FF0EE66E5C
:104100002FD0050EE66E160EE66E2AD0050EE66E70
:10411000000EE66E410EE66E23D0050EE66E010E31
:10412000E66E210EE66E1CD0050EE66E000EE66E03
:10413000950EE66E15D0050EE66E010EE66E590E72
:10414000E66E0ED0050EE66E000EE66E960EE66E7C
:1041500007D0050EE66E010EE66E800EE66E00D00C
:10416000120050B00BD050B610D050BE15D051B286
:104170001AD051B421D052B828D030D01A0EE66EE1
:10418000030EE66E090EE66E2DD01A0EE66E050ED3
:10419000E66E730EE66E26D01A0EE66E050EE66E1D
:1041A000580EE66E1FD01A0EE66E050EE66E010E74
:1041B000E66E150EE66E16D01A0EE66E050EE66E6B
:1041C000010EE66E630EE66E0DD01A0EE66E050E5B
:1041D000E66E010EE66E250EE66E04D0140EE66E57
:1041E000160EE66E120050B00BD050B610D050BE76
:1041F00015D051B21AD051B421D052B828D030D0F5
:104200001A0EE66E030EE66E100EE66E2DD01A0E36
:10421000E66E050EE66E740EE66E26D01A0EE66E9B
:10422000050EE66E590EE66E1FD01A0EE66E050EEE
:10423000E66E010EE66E160EE66E16D01A0EE66EED
:10424000050EE66E010EE66E640EE66E0DD01A0ED9
:10425000E66E050EE66E010EE66E260EE66E04D0E4
:10426000140EE66E170EE66E12004F821A0EE66E00
:1042700050B017D050B61AD050BC1DD050BE1BD075
:1042800051B21ED051B423D051B628D051B82BD042
:1042900051BC30D051BE33D052B438D052B8D7D739
:1042A00041D0030EE66E110EE66E3DD0050EE66EB1
:1042B000750EE66E38D0050EE66E600EE66E33D0F3
:1042C000050EE66E010EE66E170EE66E2CD0050E9C
:1042D000E66E010EE66E650EE66E25D0030EE66E06
:1042E000550EE66E20D0050EE66E010EE66E910EBE
:1042F000E66E19D0000EE66E890EE66E14D0050E3D
:10430000E66E020EE66E920EE66E0DD0030EE66EBF
:10431000090EE66E08D0050EE66E010EE66E270E5B
:10432000E66E01D04F92120051B601D005D01A0EA0
:10433000E66E020EE66E04D01A0EE66E030EE66E10
:104340001200FF0EE8CF13F6200EE8CF0FF2F7ECC5
:1043500002F048BC04D0859821C045F003D0869473
:1043600022C045F0FF0EE8CF28F67BEC05F08AEC82
:1043700005F047EC03F02C6AFE0EB4EC02F0FE0EE2
:10438000B4EC02F0000EB4EC02F0E00EB4EC02F07B
:10439000190EB4EC02F0000EB4EC02F0FD0EB4EC19
:1043A00002F02C6604D0E0EC04F048B651D152EC97
:1043B00003F049BE26D017EE00F02C5009C0E3FFF1
:1043C0002C2AFD0E09621DD0080E2C180AE0060EDC
:1043D0002C1807E0070E2C18C8E12C6A47EC03F0F4
:1043E000E0D700C743F0FE0E4318BFE101C743F01A
:1043F000FE0E4318BAE102C743F0E00E431805E091
:10440000B4D74DA0CED74D90B0D706C745F0060E15
:104410002C18D8B403C745F0D8EC05F0000EF86EA0
:10442000950EF76E9C0EF66E3EEC06F04550F00BC6
:10443000E83895EC06F00FEC06F045500F0B95ECC4
:1044400006F00FEC06F00EEC06F0215048BC2250AE
:10445000A00A06E048AC21C045F048BC22C045F0A7
:10446000506A516A526A536A680E4518D8B450802F
:10447000580E4518D8B450825E0E4518D8B45084F2
:10448000560E4518D8B45086660E4518D8B45086D6
:10449000500E4518D8B450885C0E4518D8B4508AD0
:1044A000640E4518D8B4508C6E0E4518D8B4508E92
:1044B000460E4518D8B45180600E4518D8B4528CB9
:1044C000700E4518D8B45182880E4518D8B451845E
:1044D000760E4518D8B45186940E4518D8B4518834
:1044E000660E4518D8B4518A800E4518D8B4518C40
:1044F0007A0E4518D8B4508E980E4518D8B4518EFF
:104500006A0E4518D8B452828E0E4518D8B452841B
:104510007C0E4518D8B45288A20E4518D8B4528AD9
:104520005492650EE8CF06F22D0EE8CF07F2090E81
:10453000E8CF08F20E0EE8CF09F250A004D0690EC1
:10454000E8CF06F27DD050A204D06B0EE8CF06F281
:1045500077D050A604D0660EE8CF06F271D051A2F3
:1045600004D0660EE8CF06F26BD051A41DD0548261
:104570006D0EE8CF06F2680EE8CF07F2100EE8CF16
:1045800008F20F0EE8CF09F203C200F00052010E4C
:10459000D8B4E8CF03F2050E03C200F0006450D097
:1045A000010EE8CF03F24CD051A604D0C90EE8CFDB
:1045B00006F246D051B806D053B004D051BE02D056
:1045C00052A407D0250EE8CF07F20A0EE8CF08F272
:1045D00037D052A816D054826A0EE8CF06F2680E81
:1045E000E8CF07F2090EE8CF08F20F0EE8CF09F284
:1045F000030E03C200F0006423D0000EE8CF03F2E4
:104600001FD052AA1DD054826B0EE8CF06F2390E8D
:10461000E8CF07F2100EE8CF08F20F0EE8CF09F24C
:1046200003C200F00052010ED8B4E8CF03F2030E2B
:1046300003C200F0006404D0010EE8CF03F200D002
:104640002CEC08F0DEEC08F04FA202D000C63AF0E5
:10465000120051B404D052B802D052AA03D0170E9F
:104660003A1813E0FE0EB4EC02F0FE0EB4EC02F0C9
:10467000000EB4EC02F0E00EB4EC02F0190EB4EC53
:1046800002F0000EB4EC02F015D0FE0EB4EC02F015
:10469000FE0EB4EC02F0000EB4EC02F0E00EB4EC4E
:1046A00002F0200EB4EC02F0010EB4EC02F0020EA7
:1046B000B4EC02F0FD0EB4EC02F04D90120017EED7
:1046C00000F000C743F0FE0E43180EE101C743F0AF
:1046D000FE0E431809E102C743F0E00E431804E15F
:1046E000498620503B6E22D00B0E2C1A1EE100C7CB
:1046F00043F0FE0E431819E101C743F0FE0E4318C4
:1047000014E102C743F0000E43180FE104C743F061
:10471000000E43180AE11DC036F01C5206E00E01DF
:10472000C6A9000137EC03F0000111D004C7E8FF6F
:10473000200A0DE105C7E8FF010A09E106C7E8FF05
:10474000020A05E11B52D8A4C1EC38F000D02C6A53
:104750002E6A4C92C86AC76A120009C715F608C7C4
:1047600016F607C717F606C718F605C719F6300E6E
:10477000E8CF02F715C6E8FFF00BE838300FE8CFB6
:1047800003F715C6E8FF0F0B300FE8CF04F716C686
:10479000E8FFF00BE838300FE8CF05F716C6E8FF62
:1047A0000F0B300FE8CF06F717C6E8FFF00BE8381D
:1047B000300FE8CF07F717C6E8FF0F0B300FE8CF31
:1047C00008F718C6E8FFF00BE838300FE8CF09F714
:1047D00018C6E8FF0F0B300FE8CF0AF719C6E8FF3D
:1047E000F00BE838300FE8CF0BF719C6E8FF0F0BD6
:1047F000300FE8CF0CF754AE02D01C527CE0499A3F
:1048000017EE02F0300EE66209D0E6620BD0E662E7
:104810000DD0E6620FD0E66211D014D002C7E8FFD7
:104820000FEC06F003C7E8FF0FEC06F004C7E8FF43
:104830000FEC06F005C7E8FF0FEC06F006C7E8FF2F
:104840000FEC06F02E0E0FEC06F007C7E8FF0FEC9A
:1048500006F008C7E8FF0FEC06F009C7E8FF0FEC09
:1048600006F017EE0CF0300EE56205D0E5621FD0C1
:10487000E56232D03ED0640E0FEC06F06F0E0FEC06
:1048800006F0740E0FEC06F00AC7E8FF0FEC06F016
:10489000200E0FEC06F00BC7E8FF0FEC06F0200E21
:1048A0000FEC06F00CC7E8FF0FEC06F022D0640E08
:1048B0000FEC06F06F0E0FEC06F0740E0FEC06F026
:1048C0000AC7E8FF0FEC06F0200E0FEC06F00BC74E
:1048D000E8FF0FEC06F00DD0640E0FEC06F06F0E43
:1048E0000FEC06F0740E0FEC06F00AC7E8FF0FECB1
:1048F00006F026EC05F0120007C7E8FFF00BE838D9
:10490000300FE8CF00F707C7E8FF0F0BD8B4200E31
:10491000D8A4300FE8CF01F706C7E8FFF00BE8385E
:10492000300FE8CF02F706C7E8FF0F0B300FE8CFD4
:1049300003F705C7E8FFF00BE838300FE8CF04F7BE
:1049400005C7E8FF0F0B300FE8CF05F701C7E8FFF9
:104950000FEC06F02E0E0FEC06F002C7E8FF0FEC8E
:1049600006F003C7E8FF0FEC06F004C7E8FF0FEC02
:1049700006F00EEC06F04D0E0FEC06F0480E0FECB4
:1049800006F07A0E0FEC06F00EEC06F01200000EA8
:104990003A1804E14C0E0FEC06F068D0010E3A18FC
:1049A00004E1550E0FEC06F061D0020E3A1804E156
:1049B000410E0FEC06F05AD0030E3A1804E1430EF4
:1049C0000FEC06F053D0040E3A1804E1520E0FEC2F
:1049D00006F04CD0050E3A1804E1460E0FEC06F036
:1049E00045D0060E3A1804E1570E0FEC06F03ED003
:1049F000070E3A180AE1430E0FEC06F0200E0FECFA
:104A000006F0520E0FEC06F031D0080E3A180AE10B
:104A1000520E0FEC06F0200E0FEC06F0520E0FECCB
:104A200006F024D0110E3A1804E1530E0FEC06F0F4
:104A30001DD0120E3A1804E1500E0FEC06F016D0FD
:104A4000130E3A180AE1500E0FEC06F0200E0FEC90
:104A500006F0520E0FEC06F009D0170E3A1806E1D8
:104A6000440E0FEC06F0560E0FEC06F00EEC06F0BE
:104A70001200000EF86E930EF76E560EF66E3EECB8
:104A800006F0000E3A1809E1000EF86E930EF76E6C
:104A9000960EF66E3EEC06F090D0010E3A1809E143
:104AA000000EF86E930EF76E8E0EF66E3EEC06F06C
:104AB00084D0020E3A1809E1000EF86E930EF76EDC
:104AC000500EF66E3EEC06F078D0030E3A1809E16F
:104AD000000EF86E930EF76E5E0EF66E3EEC06F06C
:104AE0006CD0040E3A1809E1000EF86E950EF76EC0
:104AF000A40EF66E3EEC06F060D0050E3A1809E101
:104B0000000EF86E930EF76E880EF66E3EEC06F011
:104B100054D0060E3A1809E1000EF86E950EF76EA5
:104B2000B40EF66E3EEC06F048D0070E3A1809E1D6
:104B3000000EF86E930EF76E640EF66E3EEC06F005
:104B40003CD0080E3A1809E1000EF86E950EF76E8B
:104B5000BE0EF66E3EEC06F030D0110E3A1809E1AA
:104B6000000EF86E950EF76ED00EF66E3EEC06F067
:104B700024D0120E3A1809E1000EF86E930EF76E6B
:104B8000BC0EF66E3EEC06F018D0130E3A1809E192
:104B9000000EF86E950EF76EE20EF66E3EEC06F025
:104BA0000CD0170E3A1809E1000EF86E950EF76E4C
:104BB000F00EF66E3EEC06F000D01200000EF86E1D
:104BC000930EF76E380EF66E3EEC06F023C6E8FF45
:104BD000010A0BE023C6E8FF020A07E023C6E8FF4C
:104BE000030A03E0C2EC40F006D023C6E8FFB2ECB3
:104BF00006F00EEC06F012000AEC05F0000EFB6E5B
:104C00004C0EFA6E0444016E120E0124D8B0FA2A3A
:104C1000F96E10D057D0A3D0EED036D18FD113D2A9
:104C200071D2C8D2FAD252D3C1D309D209D209D291
:104C300009D212004BB82FEF2BF04ABE2BD04BB647
:104C400027D04BB40BD04BBA05D0469033EC08F0CC
:104C500037EF2BF069EC3BF037EF2BF04BBA04D079
:104C60002FEC1EF037EF2BF0130EE8CF24F6030ED7
:104C7000E8CF26F6476A4786B9EC40F0000EF86E9A
:104C8000970EF76EFA0EF66E3EEC06F032EF2BF052
:104C900035EF2BF04BB835EF2BF04BB611D04BB4B2
:104CA0000BD04BBA05D0468033EC08F037EF2BF031
:104CB00069EC3BF037EF2BF0BFEC1EF037EF2BF039
:104CC00035EF2BF04BB82FEF2BF04ABE24D04BB66C
:104CD00020D04BB404D058EC08F037EF2BF04BBA8F
:104CE00004D033EC1DF037EF2BF01B0EE8CF24F689
:104CF000020EE8CF26F6476A4786B9EC40F0000E70
:104D0000F86E960EF76EC00EF66E3EEC06F032EFC1
:104D10002BF035EF2BF04BB620D04BB404D00BEC7E
:104D200014F037EF2BF04BBA04D001EC17F037EF4B
:104D30002BF01C0EE8CF24F6010EE8CF26F6476ACA
:104D40004786B9EC40F0000EF86E960EF76ECE0E68
:104D5000F66E3EEC06F032EF2BF035EF2BF04BB851
:104D60002FEF2BF04ABE2ED04BB62AD04BB404D036
:104D7000AFEC17F037EF2BF051B01ED051BE1CD066
:104D800052B41AD04BBA04D0F0EC11F037EF2BF03C
:104D90001E0EE8CF24F6040EE8CF26F6476A4786B3
:104DA000B9EC40F0000EF86E990EF76EA20EF66E9A
:104DB0003EEC06F032EF2BF0A0EC11F037EF2BF0C9
:104DC00035EF2BF04BBA35EF2BF04BB612D04BB47E
:104DD00004D0A0EC3BF037EF2BF051B006D051BE21
:104DE00004D052B402D035EF2BF0C8EC11F037EFFD
:104DF0002BF035EF2BF04BB835EF2BF04ABE2BD014
:104E00004BA40DD000D04B944B96000EF86E8F0E35
:104E1000F76EE20EF66E3EEC06F03BEF2BF04B84A5
:104E20004B96000EF86E8F0EF76ED00EF66E3EECBF
:104E300006F0CFEC04F03BEF2BF04B864B94000ECA
:104E4000F86E8F0EF76ED80EF66E3EEC06F0CFECD5
:104E500004F03BEF2BF04BBA35EF2BF04BB435EFB2
:104E60002BF04BB635EF2BF049820FC000F0000E4F
:104E70000F6E4888478448EC42F04898479400C039
:104E80000FF0499237EF2BF04BB82FEF2BF04ABEC3
:104E900037D04BB634D04BB419D04BBA04D097ECC2
:104EA00016F037EF2BF0170EE8CF24F6000EE8CF00
:104EB00026F6476A4786B9EC40F0000EF86E920E6F
:104EC000F76EFC0EF66E3EEC06F0CCD34BBA04D077
:104ED000A9EC0BF037EF2BF0180EE8CF24F6020EFA
:104EE000E8CF26F6476A4786B9EC40F0000EF86E28
:104EF000930EF76E2A0EF66E3EEC06F0B3D3B5D3E2
:104F00004BB61BD04BB419D04BBA04D083EC09F08C
:104F100037EF2BF0190EE8CF24F6020EE8CF26F675
:104F2000476A4786B9EC40F0000EF86E960EF76EB1
:104F30004C0EF66E3EEC06F095D397D34BB82FEFA0
:104F40002BF04ABE43D04BB640D04BB422D04BBA24
:104F50000AD051BE05D052B403D058EC1CF087D310
:104F600062EC0FF084D3060EE8CF24F6040EE8CFEF
:104F700026F6FF0EE8CF28F6476A4786B9EC40F0E0
:104F8000000EF86E960EF76EBA0EF66E3EEC06F058
:104F900069D34BBA01D069D3080EE8CF24F6030ECB
:104FA000E8CF26F6FF0EE8CF28F6000EE8CF29F668
:104FB000476A4786B9EC40F0000EF86E970EF76E20
:104FC000020EF66E3EEC06F04DD34FD34BB636D004
:104FD0004BB419D04BBA01D048D3070EE8CF24F612
:104FE000040EE8CF26F6FF0EE8CF28F6476A47867C
:104FF000B9EC40F0000EF86E960EF76EE80EF66E05
:105000003EEC06F02FD34BBA03D0E4EC1CF02FD3C8
:10501000090EE8CF24F6020EE8CF26F6FF0EE8CF01
:1050200028F6476A4786B9EC40F0000EF86E970EF6
:10503000F76E1E0EF66E3EEC06F014D316D306D2B3
:1050400023D259D2B0D24BB80AD34ABE3AD04BB6CB
:1050500037D04BB418D04BBA03D084EC12F007D33E
:10506000140EE8CF24F6020EE8CF26F6476A4786EC
:10507000B9EC40F0000EF86E920EF76EC40EF66EAC
:105080003EEC06F0EFD24BBA08D0C4EC08F00A0EA2
:10509000D9EC05F05DEC17F0EAD2150EE8CF24F656
:1050A000010EE8CF26F6476A4786B9EC40F0000EBD
:1050B000F86E930EF76E380EF66E3EEC06F0D2D216
:1050C000D4D24BB61ED04BB403D021EC0BF0CFD2D0
:1050D0004BBA03D0A3EC1BF0CAD21D0EE8CF24F6C6
:1050E000010EE8CF26F6476A4786B9EC40F0000E7D
:1050F000F86E980EF76E2C0EF66E3EEC06F032EF60
:105100002BF0B3D24ABE3DD04BB63AD04BB428D0E8
:105110004BB803D04BBA0BD01BD04B98000EF86E97
:105120008E0EF76E780EF66E3EEC06F0A0D240ECD6
:105130000FF054A0F2D74B9A4B88000EF86E940EE5
:10514000F76E840EF66E3EEC06F0CFEC04F093D2D0
:10515000469446964B8AB9EC40F0CFEC04F08BD2E3
:105160004F7E000EF86E990EF76ED20EF66E3EEC84
:1051700006F04FBE45EC07F04FAE3CEC07F077D29F
:1051800074D24BB872D24BBA70D24BB612D04BB469
:105190000FD049800FC000F0000E0F6E4888478482
:1051A00048EC42F04898479400C00FF049905FD215
:1051B0005CD25BD24BB853D24ABE22D04BB61FD082
:1051C0004BB418D04BBA03D0E8EC14F050D2100E08
:1051D000E8CF24F6030EE8CF26F6476A4786B9ECF7
:1051E00040F0000EF86E930EF76E0E0EF66E3EEC6B
:1051F00006F038D24BBA39D284EC0AF038D235D224
:105200004BBA33D24BB608D04BB403D06DEC0BF095
:105210002ED2F0EC0FF02BD228D24BB820D24ABEBF
:1052200035D04BB632D04BB418D04BBA03D007ECC4
:1052300016F01DD2110EE8CF24F6030EE8CF26F6A5
:10524000476A4786B9EC40F0000EF86E930EF76E91
:10525000C20EF66E3EEC06F005D24BBA03D038EC27
:1052600013F005D20B0EE8CF24F6030EE8CF26F696
:10527000476A4786B9EC40F0000EF86E920EF76E62
:10528000DE0EF66E3EEC06F0EDD1EFD14BB61DD042
:105290004BB418D04BBA03D078EC14F0E8D10C0E14
:1052A000E8CF24F6030EE8CF26F6476A4786B9EC26
:1052B00040F0000EF86E920EF76ED20EF66E3EECD7
:1052C00006F0D0D17CEC19F0D2D1CFD14BB8C7D1F8
:1052D0004ABE36D04BB633D04BB419D04BBA03D0FC
:1052E00029EC15F0C4D11A0EE8CF24F6030EE8CF4E
:1052F00026F64698476A4786B9EC40F0000EF86EED
:10530000930EF76EDC0EF66E3EEC06F0ABD14BBAA8
:1053100003D062EC0FF0ABD10E0EE8CF24F6020EF4
:10532000E8CF26F6476A4786B9EC40F0000EF86EE3
:10533000920EF76EA00EF66E3EEC06F093D195D16C
:105340004BB632D04BB418D04BBA03D0D9EC16F0D0
:105350008ED10D0EE8CF24F6030EE8CF26F6476A6D
:105360004786B9EC40F0000EF86E930EF76E060E0D
:10537000F66E3EEC06F076D14BBA03D0A0EC14F0FA
:1053800076D10F0EE8CF24F6030EE8CF26F6476A53
:105390004786B9EC40F0000EF86E920EF76EEC0EF8
:1053A000F66E3EEC06F05ED160D161D14BA805D01F
:1053B00052B855D152AA59D152D14ABE2ED04BBA69
:1053C00054D14BB629D04BB410D049800FC000F057
:1053D0000C0E0F6E4888478448EC42F0489847947A
:1053E00000C00FF04990499A42D151B03ED1000E11
:1053F000F86E950EF76E160EF66E3EEC06F0320E57
:1054000054BA0FEC06F054BA0EEC06F0476A47881F
:10541000000EE8CF05F22BD128D14BBA26D14BB6DE
:1054200014D04BB40FD0000EF86E8F0EF76E5C0EDA
:10543000F66E3EEC06F0476A4784488848EC42F036
:10544000489810D1548AD1D710D10FD14BB807D179
:105450004ABE0DD04BBA09D14BB608D04BB403D0DD
:10546000D8EC17F004D1A9EC0FF001D1FED04BBA63
:10547000FCD04BB608D04BB403D054EC19F0F7D0A5
:105480003CEC0AF0F4D0F1D04BB8E9D04ABE23D0BE
:105490004BB620D04BB418D04BBA03D0B6EC08F0C2
:1054A000E6D0120EE8CF24F6020EE8CF26F6476AC1
:1054B0004786B9EC40F0000EF86E930EF76E560E6C
:1054C000F66E3EEC06F0CED04BBACFD04F8437EC20
:1054D0001AF0CDD0CAD04BBAC8D04BB60BD04BB413
:1054E00005D0B6EC08F0F2EC08F0C1D04F9437ECE0
:1054F0001AF0BDD0BAD04BB8B2D04ABE34D04BBAF5
:10550000B4D04BB62FD04BB422D027C6E8FF010A47
:105510000BE027C6E8FF020A0EE0000EF86E920EBE
:10552000F76E780EF66E0DD0000EF86E920EF76ED6
:105530007C0EF66E06D0000EF86E970EF76EDA0E41
:10554000F66E3EEC06F0036A476A47828BD0000E87
:10555000F86E8F0EF76EA80EF66E3EEC06F0F4ECC9
:105560003CF085D082D04BBA07D04BB61BD04BB4A1
:1055700016D0E9EC1BF07BD0160EE8CF24F6040E13
:10558000E8CF26F6476A4786B9EC40F0000EF86E81
:10559000980EF76E0E0EF66E3EEC06F063D0C0EC81
:1055A0003EF065D062D04BA809D051B258D051B46A
:1055B00056D052B854D052AA58D051D04ABE3AD040
:1055C0004BB637D04BB411D04BBA4FD049800FC037
:1055D00000F00B0E0F6E4888478448EC42F0489864
:1055E000479400C00FF0499042D04BBA0ED0000E45
:1055F000F86E980EF76E580EF66E3EEC06F0000E42
:10560000E8CF5EF8476A478C32D01F0EE8CF24F609
:10561000010EE8CF26F6476A4786B9EC40F0000E47
:10562000F86E990EF76EAA0EF66E3EEC06F032EFAB
:105630002BF01BD04BBA19D04BB610D04BB403D0C3
:1056400001EC42F014D0000EF86E950EF76E760E57
:10565000F66E3EEC06F0476A478A09D006D0DDECCC
:105660000BF005D0CFEC04F002D05DEC05F04B94CC
:105670004B964B9A4B98046A0E01C6990001120092
:10568000000EFB6E560EFA6E0444016E960E012457
:10569000D8B0FA2AF96E10D01DD02AD037D039D020
:1056A00046D053D060D062D06FD07CD089D08BD020
:1056B0009ED0ABD0E6D01200000EF86E8D0EF76EC5
:1056C000400EF66E3EEC06F0032A310E046E3BEC03
:1056D0003DF0E5D0000EF86E8D0EF76E440EF66EBE
:1056E0003EEC06F0032A320E046E3BEC3DF0D7D0C0
:1056F000000EF86E8D0EF76E480EF66E3EEC06F05C
:10570000032A330E046E3BEC3DF0C9D05DEC05F08E
:10571000C6D0000EF86E8D0EF76E500EF66E3EEC93
:1057200006F0032A340E046E3BEC3DF0B8D0000EB8
:10573000F86E8D0EF76E540EF66E3EEC06F0032AF0
:10574000350E046E3BEC3DF0AAD0000EF86E8D0EC7
:10575000F76E580EF66E3EEC06F0032A360E046E17
:105760003BEC3DF09CD05DEC05F099D0000EF86E5E
:105770008D0EF76E600EF66E3EEC06F0032A370EC5
:10578000046E3BEC3DF08BD0000EF86E8D0EF76E84
:10579000640EF66E3EEC06F0032A380E046E3BEC07
:1057A0003DF07DD0000EF86E8D0EF76E680EF66E31
:1057B0003EEC06F0032A390E046E3BEC3DF06FD050
:1057C0005DEC05F06CD008665CD0060E031803E1B2
:1057D0005DEC05F064D0000EF86E8D0EF76E760E5F
:1057E000F66E3EEC06F003C008F0082A58D0000E12
:1057F000F86E8D0EF76E7E0EF66E3EEC06F0032A06
:10580000300E046E3BEC3DF04AD003522CE127C62B
:10581000E8FF000A10E027C6E8FF010A18E0000EC2
:10582000F86E920EF76E780EF66E3EEC06F0000EF5
:10583000E8CF27F634D0000EF86E920EF76E7C0E8D
:10584000F66E3EEC06F0010EE8CF27F628D0000EEB
:10585000F86E970EF76EDA0EF66E3EEC06F0020E5C
:10586000E8CF27F61CD0000EF86E8D0EF76E8A0E6C
:10587000F66E3EEC06F0476A478011EC3CF0036A96
:1058800010D0000EF86E8F0EF76EB00EF66E3EEC76
:1058900006F0476A47804A6A036A086A02D0CFEC7A
:1058A00004F0046A1200000EFB6E580EFA6E0444F7
:1058B000016EBC0E0124D8B0FA2AF96E10D032D095
:1058C00054D076D083D0A5D0C7D0D4D0E5D0F2D0F4
:1058D000FFD00CD15DD16FD191D1CAD112000AECA9
:1058E00005F04ABE0ED0000EF86E8D0EF76E400E1B
:1058F000F66E3EEC06F0032A310E046E6CEC2EF0D0
:10590000E7D1010EE8CF03F2000EF86E950EF76EA8
:105910001E0EF66E3EEC06F0310E0FEC06F00EECAD
:1059200006F0D6D10AEC05F04ABE0ED0000EF86E95
:105930008D0EF76E440EF66E3EEC06F0032A320E24
:10594000046E6CEC2EF0C4D1020EE8CF03F2000E10
:10595000F86E950EF76E1E0EF66E3EEC06F0320EE9
:105960000FEC06F00EEC06F0B3D10AEC05F04ABEDF
:105970000ED0000EF86E8D0EF76E480EF66E3EECF1
:1059800006F0032A330E046E6CEC2EF0A1D1030E48
:10599000E8CF03F2000EF86E950EF76E1E0EF66E4F
:1059A0003EEC06F0330E0FEC06F00EEC06F090D154
:1059B000036A04C200F0002A00C004F206C2E8FF35
:1059C000006403D0010EE8CF04F270D10AEC05F0B8
:1059D0004ABE0ED0000EF86E8D0EF76E500EF66EAB
:1059E0003EEC06F0032A340E046E6CEC2EF070D1FF
:1059F000040EE8CF03F2000EF86E950EF76E1E0E41
:105A0000F66E3EEC06F0340E0FEC06F00EEC06F0EF
:105A10005FD10AEC05F04ABE0ED0000EF86E8D0E76
:105A2000F76E540EF66E3EEC06F0032A350E046E49
:105A30006CEC2EF04DD1050EE8CF03F2000EF86E9F
:105A4000950EF76E1E0EF66E3EEC06F0350E0FEC60
:105A500006F00EEC06F03CD1000EF86E8D0EF76EDF
:105A6000580EF66E3EEC06F0032A360E046E6CEC11
:105A70002EF02ED1036A04C200F0000600C004F22A
:105A800005E106C2E8FFE8CF04F205D006C2E8FF50
:105A9000006401D0F6D70AD1000EF86E8D0EF76EB5
:105AA000600EF66E3EEC06F0032A370E046E6CECC8
:105AB0002EF00ED1000EF86E8D0EF76E640EF66E9F
:105AC0003EEC06F0032A380E046E6CEC2EF000D18A
