:020000040000FA
:0800000000000000F5EF00F024
:0200080008D01E
:02000A000000F4
:020018008ED088
:06001A008388E9CF03F327
:10002000EACF04F346BC41D00E01CDA914D0C5A936
:1000300012D004010091192F03D00E01C5990BD0E5
:10004000040104EE01F01B51EBCF9AFF1B2B180E9D
:100050001B19D8B41B6B0E01C5AB67D0CDAB65D0F7
:1000600099CF9FF4060E0F019D1419E1040100B908
:100070005CD000A302D0008958D004EE1CF000959B
:100080009C2B800E9C1909E09D519FC4EBFF9D2B7A
:10009000800E9D19D8B49D6B48D0008346D00F01C7
:1000A0009D989D880401008740D00E01CDAD14D0ED
:1000B000C5AD12D005010091192F03D00E01C59DC9
:1000C0000BD0050105EE01F01B51EBCF9AFE1B2B67
:1000D000180E1B19D8B41B6B0E01C5AF26D0CDAFBF
:1000E00024D099CE9FF5060E0E019D1519E105014C
:1000F00000B91BD000A302D0008917D005EE1CF078
:1001000000959C2B800E9C1909E09D519FC5EBFF2B
:100110009D2B800E9D19D8B49D6B07D0008305D010
:100120000E019D999D890501008704C3EAFF03C361
:10013000E9FF839811008388D8CF01F3E8CF00F35B
:10014000E0CF02F30E01C6A10BD0CEA109D0000171
:10015000342E03D04A840E01C6910E01CE913DD0BB
:100160000E01C6A50BD0CEA509D00001352E03D0B7
:100170004B80080E356E0E01CE952FD00E01C2A910
:100180000ED0CAA90CD0CA990F01125308E00F0172
:10019000126B000141EC04F08E5000001ED00E01E5
:1001A000C2AB0CD0CAAB0AD000010252D8B446820E
:1001B000D8A402060E01CA9B00010FD00E01C6A9E9
:1001C0000BD0CEA909D00001362E03D047880E01EE
:1001D000C6990E01CE9901D000D002C3E0FF00C342
:1001E000E8FF01C3D8FF83981000000000000F0152
:1001F000836AC00E116FC00E886E000E196FF00E6C
:10020000896E186F136F146BF00E846E856A000E82
:10021000216FAE0E8A6E866A000E266FA00E8B6E60
:10022000876A000E2E6F000E8C6E000E0F6F176F18
:100230001F6F246F2C6FF29EF29C0E01550EA06F63
:10024000AA0EA06FA091170EB56F090EFD6F1F0EBD
:100250008D6F0F010B0E056F0E01550EA06FAA0ECC
:10026000A06FA0810F01F26AF28A126B0E01CA9987
:10027000C299BA99BA91CA91C291BA93CA93C293D8
:10028000BA95CA95C2950F01F290F292F294D46A8F
:10029000D36A0E01E2910F01D59ED588D69ED68CE9
:1002A000D69AD698D686D694D692D6900E01BA9B78
:1002B000CA9BC29BCE6ACD6ACF80D09CD098CF9289
:1002C000CF8ACF88D09ED296D294D292D280CF9429
:1002D0000E01DC97E293BE91C691C791CE910F01BA
:1002E000C86AC76AC9800E01E297BE95C695C793D2
:1002F000CE950F01CA9ECA9CCA98CB96CB94CB923E
:10030000CB90C982C98AC988CC96CC94CC92CC8037
:10031000C994C26AC16AC380C49CC498C492C49080
:10032000C382C38AC3880E01E29BBE99C699C79552
:10033000CE990F01C49EC696C694C692C680C39439
:100340000E01BD89BD8BBD8DBD8F9F979C6B9E6B34
:100350000F019F969C6A9E6A0001858C868C046AB8
:10036000036A026A286A456A4580466A476A486A9B
:10037000496A4B6A4C6A4A6A4E6A086A376A4A8412
:100380004468000EE8CFA1F5466A476A8388469C18
:10039000D3EC3AF0819C818E22B0468C42EC06F080
:1003A00046BC11EC03F046AC06EC03F00F01126BF7
:1003B0000E01C289CA9BCE91CE95CE990001000153
:1003C0008398F28EF28C61EC05F026EC03F007ECDA
:1003D00017F047842D6A43EC03F085EC05F026EC1A
:1003E00003F020C03BF00E01C699CE99000147965C
:1003F0004EEC03F047BE10D0478620C03BF017EE0E
:1004000000F02B5009C0E3FF2B2A3B0E096204D0F9
:100410004A8272EC18F0EBD74BA005D047B603D058
:100420003B2E01D0D2D747B836EC18F04BB0C8EC11
:1004300017F0DCEC04F046A62AD00E01C29B0F0197
:10044000D59E00011AEC05F02AEC05F045A003D07A
:100450001BEC2FF00FD045A203D0F0EC31F00AD006
:1004600045AA03D005EC36F005D045A410D072ECB7
:1004700003F000D0F6EC04F0046A46968E500000BB
:100480000F01126B0E01CA99C28900010001AFD79A
:100490000F019E8A0E01C599C58B0F019D6A9D8E25
:1004A0009D880401196B1B6B1A6B04019C6B9E6B7E
:1004B0009D6B0401006B000112000E019E8BC59D17
:1004C000C58F9D6B9D8F9D890501196B1B6B1A6BE9
:1004D00005019C6B9E6B9D6B0501006B000112007A
:1004E00046BC15D004019C5102E10085000C04EECD
:1004F0001CF09E51EBCFA0F49E2B800E9E19D8B419
:100500009E6B9C0700930099A0C4E8FF12000501B0
:100510009C5102E10085000C05EE1CF09E51EBCFD2
:10052000A0F59E2B800E9E19D8B49E6B9C0700935D
:100530000099A0C5E8FF120046BC21D00401A06FBD
:1005400000B11BD0195107E1A0C49AFF1B2B180E54
:100550001B19D8B41B6B04EE01F01A51A0C4EBFFB9
:100560001A2B180E1A19D8B41A6B192B180E191940
:10057000D8A401D000810E01C58900011200050137
:10058000A06F00B11BD0195107E1A0C59AFE1B2B2B
:10059000180E1B19D8B41B6B05EE01F01A51A0C53B
:1005A000EBFF1A2B180E1A19D8B41A6B192B180E48
:1005B0001919D8A401D000810E01C58D12000F01B8
:1005C00046BC07D09F969E84230E9B6E010E9C6EA8
:1005D00007D00E019F979E85230E9B6F010E9C6F87
:1005E0000001120046BC08D00F019F969E94470E52
:1005F0009B6E000E9C6E08D00F010E019F979E957A
:10060000470E9B6F000E9C6F000112000E019E9B17
:100610009D99C59DC59F000185EC05F048EC02F051
:1006200012000F019E9A9D980E01C599C59B00016D
:1006300085EC05F05DEC02F012004A98E650DE62AF
:1006400003D02E2EFBD701D04A8812000E01C6958A
:10065000080E356E4B900F01C86AC76A0E01CE9521
:10066000C685000112000E01C69900011DC036F0BA
:100670004798000EE8CFC2FFE8CFC1FF0E01CE9928
:10068000C689000112002B6A800E46BC800E256EC2
:1006900017EE00F0E66A252EFDD71200478E46BC05
:1006A0000CD0040100B514D004019C5111E070EC91
:1006B00002F0479EE8CF09F00BD0050100B508D045
:1006C00005019C5105E070EC02F0479EE8CF09F06F
:1006D000000112000900F550D8B412009CEC02F0A1
:1006E000F9D71200036A000EFB6E060EFA6E044480
:1006F000016EFC0E0124D8B0FA2AF96EB9D0B8D038
:10070000B7D00DD0B5D0B4D0B3D016D0B1D0B0D012
:10071000AFD01ED039D0ACD08CD090D012000F2AE0
:100720000F50140AD8B40F6A468830EC37F0469858
:10073000CBEC04F0236AA1D00F06130E0F600F6EEE
:10074000468830EC37F04698CBEC04F0236A95D01D
:1007500005EC05F048BE06D0478230EC37F0CBEC14
:1007600004F08BD0F5EC3AF0000EF86E780EF76ED0
:10077000620EF66E39EC06F0456A45800E01C29BAA
:100780000001D59E236A79D02352D8B471D0000ECF
:10079000F86E790EF76EE80EF66E39EC06F09E8470
:1007A000230E9B6E010E9C6E06EC03F0469CF6EC4D
:1007B00004F0046A46968E5000000F01126B0E0181
:1007C000C28900014EEC03F047BE11D0C10E096290
:1007D000F9D71AEC05F0000EF86E7A0EF76E100ECF
:1007E000F66E39EC06F0320ED4EC05F0FF0046A6AA
:1007F000E9D70E01C29B0001D59E46901AEC05F088
:100800002AEC05F0000EF86E770EF76E440EF66EC9
:1008100039EC06F0320ED4EC05F0000EF86E790ECD
:10082000F76E640EF66E39EC06F0320ED4EC05F07D
:10083000FF002352D8B41CD006EF07F005EC05F0FA
:1008400048BE06D0478030EC37F0CBEC04F015D032
:10085000000EF86E780EF76E780EF66E39EC06F034
:10086000456A45800E01C29B0001D59E236A05D0D2
:1008700058EC05F0CBEC04F000D047924790046AA6
:100880001200056A052E01D07CD0066A062E01D022
:10089000F9D78E1C006EF00BF9E0FE0E846E50EF5F
:1008A00004F052EF04F054EF04F056EF04F08E1C05
:1008B000F00B10E00F0E046E00B866D00B0E046E45
:1008C00000BA62D0070E046E00BC5ED0030E046E48
:1008D00000BE5AD0FD0E846E6DEF04F06FEF04F091
:1008E00071EF04F073EF04F08E1CF00B10E00E0EAD
:1008F000046E00B849D00A0E046E00BA45D0060E48
:10090000046E00BC41D0020E046E00BE3DD0FB0E52
:10091000846E8AEF04F08CEF04F08EEF04F090EF19
:1009200004F08E1CF00B10E00D0E046E00B82CD0FD
:10093000090E046E00BA28D0050E046E00BC24D047
:10094000010E046E00BE20D0F70E846EA7EF04F0F7
:10095000A9EF04F0ABEF04F0ADEF04F08E1CF00B48
:1009600010E00C0E046E00B80FD0080E046E00BA32
:100970000BD0040E046E00BC07D0000E046E00BE47
:1009800003D0046A469604D046860E01C29900013F
:10099000F00E846E120046A40ED0D46AD36AD696A6
:1009A000D684D682D690468046921AC002F00E01B6
:1009B000C28B0001D58E120046A0120046A2120082
:1009C0004690036A236A49964998499A086A456A93
:1009D0004580000EF86E780EF76E440EF66E39EC18
:1009E00006F00E01C29B0001D59E1200F00E841687
:1009F00000000000D3EC05F08E1CF00BFBE1D3EC03
:100A000005F08E1CF00BFBE11200489EF00E8416E0
:100A100000000000320E056ED3EC05F08E1CF00BCA
:100A200008E0052EF9D74AEC05F0070ED4EC05F0E6
:100A3000488E1200180E0AEC06F0200E0AEC06F0A2
:100A400012002C0E0AEC06F0200E0AEC06F009EC5F
:100A500006F0120045BA1DD045A410D00F50090A67
:100A60000DE104500B0A01E105D004500F0AD8A48F
:100A700005D000D01952D8A40CD003D0196601D0EB
:100A800008D0000EF86E770EF76EB20EF66E39ECE7
:100A900006F0120019520BE0000EF86E770EF76E9A
:100AA000C00EF66E39EC06F0080ED4EC05F012001C
:100AB000000EF86E770EF76ECE0EF66E39EC06F07D
:100AC000120046BC0AD000D0000EF86E790EF76E08
:100AD000060EF66E39EC06F008D0000EF86E790EB0
:100AE000F76E0E0EF66E39EC06F0120046BC06D01C
:100AF0000401006B9C6B9D6B9E6B05D00501006B28
:100B00009C6B9D6B9E6B0001120046BC09D0800E51
:100B1000256E040114EE1CF0E66A252EFDD708D0E0
:100B2000800E256E050115EE1CF0E66A252EFDD718
:100B3000000112004F90E8CF10F32F0807E006E203
:100B400010C3E8FF3B0802E001E34F8010C3E8FF59
:100B5000120003011451125F1351D8A0133D115F0D
:100B6000000112000301121F111F123D1107112B6A
:100B7000126F11110001120003010B510E6FD8907A
:100B80000E370E370E270E370C510E270D6B000E49
:100B90000A6507D0D890640E0E27D8B00D2B0A072F
:100BA000F6D700011200010EE8CF05F3200EE8CFC2
:100BB00006F3DAEF05F0DCEF05F0DEEF05F0E0EF2D
:100BC00005F0E2EF05F00000F50EE8CF07F30000B6
:100BD000000007C3E8FFE806E8CF07F3FAE10000EA
:100BE00006C3E8FFE806E8CF06F3EEE105C3E8FF39
:100BF000E806E8CF05F305E0FDEF05F0FFEF05F0AF
:100C0000D5D712000E6E0AEC06F009EC06F00E5075
:100C100012000D0E0D2E03D08FB6FED70D86F29E5C
:100C2000F29C0A6E0C0E0B6E8590090E0C6E0B2E4C
:100C300017EF06F00C0E0B6E0C2E12D00000000009
:100C4000000000000000000085800D0E0B6E0B2ED2
:100C500027EF06F00000F28EF28C0A320A501200E2
:100C600000000A32D8A003D000008580E0D785902C
:100C7000DED70900F550D8B412008FB6FED70AECC3
:100C800006F0F7D7320ED4EC05F009EC06F0230E8F
:100C9000D4EC05F01E0E0AEC06F0010E0AEC06F08C
:100CA000400E0AEC06F009EC06F0010E0AEC06F024
:100CB000330E0AEC06F04B0E0AEC06F009EC06F0D7
:100CC00009EC06F00FC024F0140E0F6E0F0630EC86
:100CD00037F0D3EC05F00F50F9E124C00FF0000E0F
:100CE000F86E760EF76E2A0EF66E39EC06F01200EC
:100CF0001200E8CF0FF3F00BE83890EC06F00AECA6
:100D000006F0200E0AEC06F00FC3E8FF0F0B90EC84
:100D100006F00AEC06F009EC06F00FC3E8FF12003B
:100D2000016E000EFB6E0D0EFA6E0144016E380E60
:100D30000124D8B0FA2AF96E300C310C320C330C85
:100D4000340C350C360C370C380C390C410C420C79
:100D5000430C440C450C460C1200E8CF0FF3C5ECD5
:100D600006F0300F0AEC06F00FC3E8FFDAEC06F0ED
:100D7000300F0AEC06F00FC3E8FFF0EC06F0300F7E
:100D80000AEC06F00FC3E8FF1200E8CF0BF3000EE9
:100D9000E8CF0CF30CC3E8FFE82AE8CF0CF30BC351
:100DA000E8FF9C0FE8CF0BF3D8B0F4D70CC3E8FFF3
:100DB000E8061200E8CF0BF3000EE8CF0CF30CC3EB
:100DC000E8FFE82AE8CF0CF30BC3E8FFF60FE8CF03
:100DD0000BF3D8B0F4D70CC3E8FFE806F0EF06F049
:100DE000E8CF0CF30CC3E8FFF60FE8CF0CF3D8B054
:100DF000F9D70CC3E8FF0A0F1200000EF86E7A0E46
:100E0000F76E4C0EF66E39EC06F01200330E0AEC5B
:100E100006F009EC06F0640ED4EC05F0320E0AEC94
:100E200006F009EC06F0640ED4EC05F0310E0AEC85
:100E300006F009EC06F0640ED4EC05F0000EF86E36
:100E4000790EF76E640EF66E39EC06F0FA0ED4ECFD
:100E500005F0FF001200468E000EF86E790EF76E58
:100E6000780EF66E39EC06F0CBEC04F01200000EB2
:100E7000F86E770EF76E580EF66E39EC06F012002B
:100E8000000EF86E770EF76E640EF66E39EC06F013
:100E900012004AA4FED726EC03F0D3EC05F0000EB6
:100EA000F86E8E0EF76EAE0EF66E39EC06F04696C4
:100EB0008E500000320ED4EC05F00F01126B0E01C3
:100EC000CA99C28900014B0E416E490E066FFA0E97
:100ED000076F46B61AD0072FFED7062FF8D7412E38
:100EE000F4D7440EE8CFB0F1420EE8CFB1F13B0E9B
:100EF000E8CFB2F116EC34F04EA207D05DEC1CF056
:100F00004AAC02D078EC1CF0DED72AEC05F0000EDB
:100F1000F86E7A0EF76E360EF66E39EC06F02B6A26
:100F2000469612004AA4FED726EC03F0D3EC05F057
:100F3000000EF86E8E0EF76EC20EF66E39EC06F0ED
:100F400046968E500000320ED4EC05F00F01126B65
:100F50000E01CA99C28900014B0E416E490E066FFF
:100F6000FA0E076F46B61AD0072FFED7062FF8D70E
:100F7000412EF4D7440EE8CFB0F1530EE8CFB1F1D3
:100F80003B0EE8CFB2F116EC34F04EA207D0ADEC38
:100F90001AF04AAA02D0BEEC1AF0DED72AEC05F00D
:100FA000000EF86E7A0EF76E360EF66E39EC06F01D
:100FB0002B6A469612004AA4FED726EC03F0D3EC27
:100FC00005F0000EF86E8E0EF76ED80EF66E39EC48
:100FD00006F046968E500000320ED4EC05F00F015C
:100FE000126B0E01CA99C28900014B0E416E490E67
:100FF000066FFA0E076F46B63ED0072FFED7062FB4
:10100000F8D7412EF4D7440EE8CFB0F1530EE8CF15
:10101000B1F13B0EE8CFB2F116EC34F04EA22BD07A
:10102000ADEC1AF04AAA0DD01AEC05F0BEEC1AF09D
:101030002C0E0AEC06F0200E0AEC06F00D0E0AEC5F
:1010400006F0440EE8CFB0F1420EE8CFB1F13B0E0E
:10105000E8CFB2F116EC34F04EA20DD05DEC1CF0EE
:101060004AAC08D0420E0AEC06F0200E0AEC06F05C
:1010700078EC1CF0BAD72AEC05F0000EF86E7A0E68
:10108000F76E360EF66E39EC06F02B6A46961200B5
:101090004AA4FED726EC03F0D3EC05F0410EE8CFCE
:1010A000B0F14E0EE8CFB1F13B0EE8CFB2F116EC45
:1010B00034F04EA20BD01AEC05F076EC2DF04DB0CA
:1010C00003D04DB201D002D068EC08F02B6A1200B8
:1010D0004AA4FED726EC03F0D3EC05F00A0ED4ECBC
:1010E00005F0410EE8CFB0F1520EE8CFB1F13B0E62
:1010F000E8CFB2F116EC34F04EA20ED002C7E8FFF2
:10110000310A0AE121EC05F0000EF86E7B0EF76E55
:10111000860EF66E39EC06F02B6A12004AA4FED752
:1011200026EC03F0D3EC05F0530E0AEC06F06E0E3D
:101130000AEC06F0610E0AEC06F0700E0AEC06F0FE
:10114000200E4EB40AEC06F0420E4EB40AEC06F045
:101150000D0E0AEC06F0460EE8CFB0F1410E4EB48B
:10116000420EE8CFB1F13B0EE8CFB2F116EC34F00D
:101170004EA24BD00AC700F0340E006432D009C72B
:10118000E8FFE82AE8CF09F73A0A2BE1300EE8CF6A
:1011900009F708C7E8FFE82AE8CF08F73A0A21E18B
:1011A000300EE8CF08F707C7E8FFE82AE8CF07F7CF
:1011B0003A0A17E1300EE8CF07F706C7E8FFE82A3A
:1011C000E8CF06F73A0A0DE1300EE8CF06F705C77B
:1011D000E8FFE82AE8CF05F73A0A03E1300EE8CF46
:1011E00005F7300EE8CF0AF7E8CF0BF7E8CF0CF79A
:1011F0000E0E256E076A07EE00F00750EBCFE8FFF2
:101200009CEC02F0072A252EF6D74E9412004AA431
:10121000FED726EC03F0D3EC05F0000EF86E810E3D
:10122000F76E460EF66E39EC06F04DB602D04DA4C0
:1012300009D0000EF86E810EF76EFA0EF66E39ECDC
:1012400006F035D0490EE8CFB0F1430EE8CFB1F14A
:101250003B0EE8CFB2F116EC34F04EA228D01AECD7
:1012600005F003C7E8FFE8B607D0000EF86E810E60
:10127000F76E580EF66E06D0000EF86E810EF76E01
:10128000720EF66E39EC06F003C7E8FFE8B407D03B
:10129000000EF86E810EF76E8C0EF66E06D0000E04
:1012A000F86E810EF76EC40EF66E39EC06F02B6AFE
:1012B00012004AA4FED726EC03F0D3EC05F04DB69D
:1012C00002D04DA402D01B6648841AEC05F0300E03
:1012D000016E000E04180FE14DB6B3D0300E006E53
:1012E0001B669CD0000EF86E7D0EF76E860EF66EB5
:1012F00039EC06F093D0010E04180DE1310E006EAA
:101300001B668CD0000EF86E7D0EF76E8C0EF66E9E
:1013100039EC06F083D0020E04180DE1320E006E97
:101320001B667CD0000EF86E7D0EF76E920EF66E88
:1013300039EC06F073D0040E04180DE1330E006E84
:101340001B666CD0000EF86E7D0EF76E980EF66E72
:1013500039EC06F063D0050E04180DE1350E006E71
:101360001B665CD0000EF86E7D0EF76EA40EF66E56
:1013700039EC06F053D0060E04180DE1360E006E5F
:101380001B664CD0000EF86E7D0EF76EAA0EF66E40
:1013900039EC06F043D0080E04180DE1370E006E4C
:1013A0001B663CD0000EF86E7D0EF76EB00EF66E2A
:1013B00039EC06F033D0090E04180DE1380E006E3A
:1013C0001B662CD0000EF86E7D0EF76EB60EF66E14
:1013D00039EC06F023D00A0E04180DE1390E006E28
:1013E0001B661CD0000EF86E7D0EF76EBC0EF66EFE
:1013F00039EC06F013D00D0E04182BE14DB621D0B8
:10140000310E016E300E006E1B6608D0000EF86EB5
:101410007D0EF76EC20EF66E39EC06F0420E9CECB5
:1014200002F04E0E9CEC02F001509CEC02F00050D9
:101430009CEC02F03B0E9CEC02F01E0ED4EC05F08E
:1014400008D0000EF86E770EF76ECE0EF66E39EC01
:1014500006F0499A2B6A12004AA4FED726EC03F044
:10146000D3EC05F0420EE8CFB0F1470EE8CFB1F172
:101470003B0EE8CFB2F116EC34F04EA204D01AECD9
:1014800005F086EC2DF02B6A12004AA4FED726EC5C
:1014900003F0D3EC05F0430EE8CFB0F1500EE8CFE7
:1014A000B1F13B0EE8CFB2F116EC34F04EA204D00D
:1014B0001AEC05F096EC2DF02B6A12004AA4FED728
:1014C00026EC03F0D3EC05F0000EF86E7B0EF76E01
:1014D000A00EF66E39EC06F04890490EE8CFB0F158
:1014E000430EE8CFB1F13B0EE8CFB2F116EC34F089
:1014F0004EA24BD004C7E8FFE8AA09D0000EF86E50
:101500007E0EF76E9A0EF66E39EC06F0488004C730
:10151000E8FFE8A609D0000EF86E7E0EF76EBC0E4E
:10152000F66E39EC06F0488004C7E8FFE8B409D04D
:10153000000EF86E7E0EF76ED60EF66E39EC06F0E3
:10154000488004C7E8FFE8A209D0000EF86E7E0EBE
:10155000F76EFE0EF66E39EC06F0488004C7E8FF21
:10156000E8A009D0000EF86E7F0EF76E0C0EF66E36
:1015700039EC06F0488048B008D0000EF86E7F0EB7
:10158000F76EEE0EF66E39EC06F02B6A12004AA4E6
:10159000FED726EC03F0D3EC05F0000EF86E7F0EBC
:1015A000F76E260EF66E39EC06F04890490EE8CF3D
:1015B000B0F1430EE8CFB1F13B0EE8CFB2F116EC3B
:1015C00034F04EA26BD005C7E8FFE8AA09D0000EA0
:1015D000F86E7F0EF76E3A0EF66E39EC06F0488024
:1015E00005C7E8FFE8A809D0000EF86E7F0EF76E79
:1015F0004C0EF66E39EC06F0488005C7E8FFE8A609
:101600001CD0000EF86E7F0EF76E600EF66E39EC91
:1016100006F0488006C7E8FFE8AA07D0000EF86E7B
:101620007F0EF76E740EF66E06D0000EF86E7F0E0B
:10163000F76E8C0EF66E39EC06F005C7E8FFE8A4ED
:1016400009D0000EF86E7F0EF76EA40EF66E39EC20
:1016500006F0488005C7E8FFE8A209D0000EF86E42
:101660007F0EF76EB60EF66E39EC06F0488005C7B1
:10167000E8FFE8A009D0000EF86E7F0EF76ED20EDC
:10168000F66E39EC06F0488048B008D0000EF86ECF
:101690007F0EF76EEE0EF66E39EC06F02B6A120036
:1016A0004AA4FED726EC03F0D3EC05F0440EE8CFB5
:1016B000B0F1420EE8CFB1F13B0EE8CFB2F116EC3B
:1016C00034F04EA205D01AEC05F081EC1CF0499ED6
:1016D0002B6A12004AA4FED726EC03F0D3EC05F0E7
:1016E000440EE8CFB0F1530EE8CFB1F13B0EE8CF96
:1016F000B2F116EC34F04EA205D01AEC05F0C1ECB4
:101700001AF0499E2B6A12004AA4FED726EC03F079
:10171000D3EC05F0460EE8CFB0F1410EE8CFB1F1C1
:101720003B0EE8CFB2F116EC34F04EA219D048824D
:101730001AEC05F0E0EC34F048921F5211E04D0E27
:10174000E8CFB0F1440EE8CFB1F13B0EE8CFB2F1F3
:1017500016EC34F04EA204D002C73AF060EC0DF063
:101760002B6A12004AA4FED726EC03F0D3EC05F056
:10177000460EE8CFB0F1420EE8CFB1F13B0EE8CF14
:10178000B2F116EC34F04EA21CD048821AEC05F0EF
:10179000E0EC34F048921F5214E04D0EE8CFB0F167
:1017A000440EE8CFB1F1240EE8CFB2F13B0EE8CF02
:1017B000B3F116EC34F04EA204D003C73AF060EC5B
:1017C0000DF02B6A12004AA4FED726EC03F0D3ECEE
:1017D00005F0460EE8CFB0F1570EE8CFB1F13B0E61
:1017E000E8CFB2F14EA406D0240EE8CFB2F13B0E02
:1017F000E8CFB3F116EC34F04EA233D03F0EE8CF71
:10180000A8F1AEEC2DF02C0E0AEC06F0200E0AEC3E
:1018100006F0000EF86E7C0EF76EFE0EF66E39ECDA
:1018200006F0490EE8CFB0F1530EE8CFB1F13B0E10
:10183000E8CFB2F116EC34F04EA213D003C7E8FFA4
:101840000AEC06F004C7E8FF0AEC06F005C7E8FF5B
:101850000AEC06F006C7E8FF0AEC06F00D0E0AECEB
:1018600006F04E942B6A12004AA4FED726EC03F031
:10187000D3EC05F0470EE8CFB0F1540EE8CFB1F14C
:101880003B0EE8CFB2F116EC34F04EA202D069EC78
:101890002CF02B6A12004AA4FED726EC03F0D3ECFE
:1018A00005F0000EF86E7F0EF76EFA0EF66E39EC4C
:1018B00006F0490EE8CFB0F1430EE8CFB1F13B0E90
:1018C000E8CFB2F116EC34F04EA2AAD002C7E8FF7E
:1018D000E8AA08D0000EF86E800EF76E080EF66EBD
:1018E00039EC06F002C7E8FFE8A808D0000EF86E51
:1018F000800EF76E140EF66E39EC06F04DB60FD072
:101900004DB40DD003C7E8FFE8A015D0000EF86E67
:10191000800EF76EB60EF66E39EC06F00CD003C7EB
:10192000E8FFE8A008D0000EF86E800EF76ECA0E31
:10193000F66E39EC06F04DB60ED04DB40CD003C7A0
:10194000E8FFE8A808D0000EF86E800EF76E8E0E45
:10195000F66E39EC06F002C7E8FFE8B607D0000ED5
:10196000F86E800EF76E2E0EF66E06D0000EF86E34
:10197000800EF76E400EF66E39EC06F002C7E8FFF7
:10198000E8A408D0000EF86E800EF76E520EF66EC8
:1019900039EC06F002C7E8FFE8B007D0000EF86E99
:1019A000800EF76E660EF66E06D0000EF86E800E94
:1019B000F76E7A0EF66E39EC06F006C7E8FFE8A877
:1019C00008D0000EF86E800EF76EDC0EF66E39EC65
:1019D00006F04DB60ED04DB40CD006C7E8FFE8A611
:1019E00008D0000EF86E800EF76EFA0EF66E39EC27
:1019F00006F04DB602D04DA413D006C7E8FFE8B2FA
:101A000007D0000EF86E810EF76E180EF66E06D037
:101A1000000EF86E810EF76E300EF66E39EC06F0A1
:101A20002B6A12004AA4FED726EC03F0D3EC05F093
:101A30004B0EE8CFB0F1530EE8CFB1F13B0EE8CF3B
:101A4000B2F116EC34F04EA202D05FEC2EF02B6A0D
:101A500012004AA4FED726EC03F0D3EC05F04EB4F6
:101A600010D04D0EE8CFB0F1440EE8CFB1F13B0EEF
:101A7000E8CFB2F116EC34F04EA21FD002C73AF014
:101A80001AD0000EF86E7B0EF76E160EF66E39EC5D
:101A900006F04D0EE8CFB0F1440EE8CFB1F1240EC0
:101AA000E8CFB2F13B0EE8CFB3F116EC34F04EA222
:101AB00004D003C73AF0A7EC0DF04E942B6A120045
:101AC000310E3A1804E14C0E0AEC06F03CD0320E0E
:101AD0003A1804E1550E0AEC06F035D0330E3A18E8
:101AE00004E1430E0AEC06F02ED0340E3A1804E15D
:101AF000460E0AEC06F027D0350E3A1804E1410EE6
:101B00000AEC06F020D0360E3A1804E1440E0AEC36
:101B100006F019D0370E3A180AE1430E0AEC06F027
:101B2000200E0AEC06F0520E0AEC06F00CD0390E2C
:101B30003A1809E1440E0AEC06F0200E0AEC06F011
:101B4000520E0AEC06F00D0E0AEC06F01200000E22
:101B5000F86E7C0EF76E480EF66E39EC06F0310E1C
:101B60003A1809E1000EF86E7C0EF76E880EF66EDC
:101B700039EC06F064D0320E3A1809E1000EF86E26
:101B80007C0EF76E800EF66E39EC06F058D0330EF0
:101B90003A1809E1000EF86E7C0EF76E500EF66EE4
:101BA00039EC06F04CD0340E3A1809E1000EF86E0C
:101BB0007C0EF76E7A0EF66E39EC06F040D0350EDC
:101BC0003A1809E1000EF86E7C0EF76E420EF66EC2
:101BD00039EC06F034D0360E3A1818E1000EF86EE3
:101BE0007C0EF76E640EF66E39EC06F0440EE8CF0C
:101BF000B0F1540EE8CFB1F13B0EE8CFB2F116ECE4
:101C000034F04EA21CD04EEC0EF019D0370E3A181C
:101C100009E1000EF86E7C0EF76E560EF66E39EC8A
:101C200006F00DD0390E3A180AE1000EF86E7C0E5F
:101C3000F76E6A0EF66E39EC06F0070E376E12007C
:101C40004AA4FED726EC03F0D3EC05F04D0EE8CF06
:101C5000B0F1470EE8CFB1F13B0EE8CFB2F116EC90
:101C600034F04EA202D077EC2EF02B6A12004AA478
:101C7000FED726EC03F0D3EC05F04D0EE8CFB0F123
:101C80004C0EE8CFB1F13B0EE8CFB2F116EC34F0D8
:101C90004EA202D08FEC2EF02B6A120002C7E8FF92
:101CA000300A09E1000EF86E7C0EF76E640EF66ED7
:101CB00039EC06F026D002C7E8FF310A09E1000E30
:101CC000F86E7C0EF76E900EF66E39EC06F019D0B9
:101CD00002C7E8FF320A09E1000EF86E7C0EF76ECB
:101CE000980EF66E39EC06F00CD002C7E8FF330A06
:101CF00008E1000EF86E7C0EF76EAE0EF66E39EC53
:101D000006F012004AA4FED726EC03F0D3EC05F04F
:101D1000490EE8CFB0F1430EE8CFB1F13B0EE8CF6A
:101D2000B2F116EC34F04EA277D002C7E8FFE8AC6F
:101D300009D0000EF86E7B0EF76E280EF66E39ECA9
:101D400006F06AD04EB410D04E0EE8CFB0F1420E7D
:101D5000E8CFB1F13B0EE8CFB2F116EC34F04EA271
:101D60005BD002C700F01AD0000EF86E7B0EF76E43
:101D7000160EF66E39EC06F04E0EE8CFB0F1420EBC
:101D8000E8CFB1F1240EE8CFB2F13B0EE8CFB3F1CA
:101D900016EC34F04EA240D003C700F0000EF86EEF
:101DA0007C0EF76E000EF66E39EC06F0310E001860
:101DB00009E0000EF86E770EF76E580EF66E39ECED
:101DC00006F02AD0000EF86E770EF76E640EF66EEF
:101DD00039EC06F04EB40ED04E0EE8CFB0F14C0EFA
:101DE000E8CFB1F13B0EE8CFB2F116EC34F04EA2E1
:101DF00013D010D04E0EE8CFB0F14C0EE8CFB1F1B9
:101E0000240EE8CFB2F13B0EE8CFB3F116EC34F07C
:101E10004EA202D00FEC0FF04E942B6A120017EE78
:101E200000F0020E2D6EE350240A01E12D2A000E6F
:101E3000E8CF0AF32D50E350D00FE8CF0BF32D2A53
:101E40002D50E350D00FE8CF0CF3BCEC05F00EC3DF
:101E500000F04DB6D3EF0FF04DB4D3EF0FF00E0EF0
:101E600000640DD0000EF86E820EF76E340EF66E22
:101E700039EC06F0220E00240AEC06F035D0070EED
:101E800000640DD0000EF86E820EF76E2A0EF66E0C
:101E900039EC06F0290E00240AEC06F025D0000EDD
:101EA00000640DD0000EF86E820EF76E200EF66EF6
:101EB00039EC06F0300E00240AEC06F015D0440E82
:101EC0000AEC06F0530E0AEC06F0500E0AEC06F08F
:101ED000200E0AEC06F04F0E0AEC06F0660E0AEC35
:101EE00006F0660E0AEC06F02C0E0AEC06F0200E48
:101EF0000AEC06F0000EE8CF0AF32D2A2D50E3502D
:101F0000D00FE8CF0BF32D2A2D50E350D00FE8CFA0
:101F10000CF3BCEC05F00EC300F00E0E00640DD007
:101F2000000EF86E820EF76E520EF66E39EC06F069
:101F3000220E00240AEC06F048D0070E00640DD0F3
:101F4000000EF86E820EF76E480EF66E39EC06F053
:101F5000290E00240AEC06F038D0000E00640DD0E3
:101F6000000EF86E820EF76E3E0EF66E39EC06F03D
:101F7000300E00240AEC06F028D0490E0AEC06F0D8
:101F8000200E0AEC06F0460E0AEC06F0200E0AECD3
:101F900006F04F0E0AEC06F0660E0AEC06F0660E2E
:101FA0000AEC06F012D0000EF86E820EF76E5C0E90
:101FB000F66E39EC06F00BC3E8FF300F0AEC06F0C2
:101FC0000CC3E8FF300F0AEC06F00D0E0AEC06F029
:101FD00012004AA4FED726EC03F0D3EC05F04DB076
:101FE0002FD04DB22DD0440EE8CFB0F1530EE8CF34
:101FF000B1F13B0EE8CFB2F116EC34F04EA27AD03C
:102000000BC7E8FFE8B411D0000EF86E7C0EF76E37
:10201000B40EF66E39EC06F0000EF86E770EF76E21
:10202000580EF66E39EC06F065D0000EF86E7C0E98
:10203000F76EB40EF66E39EC06F0F0EC10F05AD0F4
:10204000490EE8CFB0F1430EE8CFB1F13B0EE8CF37
:10205000B2F116EC34F04EA24DD002C7E8FFE8AC66
:1020600015D0000EF86E7B0EF76E1C0EF66E39EC76
:1020700006F003C7E8FFE8B009D0000EF86E800E46
:10208000F76E9E0EF66E39EC06F034D0440EE8CFB3
:10209000B0F1530EE8CFB1F13B0EE8CFB2F116EC40
:1020A00034F04EA227D00BC7E8FFE8B411D0000EE1
:1020B000F86E7C0EF76EB40EF66E39EC06F0000E7C
:1020C000F86E770EF76E580EF66E39EC06F012D0F9
:1020D000000EF86E7C0EF76EB40EF66E39EC06F05C
:1020E000000EF86E770EF76E640EF66E39EC06F0A1
:1020F0007CEC10F02B6A12002C0E0AEC06F0200E7D
:102100000AEC06F0440EE8CFB0F1420EE8CFB1F190
:102110003B0EE8CFB2F116EC34F04EA260D007C708
:10212000E8FF2D0A0DE117EE04F0060E2E6EE650C4
:102130000AEC06F02E2EFBD70D0E0AEC06F04FD05F
:10214000FF0E301809E0000EF86E8E0EF76EF80ED6
:10215000F66E39EC06F043D0530E9CEC02F0570EAD
:102160009CEC02F0480E9CEC02F0330E9CEC02F06A
:10217000340E9CEC02F03B0E9CEC02F0190ED4ECF9
:1021800005F0440EE8CFB0F1420EE8CFB1F13B0EBE
:10219000E8CFB2F116EC34F04EA221D017EE04F0E5
:1021A000060E2E6EE6500AEC06F02E2EFBD70D0E14
:1021B0000AEC06F0530E9CEC02F0570E9CEC02F079
:1021C000540E9CEC02F0330E9CEC02F0340E9CECAE
:1021D00002F03B0E9CEC02F00F0ED4EC05F0120066
:1021E000440EE8CFB0F1420EE8CFB1F13B0EE8CF9C
:1021F000B2F116EC34F04EA25ED004C7E8FF4E0AEE
:1022000004E105C7E8FF520A43E0FF0E301809E079
:10221000000EF86E8E0EF76EF80EF66E39EC06F0C4
:102220004AD0530E9CEC02F0570E9CEC02F0480E84
:102230009CEC02F0310E9CEC02F0390E9CEC02F0AA
:102240003B0E9CEC02F00F0ED4EC05F0530E9CEC10
:1022500002F0570E9CEC02F0480E9CEC02F0310E9E
:102260009CEC02F0390E9CEC02F03B0E9CEC02F070
:10227000140ED4EC05F0440EE8CFB0F1420EE8CFD6
:10228000B1F13B0EE8CFB2F116EC34F04EA213D010
:10229000000EF86E820EF76E5C0EF66E39EC06F0EC
:1022A00007C7E8FF0AEC06F008C7E8FF0AEC06F0EB
:1022B0000D0E0AEC06F012004AA4FED726EC03F03D
:1022C000D3EC05F0440EE8CFB0F1530EE8CFB1F1F6
:1022D0003B0EE8CFB2F116EC34F04EA22AD00BC779
:1022E000E8FFE8B01CD0E8B211D0000EF86E7C0E0A
:1022F000F76EC60EF66E39EC06F0000EF86E770E2D
:10230000F76E580EF66E39EC06F013D0000EF86E2C
:102310007C0EF76ECE0EF66E39EC06F00AD0000E8B
:10232000F86E7C0EF76EDC0EF66E39EC06F09BEC68
:1023300011F02B6A1200440EE8CFB0F1420EE8CF44
:10234000B1F13B0EE8CFB2F116EC34F04EA26DD0F5
:1023500008C7E8FF5A0A0DE117EE02F0080E2E6ECC
:10236000E6500AEC06F02E2EFBD70D0E0AEC06F016
:102370005CD04DA60BD04DA409D0000EF86E770EA0
:10238000F76E640EF66E39EC06F04FD0FF0E301883
:1023900009E0000EF86E8E0EF76EF80EF66E39EC50
:1023A00006F043D0530E9CEC02F0570E9CEC02F06A
:1023B000480E9CEC02F0330E9CEC02F0320E9CECCA
:1023C00002F03B0E9CEC02F0190ED4EC05F0440E2A
:1023D000E8CFB0F1420EE8CFB1F13B0EE8CFB2F159
:1023E00016EC34F04EA221D017EE02F0080E2E6E3D
:1023F000E6500AEC06F02E2EFBD70D0E0AEC06F086
:10240000530E9CEC02F0570E9CEC02F0540E9CEC28
:1024100002F0330E9CEC02F0320E9CEC02F03B0E0C
:102420009CEC02F0190ED4EC05F012004AA4FED781
:1024300026EC03F0D3EC05F0500EE8CFB0F1410EDE
:10244000E8CFB1F14EB404D03B0EE8CFB2F106D0E4
:10245000240EE8CFB2F13B0EE8CFB3F116EC34F026
:102460004EA202D0E0EC2EF04E942B6A12004AA449
:10247000FED726EC03F0D3EC05F0500EE8CFB0F118
:10248000430EE8CFB1F13B0EE8CFB2F116EC34F0D9
:102490004EA202D098EC2CF02B6A12004AA4FED770
:1024A00026EC03F0D3EC05F0520EE8CFB0F1410E6C
:1024B000E8CFB1F14EB404D03B0EE8CFB2F106D074
:1024C000240EE8CFB2F13B0EE8CFB3F116EC34F0B6
:1024D0004EA202D0CBEC2CF04E942B6A12004AA4F0
:1024E000FED726EC03F0D3EC05F0520EE8CFB0F1A6
:1024F000540EE8CFB1F13B0EE8CFB2F116EC34F058
:102500004EA263D002C7E8FF006E300A0EE0000E54
:10251000F86E7D0EF76E0A0EF66E39EC06F02C0E94
:102520000AEC06F0200E0AEC06F0580EE8CFB0F1E7
:10253000540EE8CFB1F13B0EE8CFB2F116EC34F017
:102540004EA243D002C7E8FF300A0FE0000EF86E3B
:102550007D0EF76E120EF66E39EC06F02C0E0AECBC
:1025600006F0200E0AEC06F00CD0300E001809E13F
:10257000000EF86E7D0EF76E1A0EF66E39EC06F050
:1025800024D0520EE8CFB0F14F0EE8CFB1F13B0EA0
:10259000E8CFB2F116EC34F04EA217D002C7E8FF34
:1025A0000AEC06F003C7E8FF0AEC06F004C7E8FFF0
:1025B0000AEC06F005C7E8FF0AEC06F006C7E8FFDC
:1025C0000AEC06F00D0E0AEC06F02B6A12004AA483
:1025D000FED726EC03F0D3EC05F04EB40ED0530E2C
:1025E000E8CFB0F14D0EE8CFB1F13B0EE8CFB2F13C
:1025F00016EC34F04EA213D010D0530EE8CFB0F149
:102600004D0EE8CFB1F1240EE8CFB2F13B0EE8CF8A
:10261000B3F116EC34F04EA202D0A8EC2AF04E949E
:102620002B6A12004AA4FED726EC03F0D3EC05F087
:102630000A0ED4EC05F0000EF86E8F0EF76E4C0EFD
:10264000F66E39EC06F04DB602D04DA409D0000E5E
:10265000F86E810EF76EFA0EF66E39EC06F01FD0AA
:10266000530EE8CFB0F1570EE8CFB1F13B0EE8CFF3
:10267000B2F116EC34F04EA212D002C7E8FF0AEC19
:1026800006F003C7E8FF0AEC06F02E0E0AEC06F08F
:1026900004C7E8FF0AEC06F00D0E0AEC06F02B6A00
:1026A00012004AA4FED726EC03F0D3EC05F0FF0E8F
:1026B000301809E0000EF86E8E0EF76EF80EF66E0A
:1026C00039EC06F008D2540EE8CFB0F1510EE8CF45
:1026D000B1F13B0EE8CFB2F116EC34F04EA2FBD1D3
:1026E00002C7E8FF300A09E0000EF86E8F0EF76EA1
:1026F0000E0EF66E39EC06F0EED1440EE8CFB0F1D6
:10270000420EE8CFB1F13B0EE8CFB2F116EC34F057
:102710004EA2E1D117EE02F0080E2E6EE650C00F69
:102720000BE72E2EFBD717EE02F0080E2E6EE650AA
:102730002E0A0BE02E2EFBD7000EF86E780EF76EE9
:10274000E00EF66E39EC06F0C6D1440EE8CFB0F1DB
:10275000530EE8CFB1F13B0EE8CFB2F116EC34F0F6
:102760004EA2B9D14E900BC7E8FFE8B84E80500E8C
:10277000E8CFB0F1430EE8CFB1F13B0EE8CFB2F1B4
:1027800016EC34F04EA2A7D102C7F0F103C7F1F165
:1027900004C7F2F105C7F3F14EA059D04DB618D0D9
:1027A0004DB416D0530E9CEC02F0570E9CEC02F088
:1027B000480E9CEC02F0310E9CEC02F0390E9CECC1
:1027C00002F03B0E9CEC02F0140ED4EC05F03FD06E
:1027D0004D0E9CEC02F04E0E9CEC02F0300E9CEC88
:1027E00002F0320E9CEC02F0330E9CEC02F03B0E39
:1027F0009CEC02F0140ED4EC05F04D0E9CEC02F0B3
:10280000500E9CEC02F0300E9CEC02F0300E9CEC72
:1028100002F0310E9CEC02F03B0E9CEC02F0140E28
:10282000D4EC05F04D0E9CEC02F04E0E9CEC02F048
:10283000320E9CEC02F0350E9CEC02F0350E9CEC56
:1028400002F03B0E9CEC02F0140ED4EC05F04DB6F9
:1028500038D04DB436D0F3C1E8FF300A19E0500E3D
:102860009CEC02F0430E9CEC02F0300E9CEC02F06B
:10287000300E9CEC02F0350E9CEC02F0310E9CEC1C
:1028800002F03B0E9CEC02F0140ED4EC05F031D0BB
:10289000500E9CEC02F0430E9CEC02F0300E9CECCF
:1028A00002F0350E9CEC02F0300E9CEC02F0300E83
:1028B0009CEC02F03B0E9CEC02F0140ED4EC05F004
:1028C00018D0500E9CEC02F0430E9CEC02F0300E3F
:1028D0009CEC02F0320E9CEC02F0350E9CEC02F007
:1028E000300E9CEC02F03B0E9CEC02F0140ED4EC8B
:1028F00005F0530E9CEC02F0570E9CEC02F0480ED3
:102900009CEC02F0310E9CEC02F0360E9CEC02F0D6
:102910003B0E9CEC02F0320ED4EC05F0FF0EE8CF3B
:1029200053F14EAE0BD0F6EC04F046968E500000FC
:102930000F01126B0E01CA99C2890001440EE8CF43
:10294000B0F1530EE8CFB1F13B0EE8CFB2F116EC87
:1029500034F04EA21DD04EAE08D01AEC1CF04AAA9C
:1029600008D005EC1CF01AEC05F0C1EC1AF04EAEE4
:102970000FD04B0E416E490E066FFA0E076F46B62A
:1029800007D0072FFED7062FF8D7412EF4D7D6D77A
:102990004EAE0CD01AEC05F02AEC05F0000EF86EE5
:1029A0007A0EF76E360EF66E39EC06F04E9E0E017C
:1029B000C29B0F01D59E00010A0ED4EC05F0530E08
:1029C0009CEC02F0570E9CEC02F0540E9CEC02F0D2
:1029D000310E9CEC02F0360E9CEC02F03B0E9CECAF
:1029E00002F0140ED4EC05F04EA059D04DB618D01C
:1029F0004DB416D0530E9CEC02F0570E9CEC02F036
:102A0000480E9CEC02F0310E9CEC02F0390E9CEC6E
:102A100002F03B0E9CEC02F0140ED4EC05F03FD01B
:102A20004D0E9CEC02F04E0E9CEC02F0300E9CEC35
:102A300002F0320E9CEC02F0330E9CEC02F03B0EE6
:102A40009CEC02F0140ED4EC05F04D0E9CEC02F060
:102A5000500E9CEC02F0300E9CEC02F0300E9CEC20
:102A600002F0320E9CEC02F03B0E9CEC02F0140ED5
:102A7000D4EC05F04D0E9CEC02F04E0E9CEC02F0F6
:102A8000320E9CEC02F0350E9CEC02F0350E9CEC04
:102A900002F03B0E9CEC02F0140ED4EC05F0500E4C
:102AA0009CEC02F0430E9CEC02F0F0C1E8FF9CECC1
:102AB00002F0F1C1E8FF9CEC02F0F2C1E8FF9CECEF
:102AC00002F0F3C1E8FF9CEC02F03B0E9CEC02F03C
:102AD000140ED4EC05F0520E9CEC02F0580E9CEC57
:102AE00002F03B0E9CEC02F02B6A12003D6A3C6A3D
:102AF0003E6A4E964E984AA4F9D726EC03F0D3ECE2
:102B000005F0000EF86E820EF76E700EF66E39EC60
:102B100006F049BC0AD0498C000EF86E770EF76EAD
:102B2000640EF66E39EC06F009D0499C000EF86E82
:102B3000770EF76E580EF66E39EC06F012004AA4C6
:102B4000FED726EC03F0D3EC05F0440E9CEC02F02B
:102B5000420E9CEC02F0300E9CEC02F0310E9CEC2C
:102B600002F03B0E9CEC02F0140ED4EC05F0440E87
:102B7000E8CFB0F1420EE8CFB1F13B0EE8CFB2F1B1
:102B800016EC34F04EA21ED017EE02F0090E2E6E97
:102B9000E6500AEC06F0200E0AEC06F02E2EF8D7CE
:102BA0000D0E0AEC06F0440E9CEC02F0420E9CEC7A
:102BB00002F0300E9CEC02F0300E9CEC02F03B0E6A
:102BC0009CEC02F02B6A12004AA4FED726EC03F01C
:102BD000D3EC05F04C0EE8CFB0F14E0EE8CFB1F1DA
:102BE0003B0EE8CFB2F116EC34F04EA27CD002C717
:102BF000E8FF300A0EE0000EF86E8E0EF76E680EDB
:102C0000F66E39EC06F02C0E0AEC06F0200E0AECFB
:102C100006F0460EE8CFB0F1540EE8CFB1F13B0E0E
:102C2000E8CFB2F116EC34F04EA25DD002C7E8FF57
:102C3000310A0FE0000EF86E7D0EF76E340EF66E60
:102C400039EC06F02C0E0AEC06F0200E0AEC06F029
:102C50000ED0000EF86E7D0EF76E4C0EF66E39EC4F
:102C600006F02C0E0AEC06F0200E0AEC06F04C0ED4
:102C7000E8CFB0F14B0EE8CFB1F13B0EE8CFB2F1A7
:102C800016EC34F04EA22FD002C7E8FF300A0FE056
:102C9000000EF86E8E0EF76E740EF66E39EC06F0BE
:102CA0002C0E0AEC06F0200E0AEC06F000D04C0EBA
:102CB000E8CFB0F14B0EE8CFB1F1240EE8CFB2F17E
:102CC0003B0EE8CFB3F116EC34F04EA20CD003C7A4
:102CD000E8FF300A08E0000EF86E8E0EF76E860EE2
:102CE000F66E39EC06F02B6A12004AA4FED726ECE9
:102CF00003F0D3EC05F0490EE8CFB0F1430EE8CF76
:102D0000B1F13B0EE8CFB2F116EC34F04EA23AD05E
:102D100005C7E8FFE8AC08D0000EF86E820EF76E2B
:102D20009A0EF66E39EC06F004C7E8FFE8A809D061
:102D3000000EF86E820EF76EB00EF66E39EC06F0ED
:102D40000CD005C7E8FFE8BC08D0000EF86E7D0E79
:102D5000F76E620EF66E39EC06F004C7E8FFE8ACD9
:102D600009D0000EF86E820EF76E7E0EF66E39EC0C
:102D700006F008D0000EF86E820EF76E8C0EF66E1E
:102D800039EC06F02B6A12004AA4FED726EC03F0B9
:102D9000D3EC05F04EB410D0580EE8CFB0F1460E8B
:102DA000E8CFB1F13B0EE8CFB2F116EC34F04EA211
:102DB0002BD002C700F01AD0000EF86E7B0EF76E13
:102DC000160EF66E39EC06F0580EE8CFB0F1460E4E
:102DD000E8CFB1F1240EE8CFB2F13B0EE8CFB3F16A
:102DE00016EC34F04EA210D003C700F0000EF86EBF
:102DF0007C0EF76E2A0EF66E39EC06F000500AECE7
:102E000006F00D0E0AEC06F04E942B6A12004D6A85
:102E10000C0E416EDFEC02F02B6A4B0E9CEC02F0C4
:102E2000330E9CEC02F03B0E9CEC02F02B6604D0BF
:102E3000DCEC04F046B6ABD04EEC03F047BE12D04B
:102E400017EE00F02B5009C0E3FF2B2A3B0E09625E
:102E500009D000C7E8FF4B0A05E101C7E8FF330AC4
:102E600001E11FD04BA0E2D74B90412ED5D7F2EC19
:102E700002F0320ED4EC05F0420E9CEC02F0520E41
:102E80009CEC02F0330E9CEC02F03B0E9CEC02F04A
:102E9000320ED4EC05F0DFEC02F0320ED4EC05F08B
:102EA000B6D7D3EC05F0410E9CEC02F0490E9CEC39
:102EB00002F0320E9CEC02F03B0E9CEC02F0D3ECE4
:102EC00005F04B0E9CEC02F0330E9CEC02F0310E40
:102ED0009CEC02F03B0E9CEC02F0D3EC05F04B0EA8
:102EE0009CEC02F0320E9CEC02F0320E9CEC02F0F4
:102EF0003B0E9CEC02F0D3EC05F04F0EE8CFB0F1A6
:102F00004D0EE8CFB1F13B0EE8CFB2F116EC34F044
:102F10004EA27DD70CC7E8FF520A25E00EC7E8FF96
:102F20002D0A09E00EC7E8FF310A0DE00EC7E8FFE1
:102F3000320A11E020D04D80000EF86E820EF76E3E
:102F4000040EF66E20D04D86000EF86E820EF76EDF
:102F50000E0EF66E18D04D84000EF86E820EF76ECF
:102F6000140EF66E10D04D82000EF86E820EF76EC3
:102F7000080EF66E08D04D6A4468000EF86E780EA2
:102F8000F76EB80EF66E39EC06F0040E376E1200CE
:102F9000375206E120503B6E0A0ED4EC05F033D0D8
:102FA00049AC08D0FF0E306205D0010E386202D065
:102FB000030E376E010E376203D008EC18F023D0F1
:102FC000020E376203D01FEC18F01DD0030E3762DB
:102FD00003D05CEC18F017D0040E376203D051EC2C
:102FE00018F011D0050E376203D067EC18F00BD043
:102FF000070E376203D02BEC18F005D0060E3762AF
:1030000002D013EC18F037C038F0010E376E120002
:103010004D0E9CEC02F04E0E9CEC02F03B0E9CEC34
:1030200002F04B9012004C88440E9CEC02F0420ED1
:103030009CEC02F03B0E9CEC02F04B9012004C8694
:10304000440E9CEC02F0530E9CEC02F03B0E9CEC08
:1030500002F04B901200440E9CEC02F0540E9CECDB
:1030600002F03B0E9CEC02F04B90120048B802D0EC
:1030700048AA13D04AA4FAD726EC03F0D3EC05F003
:10308000460E9CEC02F048B8410E48BA420E9CEC49
:1030900002F03B0E9CEC02F0478A47984898489A09
:1030A0001200490E9CEC02F0460E9CEC02F03B0E26
:1030B0009CEC02F04B901200540E9CEC02F0420E7D
:1030C0009CEC02F03B0E9CEC02F04B901200540E74
:1030D0009CEC02F0510E9CEC02F03B0E9CEC02F0DA
:1030E0004B90120017EE00F0000EE3503F0A05E18E
:1030F0004BA284D138C037F081D1000EE350460A8C
:1031000015E1010EE350410A03E1E0EC34F076D121
:10311000010EE350420A03E1E0EC34F06FD1010EFE
:10312000E350540A03E19CEC2AF068D1000EE3500E
:103130004D0A07E1010EE3504E0A03E1D7EC1DF002
:1031400061D1000EE350440A0EE1010EE350420A41
:1031500003E15DEC1CF052D1010EE350530A03E190
:10316000ADEC1AF04BD1000EE350490A08E1010E14
:10317000E350460A04E10BEC1AF047943FD14AA40D
:103180003DD1000EE350410A1AE11E520CE0000E40
:103190001B6409D0010EE350470A05E11AEC05F063
:1031A0003DEC2DF02BD1000E1B6407D0010EE35037
:1031B0004E0A03E176EC2DF021D120D11FD1000E73
:1031C000E350420A0DE1000E1B6409D0010EE350EA
:1031D000470A05E11AEC05F086EC2DF00FD10ED16F
:1031E000000EE350430A0DE1000E1B6409D0010EEE
:1031F000E350500A05E11AEC05F096EC2DF0FED0F4
:10320000FDD0000EE350440A0DE1000E1B6409D00E
:10321000010EE350540A05E11AEC05F04EEC0EF0F5
:10322000EDD0ECD0000EE350460A09E1000E1B641D
:1032300005D0010EE350570A01E1E4D0DFD0000EC3
:10324000E350470A0DE1000E1B6409D0010EE35064
:10325000540A05E11AEC05F069EC2CF0CFD0CED081
:10326000000EE350490A0BE1000E1B6407D0010E6B
:10327000E350530A03E1FBEC2DF0C0D0BFD0000EA9
:10328000E3504B0A0DE1000E1B6409D0010EE35020
:10329000530A05E11AEC05F05FEC2EF0AFD0AED08A
:1032A000000EE3504C0A13E1000E1B640FD0010E18
:1032B000E3504E0A0BE1000EF86E820EF76E1A0E06
:1032C000F66E39EC06F019EC2DF098D097D0000E80
:1032D000E3504D0A19E1000E1B6409D0010EE350C2
:1032E000470A05E11AEC05F077EC2EF087D0000EC6
:1032F0001B6409D0010EE3504C0A05E11AEC05F0FD
:103300008FEC2EF07BD07AD0000EE3504E0A29E1EC
:10331000000E1B6411D0010EE350420A0DE11AECBD
:1033200005F0000EF86E7C0EF76E000EF66E39ECAE
:1033300006F019EC2DF062D0000E1B6411D0010EC6
:10334000E3504C0A0DE11AEC05F0000EF86E7C0E0D
:10335000F76E100EF66E39EC06F00FEC0FF04ED053
:103360004DD0000EE350500A19E1000E1B6409D045
:10337000010EE350410A05E11AEC05F0E0EC2EF0F5
:103380003DD0000E1B6409D0010EE350430A05E155
:103390001AEC05F098EC2CF031D030D0000EE35050
:1033A000520A1BE1000E1B6409D0010EE350410AD2
:1033B00005E11AEC05F0CBEC2CF020D01E520CE00D
:1033C000000E1B6409D0010EE350470A05E11AEC18
:1033D00005F0A7EC2EF012D011D0000EE350530AE6
:1033E00001E10CD0000EE350540A08E1010EE35055
:1033F000420A03E1BDEC2BF001D000D0010E346E87
:1034000013EC2FF02B6A2D6A4A92000EE8CFC8FF0A
:10341000E8CFC7FF120021C7E8FF310A0EE14DB621
:1034200002D04DA604D0478C0E01C69906D00001EB
:103430000E01C699000148844886000147B482D035
:10344000000E1B647FD017EE02F021EE80F0210EFB
:103450002E6E1DEC03F04AA87FD017C700F095C16F
:10346000E8FF001819E01AEC05F0000EF86E7D0E6A
:10347000F76E0A0EF66E39EC06F0310E001A03E113
:10348000ABEC1DF028D0000EF86E770EF76E580EDC
:10349000F66E39EC06F01FD018C700F096C1E8FFB1
:1034A000001819E01AEC05F0000EF86E7D0EF76EAC
:1034B000120EF66E39EC06F0310E001A03E1ABEC99
:1034C0001DF009D0000EF86E770EF76E580EF66EEE
:1034D00039EC06F000D017EE12F021EE90F0050E58
:1034E0002E6E1DEC03F04AA802D0ABEC1DF020C7F5
:1034F00000F09EC1E8FF00181DE0000EF86E7C0E83
:10350000F76E3A0EF66E39EC06F0310E001A09E14C
:10351000000EF86E770EF76E640EF66E39EC06F05C
:1035200009D0000EF86E770EF76E580EF66E39EC75
:1035300006F000D01DC73AF09BC1E8FF3A1802E040
:10354000A7EC0DF017EE02F021EE80F0210E2E6EAA
:10355000E650DE6E2E2EFCD7120017EE02F0080E9B
:103560002E6EE650400A05E12E2EFBD738C037F00C
:1035700004D01AEC1CF005EC1CF0120011EE53F014
:1035800003D017EE02F008D03050080A03E03050A4
:10359000090A02E14CA438D1010E2E6E2E04E3502C
:1035A000006EE8AE05D02E0E0AEC06F0009E00502C
:1035B000080E301805E0090E301802E0005015D052
:1035C00000505E0AD8B4DAD000505D0AD8B4DBD01F
:1035D00000503E0AD8B4DCD000503D0AD8B4DDD04B
:1035E00000505F0AD8B4ECD00050400A22E00050EE
:1035F000570A2BE00050590A5AE00050560A27E0BB
:103600000050510A2EE000503C0A6FE000503E0A84
:103610006EE000505A0A7CE000504B0A7BE00050FC
:10362000490A7AE00050310AD8B4A2EF1BF00050EA
:10363000DAD049AE08D0000EF86E8E0EF76E980EF6
:10364000F66E39EC06F0200ECED0490ECCD01C0E12
:10365000301805E1750E0AEC06F0200EC4D0750E88
:10366000C2D049BE22D0040EE350570A0DE1070E26
:10367000E350540A09E1000EF86E8F0EF76E280E23
:10368000F66E39EC06F0C0D0050EE3504E0A0DE19F
:10369000070EE350520A09E1000EF86E780EF76E3D
:1036A000EE0EF66E39EC06F0AFD04F0E9CD049BE50
:1036B0001AD0050EE350420A05E1070EE350500A06
:1036C00012E108D0040EE350420A0DE1060EE35069
:1036D000500A09E1000EF86E8F0EF76E380EF66E86
:1036E00039EC06F091D0590E7ED04C0E7CD049AE0C
:1036F0000AD0000EF86E8E0EF76EA00EF66E39EC44
:1037000006F0200E70D0200E0AEC06F02D0E6BD0C5
:10371000630E69D0480E67D0080E2E6211D0060ED7
:10372000E3503E0A0DE14EBE5ED0200E0AEC06F0DC
:10373000320E0AEC06F0200E0AEC06F0310E53D0E1
:10374000005051D0060E2E620AD0060EE3504E0AEB
:1037500006E1070EE3504B0A02E1490E44D0010E88
:103760002E620AD0030EE350570A06E1050EE3501D
:10377000570A02E1490E37D0005035D0200E0AEC2E
:1037800006F0320E30D0200E0AEC06F0310E2BD0AF
:10379000200E0AEC06F0300E26D04D0E0AEC06F094
:1037A000690E0AEC06F06E0E0AEC06F0750E0AECD5
:1037B00006F0730E0AEC06F0310E0AEC06F013D098
:1037C0004D0E0AEC06F0690E0AEC06F06E0E0AECDD
:1037D00006F0750E0AEC06F0730E0AEC06F0320ED7
:1037E0000AEC06F000D00AEC06F049AE06D02C0E2A
:1037F0000AEC06F0200E0AEC06F02E2A090E2E62C4
:10380000CDD60D0E0AEC06F0120002C753F103C725
:1038100054F104C755F105C756F106C757F107C75C
:1038200058F108C759F109C75AF10AC75BF10BC72C
:103830005CF112004A9A02C700F053C1E8FF00622F
:103840003AD003C700F054C1E8FF006234D004C787
:1038500000F055C1E8FF00622ED005C700F056C148
:10386000E8FF006228D006C700F057C1E8FF0062F9
:1038700022D007C700F058C1E8FF00621CD008C77B
:1038800000F059C1E8FF006216D04AB606D009C759
:1038900000F05AC1E8FF00620ED04A960AC700F055
:1038A0005BC1E8FF006207D00BC700F05CC1E8FF16
:1038B000006201D001D04A8A120017EE02F0FD0E1C
:1038C0002B24396E2E6EE650200A05E12E2EFBD7F2
:1038D00038C037F00CD019EC1DF04EAA03D04ABC0A
:1038E00059EC1DF0F3EC1CF04EBC06EC1DF0120080
:1038F0004CA004D04EBC76D04EAA74D011EE5EF02F
:1039000007D017EE02F02BC039F0FE0E392625D075
:103910003050080A03E03050090A0EE160C1E8FFA8
:103920002E0AD8B41AEC05F061C1E8FF450A04E19B
:1039300062C1E8FF510A56E05EC1E8FF420A0DE1AC
:103940005FC1E8FF570A09E160C1E8FF200A05E10D
:1039500061C1E8FF200A01E045D039502E6EE650E3
:10396000006E49AE26D0200E001809E1000EF86E58
:103970008E0EF76E980EF66E39EC06F026D02E0EEF
:10398000001809E1000EF86E8E0EF76EA60EF66EA8
:1039900039EC06F01AD02D0E001809E1000EF86E71
:1039A0008E0EF76EA00EF66E39EC06F00ED00050BB
:1039B00000D00AEC06F02E50040A07E163C1E8FFCC
:1039C0002D0A03E1200E0AEC06F049AE06D02C0EBB
:1039D0000AEC06F0200E0AEC06F02E2EC0D70D0ED3
:1039E0000AEC06F0120002C75EF103C75FF104C7DC
:1039F00060F105C761F106C762F107C763F108C747
:103A000064F109C765F10AC766F1120002C769F1DE
:103A100003C76AF104C76BF105C76CF106C76DF106
:103A200007C76EF108C76FF109C770F10AC771F1D6
:103A300012004A9C02C700F05EC1E8FF006237D066
:103A400003C700F05FC1E8FF006231D004C700F097
:103A500060C1E8FF00622BD005C700F061C1E8FF3C
:103A6000006225D006C700F062C1E8FF00621FD0E7
:103A700007C700F063C1E8FF006219D008C700F073
:103A800064C1E8FF006213D0070E396411D009C782
:103A900000F065C1E8FF00620AD0080E396408D062
:103AA0000AC700F066C1E8FF006201D001D04A8C6D
:103AB00012004E9A02C700F069C1E8FF006237D0D9
:103AC00003C700F06AC1E8FF006231D004C700F00C
:103AD0006BC1E8FF00622BD005C700F06CC1E8FFA6
:103AE000006225D006C700F06DC1E8FF00621FD05C
:103AF00007C700F06EC1E8FF006219D008C700F0E8
:103B00006FC1E8FF006213D0070E396411D009C7F6
:103B100000F070C1E8FF00620AD0080E396408D0D6
:103B20000AC700F071C1E8FF006201D001D04E8ADF
:103B30001200000EE8CF5EF1E8CF5FF1E8CF60F150
:103B4000E8CF61F1E8CF62F1E8CF63F1E8CF64F14B
:103B5000E8CF65F1120012C7E8FF0AEC06F013C7C0
:103B6000E8FF0AEC06F014C7E8FF0AEC06F015C7F8
:103B7000E8FF0AEC06F016C7E8FF0AEC06F00D0EA7
:103B80000AEC06F0120002C7E8FFD00FE8CF0AF3F4
:103B900003C7E8FFD00FE8CF0BF304C7E8FFD00F4F
:103BA000E8CF0CF3BCEC05F00EC330F012004B94E0
:103BB0004B924C92C3EC1DF0FF0E306205D04C903E
:103BC0004C92C98A99EF2AF04C80C99AFF0E316253
:103BD00001D04C8230503118D8B405D04B824B986C
:103BE00099EC1DF026D04CB603D04CB81BD021D098
:103BF0004C964CB406D04AAA0CD04CAA1AEC05F04C
:103C00004C9ABEEC1AF04A9A4C94020E376E99EF19
:103C10002AF0060E4BB8376E4B98060E376209D065
:103C200099EF2AF04C984AAC03D078EC1CF04C8AFF
:103C300000D0000EFB6E3C0EFA6ED8903034D8A047
:103C400002D0FA2AFA2AD890E834D8B0FA2A016EBB
:103C50005A0E0124D8B0FA2AF96E2EEF20F03DEF6B
:103C600020F04CEF20F05CEF20F06CEF20F07CEFC8
:103C700020F08BEF20F09AEF20F0ADEF20F0BFEFB7
:103C800020F0D1EF20F0E0EF20F0EFEF20F002EF96
:103C900021F011EF21F020EF21F02FEF21F03EEF86
:103CA00021F04DEF21F05CEF21F06BEF21F07AEF86
:103CB00021F08CEF21F09BEF21F0C1EF21F0D0EF4C
:103CC00021F0DFEF21F0EEEF21F0FDEF21F00CEF1E
:103CD00022F01BEF22F02AEF22F039EF22F048EF1A
:103CE00022F057EF22F066EF22F075EF22F088EF16
:103CF00022F097EF22F0A7EF22F0B7EF22F0C7EF04
:103D000022F0D7EF22F0E6EF22F0F5EF22F004EFF9
:103D100023F013EF23F022EF23F031EF23F040EFF5
:103D200023F04FEF23F05EEF23F06DEF23F07CEFF5
:103D300023F08BEF23F09AEF23F0A9EF23F0B8EFF5
:103D400023F0C7EF23F0D6EF23F0E5EF23F0F4EFF5
:103D500023F003EF24F012EF24F025EF24F034EFEA
:103D600024F043EF24F052EF24F061EF24F070EFE1
:103D700024F07FEF24F092EF24F0A1EF24F0B4EFD1
:103D800024F0C4EF24F0D6EF24F0E5EF24F0F4EFB4
:103D900024F003EF25F012EF25F021EF25F030EFAE
:103DA00025F043EF25F052EF25F062EF25F071EF9B
:103DB00025F080EF25F08FEF25F0A2EF25F0B1EF91
:103DC00025F0C1EF25F0D1EF25F0E1EF25F0F1EF7F
:103DD00025F001EF26F011EF26F020EF26F02FEF6F
:103DE00026F03EEF26F04DEF26F05CEF26F06FEF69
:103DF00026F07EEF26F08DEF26F09CEF26F0AFEF59
:103E000026F0BEEF26F0D1EF26F0E0EF26F0EFEF40
:103E100026F0FEEF26F000EF27F00FEF27F01EEF61
:103E200027F02DEF27F03CEF27F04BEF27F05AEF6C
:103E300027F069EF27F078EF27F087EF27F096EF6C
:103E400027F0A5EF27F0B4EF27F0C3EF27F0D2EF6C
:103E500027F0E1EF27F0F0EF27F0FFEF27F00EEF6C
:103E600028F01DEF28F02CEF28F03BEF28F04AEF68
:103E700028F059EF28F068EF28F077EF28F086EF68
:103E800028F096EF28F0A5EF28F0B4EF28F0C3EF64
:103E900028F0D2EF28F0E1EF28F0F3EF28F002EF5E
:103EA00029F011EF29F020EF29F02FEF29F03EEF54
:103EB00029F04DEF29F05CEF29F06BEF29F07AEF54
:103EC00029F089EF29F098EF29F0A7EF29F0B6EF54
:103ED00029F0C5EF29F0D4EF29F0E3EF29F0F2EF54
:103EE00029F001EF2AF010EF2AF01FEF2AF01FEF60
:103EF0002AF01FEF2AF01FEF2AF01FEF2AF01FEF22
:103F00002AF01FEF2AF01FEF2AF01FEF2AF01FEF11
:103F10002AF01FEF2AF01FEF2AF01FEF2AF01FEF01
:103F20002AF01FEF2AF01FEF2AF01FEF2AF01FEFF1
:103F30002AF01FEF2AF01FEF2AF01FEF2AF01FEFE1
:103F40002AF01FEF2AF01FEF2AF01FEF2AF01FEFD1
:103F50002AF01FEF2AF01FEF2AF01FEF2AF01FEFC1
:103F60002AF01FEF2AF01FEF2AF01FEF2AF01FEFB1
:103F70002AF01FEF2AF01FEF2AF01FEF2AF01FEFA1
:103F80002AF01FEF2AF01FEF2AF01FEF2AF01FEF91
:103F90002AF01FEF2AF01FEF2AF01FEF2AF01FEF81
:103FA0002AF01FEF2AF01FEF2AF01FEF2AF01FEF71
:103FB0002AF01FEF2AF01FEF2AF01FEF2AF01FEF61
:103FC0002AF01FEF2AF01FEF2AF01FEF2AF01FEF51
:103FD0002AF01FEF2AF01FEF2AF01FEF2AF01FEF41
:103FE0002AF01FEF2AF01FEF2AF01FEF2AF01FEF31
:103FF0002AF01FEF2AF01FEF2AF01FEF2AF01FEF21
:104000002AF01FEF2AF01FEF2AF01FEF2AF01FEF10
:104010002AF01FEF2AF01FEF2AF021EF2AF030EFED
:104020002AF03FEF2AF04EEF2AF05DEF2AF06CEF16
:104030002AF07BEF2AF08AEF2AF099EF2AF099EF25
:104040002AF099EF2AF099EF2AF099EF2AF099EFE8
:104050002AF099EF2AF099EF2AF012004BA209D02A
:104060004C84000EF86E820EF76EC20EF66E39ECBE
:1040700006F0020E376E99EF2AF04BA209D04C845D
:10408000000EF86E820EF76ECC0EF66E39EC06F06E
:10409000020E376E99EF2AF04B844BA209D04C8464
:1040A000000EF86E820EF76EDC0EF66E39EC06F03E
:1040B000020E376E99EF2AF04B844BA209D04C8444
:1040C000000EF86E820EF76EEC0EF66E39EC06F00E
:1040D000020E376E99EF2AF04B844BA209D04C8424
:1040E000000EF86E830EF76E000EF66E39EC06F0D9
:1040F000020E376E99EF2AF04BA209D04C84000EC5
:10410000F86E830EF76E160EF66E39EC06F0020EA0
:10411000376E99EF2AF04BA209D04C84000EF86E4E
:10412000830EF76E320EF66E39EC06F0020E376E25
:1041300099EF2AF04E9C4BA20AD04C84000EF86EE8
:10414000830EF76E400EF66E39EC06F04E8C020EC2
:10415000376E4E8A4B8899EF2AF04E9C4BA209D0BD
:104160004C84000EF86E830EF76E540EF66E39EC2A
:1041700006F0020E376E4E8A4B8899EF2AF04E9C5D
:104180004BA209D04C84000EF86E830EF76E6A0EB7
:10419000F66E39EC06F0020E376E4E8A4B8899EFB8
:1041A0002AF04BA209D04C84000EF86E830EF76EF5
:1041B000820EF66E39EC06F0020E376E99EF2AF099
:1041C0004BA209D04C84000EF86E830EF76E900E51
:1041D000F66E39EC06F0020E376E99EF2AF04E9C1F
:1041E0004BA20AD04C84000EF86E830EF76E9E0E22
:1041F000F66E39EC06F04E8C020E376E4E8A4B8806
:1042000099EF2AF04BA209D04C84000EF86E830E71
:10421000F76EAC0EF66E39EC06F0020E376E99EFC3
:104220002AF04BA209D04C84000EF86E830EF76E74
:10423000B80EF66E39EC06F0020E376E99EF2AF0E2
:104240004BA209D04C84000EF86E830EF76EC80E98
:10425000F66E39EC06F0020E376E99EF2AF04BA29B
:1042600009D04C84000EF86E830EF76ED60EF66EF3
:1042700039EC06F0020E376E99EF2AF04BA209D006
:104280004C84000EF86E830EF76EE40EF66E39EC79
:1042900006F0020E376E99EF2AF04BA209D04C843B
:1042A000000EF86E830EF76EF40EF66E39EC06F023
:1042B000020E376E99EF2AF04BA209D04C84000E03
:1042C000F86E840EF76E020EF66E39EC06F0020EF2
:1042D000376E99EF2AF04BA209D04C84000EF86E8D
:1042E000840EF76E120EF66E39EC06F0020E376E83
:1042F00099EF2AF04E9C4BA209D04C84000EF86E28
:10430000840EF76E220EF66E39EC06F0020E376E52
:104310004E8A4B8899EF2AF04BA209D04C84000EAC
:10432000F86E840EF76E340EF66E39EC06F0020E5F
:10433000376E99EF2AF04DB611D04DB40FD04BA285
:1043400009D04C84000EF86E840EF76E480EF66E9F
:1043500039EC06F0020E376E99EF2AF04E9C4BA214
:104360000AD04C84000EF86E840EF76E5A0EF66E6C
:1043700039EC06F04E8C020E376E4E8A4B8899EF60
:104380002AF04BA209D04C84000EF86E840EF76E12
:104390006A0EF66E39EC06F0020E376E99EF2AF0CF
:1043A0004BA209D04C84000EF86E840EF76E7E0E80
:1043B000F66E39EC06F0020E376E99EF2AF04BA23A
:1043C00009D04C84000EF86E840EF76E8E0EF66ED9
:1043D00039EC06F0020E376E99EF2AF04BA209D0A5
:1043E0004C84000EF86E840EF76EA00EF66E39EC5B
:1043F00006F0020E376E99EF2AF04BA209D04C84DA
:10440000000EF86E840EF76EB00EF66E39EC06F004
:10441000020E376E99EF2AF04BA209D04C84000EA1
:10442000F86E840EF76EC60EF66E39EC06F0020ECC
:10443000376E99EF2AF04BA209D04C84000EF86E2B
:10444000840EF76ED00EF66E39EC06F0020E376E63
:1044500099EF2AF04BA209D04C84000EF86E840E1E
:10446000F76EE00EF66E39EC06F0020E376E99EF3D
:104470002AF04BA209D04C84000EF86E840EF76E21
:10448000F20EF66E39EC06F0020E376E99EF2AF056
:104490004BA209D04C84000EF86E850EF76E000E0C
:1044A000F66E39EC06F0020E376E99EF2AF04BA249
:1044B00009D04C84000EF86E850EF76E0C0EF66E69
:1044C00039EC06F0020E376E99EF2AF04BA209D0B4
:1044D0004C84000EF86E850EF76E1A0EF66E39ECEF
:1044E00006F0020E376E99EF2AF04E9C4BA20AD0CE
:1044F0004C84000EF86E850EF76E2C0EF66E39ECBD
:1045000006F04E8C020E376E4E8A4B8899EF2AF0D9
:104510004BA209D04C84000EF86E850EF76E3E0E4D
:10452000F66E39EC06F0020E376E99EF2AF04BA2C8
:1045300009D04C84000EF86E850EF76E540EF66EA0
:1045400039EC06F0020E376E4B8899EF2AF04BA239
:1045500009D04C84000EF86E850EF76E720EF66E62
:1045600039EC06F0020E376E4B8899EF2AF04BA219
:1045700009D04C84000EF86E850EF76E8C0EF66E28
:1045800039EC06F0020E376E4B8899EF2AF04BA2F9
:1045900009D04C84000EF86E850EF76EA40EF66EF0
:1045A00039EC06F0020E376E4B8899EF2AF04BA2D9
:1045B00009D04C84000EF86E850EF76EC40EF66EB0
:1045C00039EC06F0020E376E99EF2AF04BA209D0B3
:1045D0004C84000EF86E850EF76EE20EF66E39EC26
:1045E00006F0020E376E99EF2AF04BA209D04C84E8
:1045F000000EF86E850EF76EFE0EF66E39EC06F0C4
:10460000020E376E99EF2AF04BA209D04C84000EAF
:10461000F86E860EF76E120EF66E39EC06F0020E8C
:10462000376E99EF2AF04BA209D04C84000EF86E39
:10463000860EF76E280EF66E39EC06F0020E376E17
:1046400099EF2AF04BA209D04C84000EF86E860E2A
:10465000F76E440EF66E39EC06F0020E376E99EFE7
:104660002AF04BA209D04C84000EF86E860EF76E2D
:10467000520EF66E39EC06F0020E376E99EF2AF004
:104680004BA209D04C84000EF86E860EF76E5E0EBB
:10469000F66E39EC06F0020E376E99EF2AF04BA257
:1046A00009D04C84000EF86E860EF76E780EF66E0A
:1046B00039EC06F0020E376E99EF2AF04BA209D0C2
:1046C0004C84000EF86E860EF76E920EF66E39EC84
:1046D00006F0020E376E99EF2AF04BA209D04C84F7
:1046E000000EF86E860EF76EA60EF66E39EC06F02A
:1046F000020E376E99EF2AF04BA209D04C84000EBF
:10470000F86E860EF76EB60EF66E39EC06F0020EF7
:10471000376E99EF2AF04BA209D04C84000EF86E48
:10472000860EF76EC60EF66E39EC06F0020E376E88
:1047300099EF2AF04BA209D04C84000EF86E860E39
:10474000F76ED40EF66E39EC06F0020E376E99EF66
:104750002AF04BA209D04C84000EF86E860EF76E3C
:10476000E20EF66E39EC06F0020E376E99EF2AF083
:104770004BA209D04C84000EF86E860EF76EF80E30
:10478000F66E39EC06F0020E376E99EF2AF04BA266
:1047900009D04C84000EF86E870EF76E060EF66E8A
:1047A00039EC06F0020E376E99EF2AF04BA209D0D1
:1047B0004C84000EF86E870EF76E160EF66E39EC0E
:1047C00006F0020E376E99EF2AF04BA209D04C8406
:1047D000000EF86E870EF76E240EF66E39EC06F0BA
:1047E000020E376E99EF2AF04BA209D04C84000ECE
:1047F000F86E870EF76E360EF66E39EC06F0020E86
:10480000376E99EF2AF04BA209D04C84000EF86E57
:10481000870EF76E4C0EF66E39EC06F0020E376E10
:1048200099EF2AF04E9C4BA20AD04C84000EF86EF1
:10483000870EF76E660EF66E39EC06F04E8C020EA1
:10484000376E4E8A4B8899EF2AF04BA209D04C84E0
:10485000000EF86E870EF76E780EF66E39EC06F0E5
:10486000020E376E99EF2AF04BA209D04C84000E4D
:10487000F86E870EF76E880EF66E39EC06F0020EB3
:10488000376E99EF2AF04BA209D04C84000EF86ED7
:10489000870EF76E9C0EF66E39EC06F0020E376E40
:1048A00099EF2AF04BA209D04C84000EF86E870EC7
:1048B000F76EAE0EF66E39EC06F0020E376E99EF1B
:1048C0002AF04BA209D04C84000EF86E870EF76ECA
:1048D000C00EF66E39EC06F0020E376E99EF2AF034
:1048E0004BA209D04C84000EF86E870EF76ED00EE6
:1048F000F66E39EC06F0020E376E99EF2AF04E9CF8
:104900004BA20AD04C84000EF86E870EF76EDE0EB6
:10491000F66E39EC06F04E8C020E376E4E8A4B88DE
:1049200099EF2AF04BA209D04C84000EF86E870E46
:10493000F76EEE0EF66E39EC06F0020E376E99EF5A
:104940002AF04E9C4BA20AD04C84000EF86E870EC3
:10495000F76EFE0EF66E39EC06F04E8C020E376ED8
:104960004E8A4B8899EF2AF04BA209D04C84000E56
:10497000F86E880EF76E0C0EF66E39EC06F0020E2D
:10498000376E4A8699EF2AF04E9C4BA209D04C8490
:10499000000EF86E880EF76E160EF66E39EC06F005
:1049A000020E376E4E8A4B8899EF2AF04BA209D03F
:1049B0004C84000EF86E880EF76E2A0EF66E39ECF7
:1049C00006F0020E376E99EF2AF04BA209D04C8404
:1049D000000EF86E880EF76E3C0EF66E39EC06F09F
:1049E000020E376E99EF2AF04BA209D04C84000ECC
:1049F000F86E880EF76E4A0EF66E39EC06F0020E6F
:104A0000376E99EF2AF04BA209D04C84000EF86E55
:104A1000880EF76E5C0EF66E39EC06F0020E376EFD
:104A200099EF2AF04BA209D04C84000EF86E880E44
:104A3000F76E6A0EF66E39EC06F0020E376E99EFDD
:104A40002AF04BA209D04C84000EF86E880EF76E47
:104A5000780EF66E39EC06F0020E376E99EF2AF0FA
:104A60004E9C4BA20AD04C84000EF86E880EF76E56
:104A7000840EF66E39EC06F04E8C020E376E4E8ABE
:104A80004B8899EF2AF04BA209D04C84000EF86EA7
:104A9000880EF76E920EF66E39EC06F0020E376E47
:104AA00099EF2AF04BA209D04C84000EF86E880EC4
:104AB000F76EA20EF66E39EC06F0020E376E4B88DA
:104AC00099EF2AF04BA209D04C84000EF86E880EA4
:104AD000F76EB20EF66E39EC06F0020E376E99EFF5
:104AE0002AF04BA209D04C84000EF86E880EF76EA7
:104AF000CC0EF66E39EC06F0020E376E99EF2AF006
:104B00004BA209D04C84000EF86E880EF76EDC0EB6
:104B1000F66E39EC06F0020E376E99EF2AF04E9CD5
:104B20004BA20AD04C84000EF86E880EF76EF20E7F
:104B3000F66E39EC06F04E8C020E376E4E8A4B88BC
:104B400099EF2AF04BA209D04C84000EF86E890E22
:104B5000F76E040EF66E39EC06F0020E376E99EF22
:104B60002AF04BA209D04C84000EF86E890EF76E25
:104B7000200EF66E39EC06F0020E376E4B8899EF78
:104B80002AF04BA209D04C84000EF86E890EF76E05
:104B9000380EF66E39EC06F0020E376E4B8899EF40
:104BA0002AF04BA209D04C84000EF86E890EF76EE5
:104BB0004C0EF66E39EC06F0020E376E4B8899EF0C
:104BC0002AF04BA209D04C84000EF86E890EF76EC5
:104BD000600EF66E39EC06F0020E376E4B8899EFD8
:104BE0002AF04BA209D04C84000EF86E890EF76EA5
:104BF000760EF66E39EC06F0020E376E4B8899EFA2
:104C00002AF04BA209D04C84000EF86E890EF76E84
:104C10008E0EF66E39EC06F0020E376E4B8899EF69
:104C20002AF04BA209D04C84000EF86E890EF76E64
:104C3000A60EF66E39EC06F0020E376E99EF2AF0EA
:104C40004BA209D04C84000EF86E890EF76EB20E9E
:104C5000F66E39EC06F0020E376E99EF2AF04BA291
:104C600009D04C84000EF86E890EF76EC20EF66EF7
:104C700039EC06F0020E376E99EF2AF04BA209D0FC
:104C80004C84000EF86E890EF76ED80EF66E39EC75
:104C900006F0020E376E99EF2AF04BA209D04C8431
:104CA000000EF86E890EF76EEA0EF66E39EC06F01D
:104CB000020E376E99EF2AF04E9C4BA20AD04C841C
:104CC000000EF86E8A0EF76E040EF66E39EC06F0E2
:104CD0004E8C020E376E4E8A4B8899EF2AF04BA20B
:104CE00009D04C84000EF86E8A0EF76E140EF66E24
:104CF00039EC06F0020E376E99EF2AF04BA209D07C
:104D00004C84000EF86E8A0EF76E220EF66E39ECA9
:104D100006F0020E376E99EF2AF04BA209D04C84B0
:104D2000000EF86E8A0EF76E320EF66E39EC06F053
:104D3000020E376E99EF2AF04E9C4BA20AD04C849B
:104D4000000EF86E8A0EF76E400EF66E39EC06F025
:104D50004E8C020E376E4E8A4B8899EF2AF04BA28A
:104D600009D04C84000EF86E8A0EF76E5E0EF66E59
:104D700039EC06F0020E376E99EF2AF04E9C4BA2EA
:104D80000AD04C84000EF86E8A0EF76E6E0EF66E28
:104D900039EC06F04E8C020E376E4E8A4B8899EF36
:104DA0002AF04BA209D04C84000EF86E8A0EF76EE2
:104DB000820EF66E39EC06F0020E376E99EF2AF08D
:104DC0004BA209D04C84000EF86E8A0EF76E940E3A
:104DD000F66E39EC06F0020E376E99EF2AF04BA210
:104DE00009D04C84000EF86E8A0EF76EA40EF66E93
:104DF00039EC06F0020E376E99EF2AF099EF2AF09F
:104E00004BA209D04C84000EF86E8A0EF76EBA0ED3
:104E1000F66E39EC06F0020E376E99EF2AF04BA2CF
:104E200009D04C84000EF86E8A0EF76EC60EF66E30
:104E300039EC06F0020E376E99EF2AF04BA209D03A
:104E40004C84000EF86E8A0EF76ED40EF66E39ECB6
:104E500006F0020E376E99EF2AF04BA209D04C846F
:104E6000000EF86E8A0EF76EE20EF66E39EC06F062
:104E7000020E376E99EF2AF04BA209D04C84000E37
:104E8000F86E8A0EF76EF20EF66E39EC06F0020E30
:104E9000376E99EF2AF04BA209D04C84000EF86EC1
:104EA0008B0EF76E000EF66E39EC06F0020E376EC2
:104EB00099EF2AF04BA209D04C84000EF86E8B0EAD
:104EC000F76E100EF66E39EC06F0020E376E99EFA3
:104ED0002AF04BA209D04C84000EF86E8B0EF76EB0
:104EE000200EF66E39EC06F0020E376E99EF2AF0BE
:104EF0004BA209D04C84000EF86E8B0EF76E2E0E6E
:104F0000F66E39EC06F0020E376E99EF2AF04BA2DE
:104F100009D04C84000EF86E8B0EF76E480EF66EBC
:104F200039EC06F0020E376E99EF2AF04BA209D049
:104F30004C84000EF86E8B0EF76E560EF66E39EC42
:104F400006F0020E376E99EF2AF04BA209D04C847E
:104F5000000EF86E8B0EF76E640EF66E39EC06F0EE
:104F6000020E376E99EF2AF04BA209D04C84000E46
:104F7000F86E8B0EF76E740EF66E39EC06F0020EBC
:104F8000376E99EF2AF04BA209D04C84000EF86ED0
:104F90008B0EF76E800EF66E39EC06F0020E376E51
:104FA00099EF2AF04BA209D04C84000EF86E8B0EBC
:104FB000F76E920EF66E39EC06F0020E376E99EF30
:104FC0002AF04BA209D04C84000EF86E8B0EF76EBF
:104FD000A20EF66E39EC06F0020E376E99EF2AF04B
:104FE0004BA209D04C84000EF86E8B0EF76EB00EFB
:104FF000F66E39EC06F0020E376E99EF2AF04BA2EE
:1050000009D04C84000EF86E8B0EF76EC60EF66E4D
:1050100039EC06F0020E376E99EF2AF04BA209D058
:105020004C84000EF86E8B0EF76ED60EF66E39ECD1
:1050300006F0020E376E99EF2AF04BA209D04C848D
:10504000000EF86E8B0EF76EE60EF66E39EC06F07B
:10505000020E376E99EF2AF04BA209D04C84000E55
:10506000F86E8B0EF76EF40EF66E39EC06F0020E4B
:10507000376E99EF2AF04BA209D04C84000EF86EDF
:105080008C0EF76E020EF66E39EC06F0020E376EDD
:1050900099EF2AF04BA209D04C84000EF86E8C0ECA
:1050A000F76E180EF66E39EC06F0020E376E99EFB9
:1050B0002AF04BA209D04C84000EF86E8C0EF76ECD
:1050C000260EF66E39EC06F0020E376E99EF2AF0D6
:1050D0004BA209D04C84000EF86E8C0EF76E360E83
:1050E000F66E39EC06F0020E376E99EF2AF04BA2FD
:1050F00009D04C84000EF86E8C0EF76E440EF66EDE
:1051000039EC06F0020E376E99EF2AF04BA209D067
:105110004C84000EF86E8C0EF76E500EF66E39EC65
:1051200006F0020E376E4A8699EF2AF04BA209D09C
:105130004C84000EF86E8C0EF76E780EF66E39EC1D
:1051400006F0020E376E99EF2AF04BA209D04C847C
:10515000000EF86E8C0EF76E860EF66E39EC06F0C9
:10516000020E376E99EF2AF04BA209D04C84000E44
:10517000F86E8C0EF76EA80EF66E39EC06F0020E85
:10518000376E99EF2AF04BA209D04C84000EF86ECE
:105190008C0EF76EB60EF66E39EC06F0020E376E18
:1051A00099EF2AF04BA209D04C84000EF86E8C0EB9
:1051B000F76EC80EF66E39EC06F0020E376E99EFF8
:1051C0002AF04E9C4BA209D04C84000EF86E8C0E37
:1051D000F76ED60EF66E39EC06F0020E376E4E8A7A
:1051E0004B8899EF2AF04BA209D04C84000EF86E40
:1051F0008C0EF76EEE0EF66E39EC06F0020E376E80
:1052000099EF2AF04BA209D04C84000EF86E8C0E58
:10521000F76EFE0EF66E39EC06F0020E376E99EF61
:105220002AF04BA209D04C84000EF86E8D0EF76E5A
:10523000140EF66E39EC06F0020E376E99EF2AF076
:105240004BA209D04C84000EF86E8D0EF76E280E1E
:10525000F66E39EC06F0020E376E99EF2AF04BA28B
:1052600009D04C84000EF86E8D0EF76E3A0EF66E75
:1052700039EC06F0020E376E99EF2AF04BA209D0F6
:105280004C84000EF86E8D0EF76E440EF66E39ECFF
:1052900006F0020E376E99EF2AF04BA209D04C842B
:1052A000000EF86E8D0EF76E500EF66E39EC06F0AD
:1052B000020E376E99EF2AF04BA209D04C84000EF3
:1052C000F86E8D0EF76E580EF66E39EC06F0020E83
:1052D000376E99EF2AF04BA209D04C84000EF86E7D
:1052E0008D0EF76E660EF66E39EC06F0020E376E16
:1052F00099EF2AF04BA209D04C84000EF86E8D0E67
:10530000F76E720EF66E39EC06F0020E376E99EFFC
:105310002AF04BA209D04C84000EF86E8D0EF76E69
:10532000800EF66E39EC06F0020E376E99EF2AF019
:105330004BA209D04C84000EF86E8D0EF76E8C0EC9
:10534000F66E39EC06F0020E376E99EF2AF04BA29A
:1053500009D04C84000EF86E8D0EF76E980EF66E26
:1053600039EC06F0020E376E99EF2AF04BA209D005
:105370004C84000EF86E8D0EF76EA20EF66E39ECB0
:1053800006F0020E376E99EF2AF04BA209D04C843A
:10539000000EF86E8D0EF76EB40EF66E39EC06F058
:1053A000020E376E99EF2AF04BA209D04C84000E02
:1053B000F86E8D0EF76EBE0EF66E39EC06F0020E2C
:1053C000376E99EF2AF04BA209D04C84000EF86E8C
:1053D0008D0EF76ECE0EF66E39EC06F0020E376EBD
:1053E00099EF2AF04BA209D04C84000EF86E8D0E76
:1053F000F76EDE0EF66E39EC06F0020E376E99EFA0
:105400002AF04BA209D04C84000EF86E8D0EF76E78
:10541000EE0EF66E39EC06F0020E376E99EF2AF0BA
:105420004BA209D04C84000EF86E8D0EF76EFA0E6A
:10543000F66E39EC06F0020E376E99EF2AF099EF0E
:105440002AF04BA209D04C84000EF86E8E0EF76E37
:10545000080EF66E39EC06F0020E376E99EF2AF060
:105460004BA209D04C84000EF86E8E0EF76E140E0F
:10547000F66E39EC06F0020E376E99EF2AF04BA269
:1054800009D04C84000EF86E8E0EF76E200EF66E6C
:1054900039EC06F0020E376E99EF2AF04BA209D0D4
:1054A0004C84000EF86E8E0EF76E2C0EF66E39ECF4
:1054B00006F0020E376E99EF2AF04BA209D04C8409
:1054C000000EF86E8E0EF76E380EF66E39EC06F0A2
:1054D000020E376E99EF2AF04BA209D04C84000ED1
:1054E000F86E8E0EF76E440EF66E39EC06F0020E74
:1054F000376E99EF2AF04BA209D04C84000EF86E5B
:105500008E0EF76E500EF66E39EC06F0020E376E08
:1055100099EF2AF04BA209D04C84000EF86E8E0E43
:10552000F76E5C0EF66E39EC06F0020E376E99EFF0
:105530002AF030C031F0120002C7E8FF006EF4C15B
:10554000E8FF001804E000C0F4F1040E376E12000A
:1055500002C7E8FF240A16E1000EF86E7B0EF76E14
:10556000160EF66E39EC06F0000EE8CF0AF305C70A
:10557000E8FFD00FE8CF0BF306C7E8FFD00FE8CF66
:105580000CF30DD0000EE8CF0AF304C7E8FFD00FEC
:10559000E8CF0BF305C7E8FFD00FE8CF0CF3530EAD
:1055A0000AEC06F0BCEC05F00EC300F0000EFB6E3A
:1055B000550EFA6E0044016EC20E0124D8B0FA2ACC
:1055C000F96E17D01AD01DD020D023D026D029D0E4
:1055D0002CD02FD032D035D03ED04AD056D062D049
:1055E0006ED07AD086D092D09ED0AAD0B6D0B5D088
:1055F000C0D0300E0AEC06F0BCD0310E0AEC06F03A
:10560000B8D0320E0AEC06F0B4D0330E0AEC06F035
:10561000B0D0340E0AEC06F0ACD0350E0AEC06F031
:10562000A8D0360E0AEC06F0A4D0370E0AEC06F02D
:10563000A0D0380E0AEC06F09CD0390E0AEC06F029
:1056400098D0390E0AEC06F02B0E0AEC06F0350E57
:105650000AEC06F08ED0390E0AEC06F02B0E0AEC9E
:1056600006F0310E0AEC06F0300E0AEC06F081D09E
:10567000390E0AEC06F02B0E0AEC06F0310E0AEC9D
:1056800006F0350E0AEC06F074D0390E0AEC06F07E
:105690002B0E0AEC06F0320E0AEC06F0300E0AEC85
:1056A00006F067D0390E0AEC06F02B0E0AEC06F075
:1056B000320E0AEC06F0350E0AEC06F05AD0390E1E
:1056C0000AEC06F02B0E0AEC06F0330E0AEC06F09C
:1056D000300E0AEC06F04DD0390E0AEC06F02B0E17
:1056E0000AEC06F0330E0AEC06F0350E0AEC06F072
:1056F00040D0390E0AEC06F02B0E0AEC06F0340E00
:105700000AEC06F0300E0AEC06F033D0390E0AEC43
:1057100006F02B0E0AEC06F0340E0AEC06F0350EFD
:105720000AEC06F026D0390E0AEC06F02B0E0AEC35
:1057300006F0350E0AEC06F0300E0AEC06F019D031
:10574000390E0AEC06F02B0E0AEC06F0350E0AECC8
:1057500006F0350E0AEC06F00CD0390E0AEC06F015
:105760002B0E0AEC06F0360E0AEC06F0300E0AECB0
:1057700006F00D0E0AEC06F0120004C7E8FF300A2E
:1057800006E103C7E8FF300AD8B40EEF2CF0000E94
:10579000E8CF0AF303C7E8FFD00FE8CF0BF304C745
:1057A000E8FFD00FE8CF0CF3BCEC05F00EC33FF0E0
:1057B00017EE05F021EEC0F03CC03DF03FC041F0D7
:1057C000E650006E3C5000C0DBFF3C2A300E3C1817
:1057D000D8B43C6A412EF4D73FC041F0406A3D50F6
:1057E0004024006E402A300E006002D0005002D0EB
:1057F000D00E0024DBCFE8FF006EC60F0A0FD8B032
:105800004E88200E0018D8B44E862A0E0018D8B440
:105810004E864EB60FEC2CF0412EE1D712004050D0
:105820003D26300E3D18D8B43D6A3E503D6403D04D
:105830003D5C426E06D0300E006E3E50005C3D2452
:10584000426E3E50DB50006E3E2A300E3E18D8B4F9
:105850003E6A2A0E001807E100501B660AEC06F0AB
:10586000200E006E1FD05F0E001804E10D0E0AEC32
:1058700006F018D02F0E001815E1200E0AEC06F0E5
:10588000530E0AEC06F06C0E0AEC06F0610E0AEC00
:1058900006F0730E0AEC06F0680E0AEC06F0200E15
:1058A0000AEC06F000500AEC06F04EA809D00050B1
:1058B000410A03E1270E0AEC06F00D0E0AEC06F091
:1058C000422EBFD70D0E0AEC06F04E964E98406A57
:1058D0001200000EF86E7C0EF76EF40EF66E39ECC8
:1058E00006F005C7E8FF300A1AE004C7E8FF320AED
:1058F00009E1000EF86E7A0EF76E220EF66E39ECA4
:1059000006F015D004C7E8FF340A11E1000EF86E66
:105910007A0EF76E300EF66E39EC06F008D0000EF7
:10592000F86E770EF76E580EF66E39EC06F0120030
:10593000000EF86E7B0EF76EF80EF66E39EC06F080
:1059400005C7E8FF300A10E002C7E8FF0AEC06F0DE
:1059500003C7E8FF0AEC06F004C7E8FF0AEC06F00C
:10596000570E0AEC06F013D002C7E8FF0AEC06F067
:1059700003C7E8FF0AEC06F02E0E0AEC06F004C797
:10598000E8FF0AEC06F0570E0AEC06F000D00D0E08
:105990000AEC06F01200020E2D6EE350240A09E113
:1059A000000EF86E7B0EF76E160EF66E39EC06F0F2
:1059B0002D2A000EF86E7C0EF76E1C0EF66E39EC7A
:1059C00006F04DA21FD02D2A2D50E350300A06E1DB
:1059D0002D062D50E350300A1AE02D2A2D062D50A9
:1059E000E3500AEC06F02D2A2D50E3500AEC06F0A5
:1059F000440E0AEC06F0420E0AEC06F00D0E0AEC1C
:105A000006F016D02D2A2D50E350300A09E1000E81
:105A1000F86E770EF76E580EF66E39EC06F008D079
:105A2000000EF86E770EF76E640EF66E39EC06F027
:105A30001200020E2D6EE350240A09E1000EF86EEA
:105A40007B0EF76E160EF66E39EC06F02D2A2D50F1
:105A5000E350300A09E1000EF86E770EF76E580E2B
:105A6000F66E39EC06F008D0000EF86E770EF76E81
:105A7000640EF66E39EC06F0120002C7E8FF240A45
:105A80001DE1000EF86E7B0EF76E160EF66E39EC09
:105A900006F0000EF86E7B0EF76E720EF66E39ECA5
:105AA00006F003C7E8FF0AEC06F004C7E8FF0AECBB
:105AB00006F005C7E8FF0AEC06F014D0000EF86EF9
:105AC0007B0EF76E720EF66E39EC06F002C7E8FF39
